{"abi":[{"type":"function","name":"cancelStream","inputs":[{"name":"_streamId","type":"uint256","internalType":"uint256"}],"outputs":[],"stateMutability":"nonpayable"},{"type":"function","name":"createMultipleStreams","inputs":[{"name":"_recipients","type":"address[]","internalType":"address[]"},{"name":"_duration","type":"uint256","internalType":"uint256"},{"name":"_amount","type":"uint256","internalType":"uint256"},{"name":"_percentages","type":"uint256[]","internalType":"uint256[]"}],"outputs":[{"name":"","type":"uint256","internalType":"uint256"}],"stateMutability":"nonpayable"},{"type":"function","name":"createStream","inputs":[{"name":"_recipient","type":"address","internalType":"address"},{"name":"_duration","type":"uint256","internalType":"uint256"},{"name":"_amount","type":"uint256","internalType":"uint256"}],"outputs":[{"name":"","type":"uint256","internalType":"uint256"}],"stateMutability":"nonpayable"},{"type":"function","name":"getClaimableFunds","inputs":[{"name":"_streamId","type":"uint256","internalType":"uint256"}],"outputs":[{"name":"","type":"uint256","internalType":"uint256"}],"stateMutability":"view"},{"type":"function","name":"pauseStream","inputs":[{"name":"_streamId","type":"uint256","internalType":"uint256"}],"outputs":[],"stateMutability":"nonpayable"},{"type":"function","name":"redirectClaimsRecipient","inputs":[{"name":"_streamId","type":"uint256","internalType":"uint256"},{"name":"_newRecipient","type":"address","internalType":"address"}],"outputs":[],"stateMutability":"nonpayable"},{"type":"function","name":"streams","inputs":[{"name":"","type":"uint256","internalType":"uint256"}],"outputs":[{"name":"sender","type":"address","internalType":"address"},{"name":"duration","type":"uint256","internalType":"uint256"},{"name":"amount","type":"uint256","internalType":"uint256"},{"name":"startTime","type":"uint256","internalType":"uint256"},{"name":"endTime","type":"uint256","internalType":"uint256"},{"name":"flowRate","type":"uint256","internalType":"uint256"},{"name":"active","type":"bool","internalType":"bool"},{"name":"paused","type":"bool","internalType":"bool"},{"name":"pausedAt","type":"uint256","internalType":"uint256"},{"name":"totalPausedDuration","type":"uint256","internalType":"uint256"}],"stateMutability":"view"},{"type":"function","name":"transferClaimsToAddress","inputs":[{"name":"_streamId","type":"uint256","internalType":"uint256"},{"name":"_amount","type":"uint256","internalType":"uint256"},{"name":"_receiver","type":"address","internalType":"address"}],"outputs":[],"stateMutability":"nonpayable"},{"type":"function","name":"unPauseStream","inputs":[{"name":"_streamId","type":"uint256","internalType":"uint256"}],"outputs":[],"stateMutability":"nonpayable"},{"type":"function","name":"withdrawFromStream","inputs":[{"name":"_streamId","type":"uint256","internalType":"uint256"},{"name":"_amount","type":"uint256","internalType":"uint256"}],"outputs":[],"stateMutability":"nonpayable"},{"type":"event","name":"MultipleStreamsCreated","inputs":[{"name":"id","type":"uint256","indexed":true,"internalType":"uint256"},{"name":"sender","type":"address","indexed":true,"internalType":"address"},{"name":"recipient","type":"address[]","indexed":true,"internalType":"address[]"},{"name":"amount","type":"uint256","indexed":false,"internalType":"uint256"},{"name":"duration","type":"uint256","indexed":false,"internalType":"uint256"}],"anonymous":false},{"type":"event","name":"Redirect","inputs":[{"name":"id","type":"uint256","indexed":true,"internalType":"uint256"},{"name":"oldRecipient","type":"address","indexed":false,"internalType":"address"},{"name":"newRecipient","type":"address","indexed":false,"internalType":"address"}],"anonymous":false},{"type":"event","name":"StreamCancelled","inputs":[{"name":"id","type":"uint256","indexed":true,"internalType":"uint256"}],"anonymous":false},{"type":"event","name":"StreamCreated","inputs":[{"name":"id","type":"uint256","indexed":true,"internalType":"uint256"},{"name":"sender","type":"address","indexed":true,"internalType":"address"},{"name":"recipient","type":"address","indexed":true,"internalType":"address"},{"name":"amount","type":"uint256","indexed":false,"internalType":"uint256"},{"name":"duration","type":"uint256","indexed":false,"internalType":"uint256"}],"anonymous":false},{"type":"event","name":"StreamPaused","inputs":[{"name":"id","type":"uint256","indexed":true,"internalType":"uint256"}],"anonymous":false},{"type":"event","name":"StreamUnpaused","inputs":[{"name":"id","type":"uint256","indexed":true,"internalType":"uint256"}],"anonymous":false},{"type":"event","name":"TransferClaims","inputs":[{"name":"id","type":"uint256","indexed":true,"internalType":"uint256"},{"name":"to","type":"address","indexed":true,"internalType":"address"},{"name":"amount","type":"uint256","indexed":false,"internalType":"uint256"}],"anonymous":false},{"type":"event","name":"WithdrawFromStream","inputs":[{"name":"id","type":"uint256","indexed":true,"internalType":"uint256"},{"name":"recipient","type":"address","indexed":true,"internalType":"address"},{"name":"amount","type":"uint256","indexed":false,"internalType":"uint256"}],"anonymous":false},{"type":"error","name":"ReentrancyGuardReentrantCall","inputs":[]}],"bytecode":{"object":"0x6080604052600180553480156012575f5ffd5b506001602d6023603760201b60201c565b606060201b60201c565b5f01819055506069565b5f7f9b779b17422d0df92223018b32b4d1fa46e071723d6817e2486d003becc55f005f1b905090565b5f819050919050565b612f7f806100765f395ff3fe608060405234801561000f575f5ffd5b506004361061009c575f3560e01c80637a9b2c6c116100645780637a9b2c6c1461015d578063a6f55bbe14610179578063b8cd958714610195578063b92554b1146101c5578063cd9e3fe8146101e15761009c565b80631d2f7ee4146100a0578063585c8ae4146100d057806364d60d91146100ec5780636db9241b14610125578063746ff13d14610141575b5f5ffd5b6100ba60048036038101906100b59190611fae565b610211565b6040516100c79190611fe8565b60405180910390f35b6100ea60048036038101906100e5919061205b565b61023c565b005b61010660048036038101906101019190611fae565b6104da565b60405161011c9a999897969594939291906120c2565b60405180910390f35b61013f600480360381019061013a9190611fae565b610561565b005b61015b60048036038101906101569190611fae565b6109de565b005b6101776004803603810190610172919061215c565b610b71565b005b610193600480360381019061018e9190611fae565b610f01565b005b6101af60048036038101906101aa91906123aa565b611092565b6040516101bc9190611fe8565b60405180910390f35b6101df60048036038101906101da9190612446565b61161d565b005b6101fb60048036038101906101f69190612496565b61199e565b6040516102089190611fe8565b60405180910390f35b5f5f5f5f8481526020019081526020015f2090505f6102303383611d53565b90508092505050919050565b5f73ffffffffffffffffffffffffffffffffffffffff168173ffffffffffffffffffffffffffffffffffffffff16036102aa576040517f08c379a00000000000000000000000000000000000000000000000000000000081526004016102a190612540565b60405180910390fd5b5f5f5f8481526020019081526020015f209050806009015f9054906101000a900460ff1661030d576040517f08c379a0000000000000000000000000000000000000000000000000000000008152600401610304906125a8565b60405180910390fd5b8060090160019054906101000a900460ff161561035f576040517f08c379a000000000000000000000000000000000000000000000000000000000815260040161035690612610565b60405180910390fd5b5f5f90505f5f90505b8260010180549050811015610459573373ffffffffffffffffffffffffffffffffffffffff168360010182815481106103a4576103a361262e565b5b905f5260205f20015f9054906101000a900473ffffffffffffffffffffffffffffffffffffffff1673ffffffffffffffffffffffffffffffffffffffff160361044c57838360010182815481106103fe576103fd61262e565b5b905f5260205f20015f6101000a81548173ffffffffffffffffffffffffffffffffffffffff021916908373ffffffffffffffffffffffffffffffffffffffff16021790555060019150610459565b8080600101915050610368565b508061049a576040517f08c379a0000000000000000000000000000000000000000000000000000000008152600401610491906126a5565b60405180910390fd5b837f1f4bb3687e3231a968b4449f2bd6784c01d578ab5f307f0499bef96c39a4fd7033856040516104cc9291906126c3565b60405180910390a250505050565b5f602052805f5260405f205f91509050805f015f9054906101000a900473ffffffffffffffffffffffffffffffffffffffff1690806003015490806004015490806005015490806006015490806007015490806009015f9054906101000a900460ff16908060090160019054906101000a900460ff169080600a01549080600b015490508a565b610569611e9f565b5f5f5f8381526020019081526020015f209050806009015f9054906101000a900460ff166105cc576040517f08c379a00000000000000000000000000000000000000000000000000000000081526004016105c3906125a8565b60405180910390fd5b5f815f015f9054906101000a900473ffffffffffffffffffffffffffffffffffffffff1673ffffffffffffffffffffffffffffffffffffffff163373ffffffffffffffffffffffffffffffffffffffff1614905080610660576040517f08c379a000000000000000000000000000000000000000000000000000000000815260040161065790612734565b60405180910390fd5b5f826009015f6101000a81548160ff0219169083151502179055505f826006015442101561069d57826005015442610698919061277f565b6106a3565b82600301545b90505f8360070154826106b691906127b2565b90505f5f90505b846001018054905081101561088f575f6127108660020183815481106106e6576106e561262e565b5b905f5260205f200154846106fa91906127b2565b6107049190612820565b90505f86600801838154811061071d5761071c61262e565b5b905f5260205f20015482610731919061277f565b90505f81111561088057808760080184815481106107525761075161262e565b5b905f5260205f20015f8282546107689190612850565b925050819055505f7365e37b558f64e2be5768db46df22f93d85741a9e73ffffffffffffffffffffffffffffffffffffffff1663a9059cbb8960010186815481106107b6576107b561262e565b5b905f5260205f20015f9054906101000a900473ffffffffffffffffffffffffffffffffffffffff16846040518363ffffffff1660e01b81526004016107fc929190612883565b6020604051808303815f875af1158015610818573d5f5f3e3d5ffd5b505050506040513d601f19601f8201168201806040525081019061083c91906128d4565b90508061087e576040517f08c379a000000000000000000000000000000000000000000000000000000000815260040161087590612949565b60405180910390fd5b505b505080806001019150506106bd565b505f8185600401546108a1919061277f565b90505f8111156109a1575f7365e37b558f64e2be5768db46df22f93d85741a9e73ffffffffffffffffffffffffffffffffffffffff1663a9059cbb875f015f9054906101000a900473ffffffffffffffffffffffffffffffffffffffff16846040518363ffffffff1660e01b815260040161091d929190612883565b6020604051808303815f875af1158015610939573d5f5f3e3d5ffd5b505050506040513d601f19601f8201168201806040525081019061095d91906128d4565b90508061099f576040517f08c379a000000000000000000000000000000000000000000000000000000000815260040161099690612949565b60405180910390fd5b505b857f75b8c91e46f219f2164d6bce576e7cebd2d3ff8749726009fcafdf04e2e1eb7b60405160405180910390a250505050506109db611ec1565b50565b5f5f5f8381526020019081526020015f209050806009015f9054906101000a900460ff16610a41576040517f08c379a0000000000000000000000000000000000000000000000000000000008152600401610a38906125a8565b60405180910390fd5b8060090160019054906101000a900460ff1615610a93576040517f08c379a0000000000000000000000000000000000000000000000000000000008152600401610a8a906129b1565b60405180910390fd5b805f015f9054906101000a900473ffffffffffffffffffffffffffffffffffffffff1673ffffffffffffffffffffffffffffffffffffffff163373ffffffffffffffffffffffffffffffffffffffff1614610b23576040517f08c379a0000000000000000000000000000000000000000000000000000000008152600401610b1a90612a19565b60405180910390fd5b60018160090160016101000a81548160ff021916908315150217905550817fc1e14ec692cfc1a89cae539cb884be8d7cc39fd7a129fd73e0d59895fe48d2b860405160405180910390a25050565b610b79611e9f565b5f5f5f8481526020019081526020015f209050806009015f9054906101000a900460ff16610bdc576040517f08c379a0000000000000000000000000000000000000000000000000000000008152600401610bd3906125a8565b60405180910390fd5b8060090160019054906101000a900460ff1615610c2e576040517f08c379a0000000000000000000000000000000000000000000000000000000008152600401610c2590612610565b60405180910390fd5b80600501544211610c74576040517f08c379a0000000000000000000000000000000000000000000000000000000008152600401610c6b90612a81565b60405180910390fd5b5f610c7f3383611d53565b90505f8311610cc3576040517f08c379a0000000000000000000000000000000000000000000000000000000008152600401610cba90612ae9565b60405180910390fd5b80831115610d06576040517f08c379a0000000000000000000000000000000000000000000000000000000008152600401610cfd90612b51565b60405180910390fd5b5f5f90505b8260010180549050811015610dd0573373ffffffffffffffffffffffffffffffffffffffff16836001018281548110610d4757610d4661262e565b5b905f5260205f20015f9054906101000a900473ffffffffffffffffffffffffffffffffffffffff1673ffffffffffffffffffffffffffffffffffffffff1603610dc35783836008018281548110610da157610da061262e565b5b905f5260205f20015f828254610db79190612850565b92505081905550610dd0565b8080600101915050610d0b565b505f7365e37b558f64e2be5768db46df22f93d85741a9e73ffffffffffffffffffffffffffffffffffffffff1663a9059cbb33866040518363ffffffff1660e01b8152600401610e21929190612883565b6020604051808303815f875af1158015610e3d573d5f5f3e3d5ffd5b505050506040513d601f19601f82011682018060405250810190610e6191906128d4565b905080610ea3576040517f08c379a0000000000000000000000000000000000000000000000000000000008152600401610e9a90612949565b60405180910390fd5b3373ffffffffffffffffffffffffffffffffffffffff16857f36c3ab437e6a424ed25dc4bfdeb62706aa06558660fab2dab229d2555adaf89c86604051610eea9190611fe8565b60405180910390a3505050610efd611ec1565b5050565b5f5f5f8381526020019081526020015f209050806009015f9054906101000a900460ff16610f64576040517f08c379a0000000000000000000000000000000000000000000000000000000008152600401610f5b906125a8565b60405180910390fd5b8060090160019054906101000a900460ff16610fb5576040517f08c379a0000000000000000000000000000000000000000000000000000000008152600401610fac90612bb9565b60405180910390fd5b805f015f9054906101000a900473ffffffffffffffffffffffffffffffffffffffff1673ffffffffffffffffffffffffffffffffffffffff163373ffffffffffffffffffffffffffffffffffffffff1614611045576040517f08c379a000000000000000000000000000000000000000000000000000000000815260040161103c90612a19565b60405180910390fd5b5f8160090160016101000a81548160ff021916908315150217905550817f1596c7c03ad2a3ba0ace554b73f0d4cabac8f60ebba723b7f501aa9697f673e960405160405180910390a25050565b5f61109b611e9f565b60018551116110df576040517f08c379a00000000000000000000000000000000000000000000000000000000081526004016110d690612c21565b60405180910390fd5b8151855114611123576040517f08c379a000000000000000000000000000000000000000000000000000000000815260040161111a90612c89565b60405180910390fd5b5f8311801561113157505f84115b611170576040517f08c379a000000000000000000000000000000000000000000000000000000000815260040161116790612cf1565b60405180910390fd5b5f5f5f90505b8351811015611210575f8482815181106111935761119261262e565b5b6020026020010151116111db576040517f08c379a00000000000000000000000000000000000000000000000000000000081526004016111d290612d59565b60405180910390fd5b8381815181106111ee576111ed61262e565b5b6020026020010151826112019190612850565b91508080600101915050611176565b506127108114611255576040517f08c379a000000000000000000000000000000000000000000000000000000000815260040161124c90612dc1565b60405180910390fd5b5f7365e37b558f64e2be5768db46df22f93d85741a9e73ffffffffffffffffffffffffffffffffffffffff166323b872dd3330886040518463ffffffff1660e01b81526004016112a793929190612ddf565b6020604051808303815f875af11580156112c3573d5f5f3e3d5ffd5b505050506040513d601f19601f820116820180604052508101906112e791906128d4565b905080611329576040517f08c379a000000000000000000000000000000000000000000000000000000000815260040161132090612949565b60405180910390fd5b5f60015490505f5f5f8381526020019081526020015f2090505f5f90505b89518110156114cb575f73ffffffffffffffffffffffffffffffffffffffff168a828151811061137a5761137961262e565b5b602002602001015173ffffffffffffffffffffffffffffffffffffffff16036113d8576040517f08c379a00000000000000000000000000000000000000000000000000000000081526004016113cf90612540565b60405180910390fd5b816001018a82815181106113ef576113ee61262e565b5b6020026020010151908060018154018082558091505060019003905f5260205f20015f9091909190916101000a81548173ffffffffffffffffffffffffffffffffffffffff021916908373ffffffffffffffffffffffffffffffffffffffff1602179055508160020187828151811061146b5761146a61262e565b5b6020026020010151908060018154018082558091505060019003905f5260205f20015f9091909190915055816008015f908060018154018082558091505060019003905f5260205f20015f90919091909150558080600101915050611347565b5033815f015f6101000a81548173ffffffffffffffffffffffffffffffffffffffff021916908373ffffffffffffffffffffffffffffffffffffffff16021790555087816003018190555086816004018190555042816005018190555087426115349190612850565b816006018190555087876115489190612820565b81600701819055506001816009015f6101000a81548160ff0219169083151502179055505f8160090160016101000a81548160ff02191690831515021790555060015f81548092919061159a90612e14565b9190505550886040516115ad9190612f0c565b60405180910390203373ffffffffffffffffffffffffffffffffffffffff16837f73f8783bdf460e02ac9f470e63eb7a3d38045ed46f12dddf27d2d77d330753438a8c6040516115fe929190612f22565b60405180910390a481945050505050611615611ec1565b949350505050565b5f5f5f8581526020019081526020015f209050806009015f9054906101000a900460ff16611680576040517f08c379a0000000000000000000000000000000000000000000000000000000008152600401611677906125a8565b60405180910390fd5b8060090160019054906101000a900460ff16156116d2576040517f08c379a00000000000000000000000000000000000000000000000000000000081526004016116c990612610565b60405180910390fd5b80600501544211611718576040517f08c379a000000000000000000000000000000000000000000000000000000000815260040161170f90612a81565b60405180910390fd5b5f6117233383611d53565b90505f8411611767576040517f08c379a000000000000000000000000000000000000000000000000000000000815260040161175e90612ae9565b60405180910390fd5b808411156117aa576040517f08c379a00000000000000000000000000000000000000000000000000000000081526004016117a190612b51565b60405180910390fd5b5f5f90505b8260010180549050811015611874573373ffffffffffffffffffffffffffffffffffffffff168360010182815481106117eb576117ea61262e565b5b905f5260205f20015f9054906101000a900473ffffffffffffffffffffffffffffffffffffffff1673ffffffffffffffffffffffffffffffffffffffff160361186757848360080182815481106118455761184461262e565b5b905f5260205f20015f82825461185b9190612850565b92505081905550611874565b80806001019150506117af565b505f7365e37b558f64e2be5768db46df22f93d85741a9e73ffffffffffffffffffffffffffffffffffffffff1663a9059cbb85876040518363ffffffff1660e01b81526004016118c5929190612883565b6020604051808303815f875af11580156118e1573d5f5f3e3d5ffd5b505050506040513d601f19601f8201168201806040525081019061190591906128d4565b905080611947576040517f08c379a000000000000000000000000000000000000000000000000000000000815260040161193e90612949565b60405180910390fd5b8373ffffffffffffffffffffffffffffffffffffffff16867faa15be4520c0655c62fca591eb6944ef2f72a2f7615356edd4faed8aab8045ed8760405161198e9190611fe8565b60405180910390a3505050505050565b5f6119a7611e9f565b5f73ffffffffffffffffffffffffffffffffffffffff168473ffffffffffffffffffffffffffffffffffffffff1603611a15576040517f08c379a0000000000000000000000000000000000000000000000000000000008152600401611a0c90612540565b60405180910390fd5b5f82118015611a2357505f83115b611a62576040517f08c379a0000000000000000000000000000000000000000000000000000000008152600401611a5990612cf1565b60405180910390fd5b5f7365e37b558f64e2be5768db46df22f93d85741a9e73ffffffffffffffffffffffffffffffffffffffff166323b872dd3330866040518463ffffffff1660e01b8152600401611ab493929190612ddf565b6020604051808303815f875af1158015611ad0573d5f5f3e3d5ffd5b505050506040513d601f19601f82011682018060405250810190611af491906128d4565b905080611b36576040517f08c379a0000000000000000000000000000000000000000000000000000000008152600401611b2d90612949565b60405180910390fd5b5f60015490505f5f5f8381526020019081526020015f20905033815f015f6101000a81548173ffffffffffffffffffffffffffffffffffffffff021916908373ffffffffffffffffffffffffffffffffffffffff1602179055508060010187908060018154018082558091505060019003905f5260205f20015f9091909190916101000a81548173ffffffffffffffffffffffffffffffffffffffff021916908373ffffffffffffffffffffffffffffffffffffffff16021790555080600201612710908060018154018082558091505060019003905f5260205f20015f9091909190915055806008015f908060018154018082558091505060019003905f5260205f20015f90919091909150558581600301819055508481600401819055504281600501819055508542611c6b9190612850565b81600601819055508585611c7f9190612820565b81600701819055506001816009015f6101000a81548160ff0219169083151502179055505f8160090160016101000a81548160ff02191690831515021790555060015f815480929190611cd190612e14565b91905055508673ffffffffffffffffffffffffffffffffffffffff163373ffffffffffffffffffffffffffffffffffffffff16837f3062262d3b7b7b5292387920111bfa3e0597dc070a8f10f1be710f15868c22e0888a604051611d36929190612f22565b60405180910390a4819350505050611d4c611ec1565b9392505050565b5f5f82600601544210611d6c5782600301549050611d7f565b826005015442611d7c919061277f565b90505b5f836007015482611d9091906127b2565b90505f5f90505b8460010180549050811015611e92578573ffffffffffffffffffffffffffffffffffffffff16856001018281548110611dd357611dd261262e565b5b905f5260205f20015f9054906101000a900473ffffffffffffffffffffffffffffffffffffffff1673ffffffffffffffffffffffffffffffffffffffff1603611e85575f612710866002018381548110611e3057611e2f61262e565b5b905f5260205f20015484611e4491906127b2565b611e4e9190612820565b9050856008018281548110611e6657611e6561262e565b5b905f5260205f20015481611e7a919061277f565b945050505050611e99565b8080600101915050611d97565b505f925050505b92915050565b611ea7611edb565b6002611eb9611eb4611f1c565b611f45565b5f0181905550565b6001611ed3611ece611f1c565b611f45565b5f0181905550565b611ee3611f4e565b15611f1a576040517f3ee5aeb500000000000000000000000000000000000000000000000000000000815260040160405180910390fd5b565b5f7f9b779b17422d0df92223018b32b4d1fa46e071723d6817e2486d003becc55f005f1b905090565b5f819050919050565b5f6002611f61611f5c611f1c565b611f45565b5f015414905090565b5f604051905090565b5f5ffd5b5f5ffd5b5f819050919050565b611f8d81611f7b565b8114611f97575f5ffd5b50565b5f81359050611fa881611f84565b92915050565b5f60208284031215611fc357611fc2611f73565b5b5f611fd084828501611f9a565b91505092915050565b611fe281611f7b565b82525050565b5f602082019050611ffb5f830184611fd9565b92915050565b5f73ffffffffffffffffffffffffffffffffffffffff82169050919050565b5f61202a82612001565b9050919050565b61203a81612020565b8114612044575f5ffd5b50565b5f8135905061205581612031565b92915050565b5f5f6040838503121561207157612070611f73565b5b5f61207e85828601611f9a565b925050602061208f85828601612047565b9150509250929050565b6120a281612020565b82525050565b5f8115159050919050565b6120bc816120a8565b82525050565b5f610140820190506120d65f83018d612099565b6120e3602083018c611fd9565b6120f0604083018b611fd9565b6120fd606083018a611fd9565b61210a6080830189611fd9565b61211760a0830188611fd9565b61212460c08301876120b3565b61213160e08301866120b3565b61213f610100830185611fd9565b61214d610120830184611fd9565b9b9a5050505050505050505050565b5f5f6040838503121561217257612171611f73565b5b5f61217f85828601611f9a565b925050602061219085828601611f9a565b9150509250929050565b5f5ffd5b5f601f19601f8301169050919050565b7f4e487b71000000000000000000000000000000000000000000000000000000005f52604160045260245ffd5b6121e48261219e565b810181811067ffffffffffffffff82111715612203576122026121ae565b5b80604052505050565b5f612215611f6a565b905061222182826121db565b919050565b5f67ffffffffffffffff8211156122405761223f6121ae565b5b602082029050602081019050919050565b5f5ffd5b5f61226761226284612226565b61220c565b9050808382526020820190506020840283018581111561228a57612289612251565b5b835b818110156122b3578061229f8882612047565b84526020840193505060208101905061228c565b5050509392505050565b5f82601f8301126122d1576122d061219a565b5b81356122e1848260208601612255565b91505092915050565b5f67ffffffffffffffff821115612304576123036121ae565b5b602082029050602081019050919050565b5f612327612322846122ea565b61220c565b9050808382526020820190506020840283018581111561234a57612349612251565b5b835b81811015612373578061235f8882611f9a565b84526020840193505060208101905061234c565b5050509392505050565b5f82601f8301126123915761239061219a565b5b81356123a1848260208601612315565b91505092915050565b5f5f5f5f608085870312156123c2576123c1611f73565b5b5f85013567ffffffffffffffff8111156123df576123de611f77565b5b6123eb878288016122bd565b94505060206123fc87828801611f9a565b935050604061240d87828801611f9a565b925050606085013567ffffffffffffffff81111561242e5761242d611f77565b5b61243a8782880161237d565b91505092959194509250565b5f5f5f6060848603121561245d5761245c611f73565b5b5f61246a86828701611f9a565b935050602061247b86828701611f9a565b925050604061248c86828701612047565b9150509250925092565b5f5f5f606084860312156124ad576124ac611f73565b5b5f6124ba86828701612047565b93505060206124cb86828701611f9a565b92505060406124dc86828701611f9a565b9150509250925092565b5f82825260208201905092915050565b7f696e76616c696420726563697069656e740000000000000000000000000000005f82015250565b5f61252a6011836124e6565b9150612535826124f6565b602082019050919050565b5f6020820190508181035f8301526125578161251e565b9050919050565b7f73747265616d20696e61637469766500000000000000000000000000000000005f82015250565b5f612592600f836124e6565b915061259d8261255e565b602082019050919050565b5f6020820190508181035f8301526125bf81612586565b9050919050565b7f73747265616d20706175736564000000000000000000000000000000000000005f82015250565b5f6125fa600d836124e6565b9150612605826125c6565b602082019050919050565b5f6020820190508181035f830152612627816125ee565b9050919050565b7f4e487b71000000000000000000000000000000000000000000000000000000005f52603260045260245ffd5b7f63616c6c6572206e6f74206120726563697069656e74000000000000000000005f82015250565b5f61268f6016836124e6565b915061269a8261265b565b602082019050919050565b5f6020820190508181035f8301526126bc81612683565b9050919050565b5f6040820190506126d65f830185612099565b6126e36020830184612099565b9392505050565b7f6e6f7420617574686f72697a65640000000000000000000000000000000000005f82015250565b5f61271e600e836124e6565b9150612729826126ea565b602082019050919050565b5f6020820190508181035f83015261274b81612712565b9050919050565b7f4e487b71000000000000000000000000000000000000000000000000000000005f52601160045260245ffd5b5f61278982611f7b565b915061279483611f7b565b92508282039050818111156127ac576127ab612752565b5b92915050565b5f6127bc82611f7b565b91506127c783611f7b565b92508282026127d581611f7b565b915082820484148315176127ec576127eb612752565b5b5092915050565b7f4e487b71000000000000000000000000000000000000000000000000000000005f52601260045260245ffd5b5f61282a82611f7b565b915061283583611f7b565b925082612845576128446127f3565b5b828204905092915050565b5f61285a82611f7b565b915061286583611f7b565b925082820190508082111561287d5761287c612752565b5b92915050565b5f6040820190506128965f830185612099565b6128a36020830184611fd9565b9392505050565b6128b3816120a8565b81146128bd575f5ffd5b50565b5f815190506128ce816128aa565b92915050565b5f602082840312156128e9576128e8611f73565b5b5f6128f6848285016128c0565b91505092915050565b7f7472616e73666572206661696c656400000000000000000000000000000000005f82015250565b5f612933600f836124e6565b915061293e826128ff565b602082019050919050565b5f6020820190508181035f83015261296081612927565b9050919050565b7f616c7265616479207061757365640000000000000000000000000000000000005f82015250565b5f61299b600e836124e6565b91506129a682612967565b602082019050919050565b5f6020820190508181035f8301526129c88161298f565b9050919050565b7f6f6e6c792073656e6465720000000000000000000000000000000000000000005f82015250565b5f612a03600b836124e6565b9150612a0e826129cf565b602082019050919050565b5f6020820190508181035f830152612a30816129f7565b9050919050565b7f73747265616d206e6f74207374617274656400000000000000000000000000005f82015250565b5f612a6b6012836124e6565b9150612a7682612a37565b602082019050919050565b5f6020820190508181035f830152612a9881612a5f565b9050919050565b7f696e76616c696420616d6f756e740000000000000000000000000000000000005f82015250565b5f612ad3600e836124e6565b9150612ade82612a9f565b602082019050919050565b5f6020820190508181035f830152612b0081612ac7565b9050919050565b7f6578636565647320636c61696d61626c650000000000000000000000000000005f82015250565b5f612b3b6011836124e6565b9150612b4682612b07565b602082019050919050565b5f6020820190508181035f830152612b6881612b2f565b9050919050565b7f6e6f7420706175736564000000000000000000000000000000000000000000005f82015250565b5f612ba3600a836124e6565b9150612bae82612b6f565b602082019050919050565b5f6020820190508181035f830152612bd081612b97565b9050919050565b7f6e656564206d756c7469706c6520726563697069656e747300000000000000005f82015250565b5f612c0b6018836124e6565b9150612c1682612bd7565b602082019050919050565b5f6020820190508181035f830152612c3881612bff565b9050919050565b7f6172726179206d69736d617463680000000000000000000000000000000000005f82015250565b5f612c73600e836124e6565b9150612c7e82612c3f565b602082019050919050565b5f6020820190508181035f830152612ca081612c67565b9050919050565b7f696e76616c696420616d6f756e74206f72206475726174696f6e0000000000005f82015250565b5f612cdb601a836124e6565b9150612ce682612ca7565b602082019050919050565b5f6020820190508181035f830152612d0881612ccf565b9050919050565b7f6261642070657263656e746167650000000000000000000000000000000000005f82015250565b5f612d43600e836124e6565b9150612d4e82612d0f565b602082019050919050565b5f6020820190508181035f830152612d7081612d37565b9050919050565b7f70657263656e7461676573206d7573742073756d20746f2031303030300000005f82015250565b5f612dab601d836124e6565b9150612db682612d77565b602082019050919050565b5f6020820190508181035f830152612dd881612d9f565b9050919050565b5f606082019050612df25f830186612099565b612dff6020830185612099565b612e0c6040830184611fd9565b949350505050565b5f612e1e82611f7b565b91507fffffffffffffffffffffffffffffffffffffffffffffffffffffffffffffffff8203612e5057612e4f612752565b5b600182019050919050565b5f81519050919050565b5f81905092915050565b5f819050602082019050919050565b612e8781612020565b82525050565b5f612e988383612e7e565b60208301905092915050565b5f602082019050919050565b5f612eba82612e5b565b612ec48185612e65565b9350612ecf83612e6f565b805f5b83811015612eff578151612ee68882612e8d565b9750612ef183612ea4565b925050600181019050612ed2565b5085935050505092915050565b5f612f178284612eb0565b915081905092915050565b5f604082019050612f355f830185611fd9565b612f426020830184611fd9565b939250505056fea2646970667358221220383b4e542022edf8ee18fe56f6845fec1dcc94b14c92343f0a864e30a7399eac64736f6c634300081e0033","linkReferences":{}},"methodIdentifiers":{"cancelStream(uint256)":"6db9241b","createMultipleStreams(address[],uint256,uint256,uint256[])":"b8cd9587","createStream(address,uint256,uint256)":"cd9e3fe8","getClaimableFunds(uint256)":"1d2f7ee4","pauseStream(uint256)":"746ff13d","redirectClaimsRecipient(uint256,address)":"585c8ae4","streams(uint256)":"64d60d91","transferClaimsToAddress(uint256,uint256,address)":"b92554b1","unPauseStream(uint256)":"a6f55bbe","withdrawFromStream(uint256,uint256)":"7a9b2c6c"},"id":3}