{"abi":[{"type":"constructor","inputs":[{"name":"_usdtAddress","type":"address","internalType":"address"}],"stateMutability":"nonpayable"},{"type":"function","name":"cancelStream","inputs":[{"name":"_streamId","type":"uint256","internalType":"uint256"}],"outputs":[],"stateMutability":"nonpayable"},{"type":"function","name":"createMultipleStreams","inputs":[{"name":"_recipients","type":"address[]","internalType":"address[]"},{"name":"_duration","type":"uint256","internalType":"uint256"},{"name":"_amount","type":"uint256","internalType":"uint256"},{"name":"_percentages","type":"uint256[]","internalType":"uint256[]"}],"outputs":[{"name":"","type":"uint256","internalType":"uint256"}],"stateMutability":"nonpayable"},{"type":"function","name":"createStream","inputs":[{"name":"_recipient","type":"address","internalType":"address"},{"name":"_duration","type":"uint256","internalType":"uint256"},{"name":"_amount","type":"uint256","internalType":"uint256"}],"outputs":[{"name":"","type":"uint256","internalType":"uint256"}],"stateMutability":"nonpayable"},{"type":"function","name":"getClaimableFunds","inputs":[{"name":"_streamId","type":"uint256","internalType":"uint256"}],"outputs":[{"name":"","type":"uint256","internalType":"uint256"}],"stateMutability":"view"},{"type":"function","name":"getStreamsByRecipient","inputs":[{"name":"user","type":"address","internalType":"address"}],"outputs":[{"name":"","type":"uint256[]","internalType":"uint256[]"}],"stateMutability":"view"},{"type":"function","name":"getStreamsBySender","inputs":[{"name":"user","type":"address","internalType":"address"}],"outputs":[{"name":"","type":"uint256[]","internalType":"uint256[]"}],"stateMutability":"view"},{"type":"function","name":"getUserRole","inputs":[{"name":"streamId","type":"uint256","internalType":"uint256"},{"name":"user","type":"address","internalType":"address"}],"outputs":[{"name":"sender","type":"bool","internalType":"bool"},{"name":"recipient","type":"bool","internalType":"bool"}],"stateMutability":"view"},{"type":"function","name":"pauseStream","inputs":[{"name":"_streamId","type":"uint256","internalType":"uint256"}],"outputs":[],"stateMutability":"nonpayable"},{"type":"function","name":"redirectClaimsRecipient","inputs":[{"name":"_streamId","type":"uint256","internalType":"uint256"},{"name":"_newRecipient","type":"address","internalType":"address"}],"outputs":[],"stateMutability":"nonpayable"},{"type":"function","name":"streams","inputs":[{"name":"","type":"uint256","internalType":"uint256"}],"outputs":[{"name":"id","type":"uint256","internalType":"uint256"},{"name":"sender","type":"address","internalType":"address"},{"name":"duration","type":"uint256","internalType":"uint256"},{"name":"amount","type":"uint256","internalType":"uint256"},{"name":"startTime","type":"uint256","internalType":"uint256"},{"name":"endTime","type":"uint256","internalType":"uint256"},{"name":"flowRate","type":"uint256","internalType":"uint256"},{"name":"active","type":"bool","internalType":"bool"},{"name":"paused","type":"bool","internalType":"bool"},{"name":"pausedAt","type":"uint256","internalType":"uint256"},{"name":"totalPausedDuration","type":"uint256","internalType":"uint256"}],"stateMutability":"view"},{"type":"function","name":"streamsByRecipient","inputs":[{"name":"","type":"address","internalType":"address"},{"name":"","type":"uint256","internalType":"uint256"}],"outputs":[{"name":"","type":"uint256","internalType":"uint256"}],"stateMutability":"view"},{"type":"function","name":"streamsBySender","inputs":[{"name":"","type":"address","internalType":"address"},{"name":"","type":"uint256","internalType":"uint256"}],"outputs":[{"name":"","type":"uint256","internalType":"uint256"}],"stateMutability":"view"},{"type":"function","name":"transferClaimsToAddress","inputs":[{"name":"_streamId","type":"uint256","internalType":"uint256"},{"name":"_amount","type":"uint256","internalType":"uint256"},{"name":"_receiver","type":"address","internalType":"address"}],"outputs":[],"stateMutability":"nonpayable"},{"type":"function","name":"unPauseStream","inputs":[{"name":"_streamId","type":"uint256","internalType":"uint256"}],"outputs":[],"stateMutability":"nonpayable"},{"type":"function","name":"withdrawFromStream","inputs":[{"name":"_streamId","type":"uint256","internalType":"uint256"},{"name":"_amount","type":"uint256","internalType":"uint256"}],"outputs":[],"stateMutability":"nonpayable"},{"type":"event","name":"ClaimsTransferred","inputs":[{"name":"id","type":"uint256","indexed":true,"internalType":"uint256"},{"name":"to","type":"address","indexed":true,"internalType":"address"},{"name":"amount","type":"uint256","indexed":false,"internalType":"uint256"}],"anonymous":false},{"type":"event","name":"StreamCancelled","inputs":[{"name":"id","type":"uint256","indexed":true,"internalType":"uint256"}],"anonymous":false},{"type":"event","name":"StreamCreated","inputs":[{"name":"id","type":"uint256","indexed":true,"internalType":"uint256"},{"name":"sender","type":"address","indexed":true,"internalType":"address"},{"name":"amount","type":"uint256","indexed":false,"internalType":"uint256"},{"name":"duration","type":"uint256","indexed":false,"internalType":"uint256"}],"anonymous":false},{"type":"event","name":"StreamPaused","inputs":[{"name":"id","type":"uint256","indexed":true,"internalType":"uint256"}],"anonymous":false},{"type":"event","name":"StreamRecipient","inputs":[{"name":"id","type":"uint256","indexed":true,"internalType":"uint256"},{"name":"recipient","type":"address","indexed":true,"internalType":"address"},{"name":"percentage","type":"uint256","indexed":false,"internalType":"uint256"}],"anonymous":false},{"type":"event","name":"StreamRedirected","inputs":[{"name":"id","type":"uint256","indexed":true,"internalType":"uint256"},{"name":"oldRecipient","type":"address","indexed":true,"internalType":"address"},{"name":"newRecipient","type":"address","indexed":true,"internalType":"address"}],"anonymous":false},{"type":"event","name":"StreamUnpaused","inputs":[{"name":"id","type":"uint256","indexed":true,"internalType":"uint256"}],"anonymous":false},{"type":"event","name":"WithdrawFromStream","inputs":[{"name":"id","type":"uint256","indexed":true,"internalType":"uint256"},{"name":"recipient","type":"address","indexed":true,"internalType":"address"},{"name":"amount","type":"uint256","indexed":false,"internalType":"uint256"}],"anonymous":false},{"type":"error","name":"ReentrancyGuardReentrantCall","inputs":[]}],"bytecode":{"object":"0x60a060405260015f55348015610013575f5ffd5b506040516138c73803806138c783398181016040528101906100359190610191565b600161005361004861010160201b60201c565b61012a60201b60201c565b5f01819055505f73ffffffffffffffffffffffffffffffffffffffff168173ffffffffffffffffffffffffffffffffffffffff16036100c7576040517f08c379a00000000000000000000000000000000000000000000000000000000081526004016100be90610216565b60405180910390fd5b8073ffffffffffffffffffffffffffffffffffffffff1660808173ffffffffffffffffffffffffffffffffffffffff168152505050610234565b5f7f9b779b17422d0df92223018b32b4d1fa46e071723d6817e2486d003becc55f005f1b905090565b5f819050919050565b5f5ffd5b5f73ffffffffffffffffffffffffffffffffffffffff82169050919050565b5f61016082610137565b9050919050565b61017081610156565b811461017a575f5ffd5b50565b5f8151905061018b81610167565b92915050565b5f602082840312156101a6576101a5610133565b5b5f6101b38482850161017d565b91505092915050565b5f82825260208201905092915050565b7f496e76616c6964205553445420616464726573730000000000000000000000005f82015250565b5f6102006014836101bc565b915061020b826101cc565b602082019050919050565b5f6020820190508181035f83015261022d816101f4565b9050919050565b60805161365861026f5f395f818161091201528181610a5a01528181610f900152818161165501528181611dd30152611ff701526136585ff3fe608060405234801561000f575f5ffd5b50600436106100f3575f3560e01c80637c7e10af11610095578063b8cd958711610064578063b8cd9587146102ae578063b92554b1146102de578063cc3cfc05146102fa578063cd9e3fe81461032a576100f3565b80637c7e10af1461020157806380b89c181461023157806398c49e4514610262578063a6f55bbe14610292576100f3565b806364d60d91116100d157806364d60d91146101735780636db9241b146101ad578063746ff13d146101c95780637a9b2c6c146101e5576100f3565b80631d2f7ee4146100f75780634e8cb61514610127578063585c8ae414610157575b5f5ffd5b610111600480360381019061010c91906125ff565b61035a565b60405161011e9190612639565b60405180910390f35b610141600480360381019061013c91906126ac565b610386565b60405161014e9190612639565b60405180910390f35b610171600480360381019061016c91906126ea565b6103b1565b005b61018d600480360381019061018891906125ff565b610671565b6040516101a49b9a99989796959493929190612751565b60405180910390f35b6101c760048036038101906101c291906125ff565b6106ff565b005b6101e360048036038101906101de91906125ff565b610b97565b005b6101ff60048036038101906101fa91906127fa565b610d2c565b005b61021b60048036038101906102169190612838565b6110c9565b604051610228919061291a565b60405180910390f35b61024b600480360381019061024691906126ea565b61115c565b60405161025992919061293a565b60405180910390f35b61027c60048036038101906102779190612838565b611269565b604051610289919061291a565b60405180910390f35b6102ac60048036038101906102a791906125ff565b6112fc565b005b6102c860048036038101906102c39190612b71565b61148f565b6040516102d59190612639565b60405180910390f35b6102f860048036038101906102f39190612c0d565b611b77565b005b610314600480360381019061030f91906126ac565b611f05565b6040516103219190612639565b60405180910390f35b610344600480360381019061033f9190612c5d565b611f30565b6040516103519190612639565b60405180910390f35b5f5f60015f8481526020019081526020015f2090505f61037a33836123a4565b90508092505050919050565b6002602052815f5260405f20818154811061039f575f80fd5b905f5260205f20015f91509150505481565b5f73ffffffffffffffffffffffffffffffffffffffff168173ffffffffffffffffffffffffffffffffffffffff160361041f576040517f08c379a000000000000000000000000000000000000000000000000000000000815260040161041690612d07565b60405180910390fd5b5f60015f8481526020019081526020015f20905080600a015f9054906101000a900460ff16610483576040517f08c379a000000000000000000000000000000000000000000000000000000000815260040161047a90612d6f565b60405180910390fd5b80600a0160019054906101000a900460ff16156104d5576040517f08c379a00000000000000000000000000000000000000000000000000000000081526004016104cc90612dd7565b60405180910390fd5b5f5f90505f5f90505b82600201805490508110156105cf573373ffffffffffffffffffffffffffffffffffffffff1683600201828154811061051a57610519612df5565b5b905f5260205f20015f9054906101000a900473ffffffffffffffffffffffffffffffffffffffff1673ffffffffffffffffffffffffffffffffffffffff16036105c2578383600201828154811061057457610573612df5565b5b905f5260205f20015f6101000a81548173ffffffffffffffffffffffffffffffffffffffff021916908373ffffffffffffffffffffffffffffffffffffffff160217905550600191506105cf565b80806001019150506104de565b5080610610576040517f08c379a000000000000000000000000000000000000000000000000000000000815260040161060790612e6c565b60405180910390fd5b8273ffffffffffffffffffffffffffffffffffffffff163373ffffffffffffffffffffffffffffffffffffffff16857f0f81a452435213495f5eb594ea69c07fb66cb271c8c2b57e4e89b44abf6654a160405160405180910390a450505050565b6001602052805f5260405f205f91509050805f015490806001015f9054906101000a900473ffffffffffffffffffffffffffffffffffffffff169080600401549080600501549080600601549080600701549080600801549080600a015f9054906101000a900460ff169080600a0160019054906101000a900460ff169080600b01549080600c015490508b565b6107076124f0565b5f60015f8381526020019081526020015f20905080600a015f9054906101000a900460ff1661076b576040517f08c379a000000000000000000000000000000000000000000000000000000000815260040161076290612d6f565b60405180910390fd5b5f816001015f9054906101000a900473ffffffffffffffffffffffffffffffffffffffff1673ffffffffffffffffffffffffffffffffffffffff163373ffffffffffffffffffffffffffffffffffffffff1614905080610800576040517f08c379a00000000000000000000000000000000000000000000000000000000081526004016107f790612ed4565b60405180910390fd5b5f82600a015f6101000a81548160ff0219169083151502179055505f826007015442101561083d578260060154426108389190612f1f565b610843565b82600401545b90505f8360080154826108569190612f52565b90505f5f90505b8460020180549050811015610a3b575f61271086600301838154811061088657610885612df5565b5b905f5260205f2001548461089a9190612f52565b6108a49190612fc0565b90505f8660090183815481106108bd576108bc612df5565b5b905f5260205f200154826108d19190612f1f565b90505f811115610a2c57808760090184815481106108f2576108f1612df5565b5b905f5260205f20015f8282546109089190612ff0565b925050819055505f7f000000000000000000000000000000000000000000000000000000000000000073ffffffffffffffffffffffffffffffffffffffff1663a9059cbb89600201868154811061096257610961612df5565b5b905f5260205f20015f9054906101000a900473ffffffffffffffffffffffffffffffffffffffff16846040518363ffffffff1660e01b81526004016109a8929190613023565b6020604051808303815f875af11580156109c4573d5f5f3e3d5ffd5b505050506040513d601f19601f820116820180604052508101906109e89190613074565b905080610a2a576040517f08c379a0000000000000000000000000000000000000000000000000000000008152600401610a21906130e9565b60405180910390fd5b505b5050808060010191505061085d565b505f818560050154610a4d9190612f1f565b90505f811115610b5a575f7f000000000000000000000000000000000000000000000000000000000000000073ffffffffffffffffffffffffffffffffffffffff1663a9059cbb876001015f9054906101000a900473ffffffffffffffffffffffffffffffffffffffff16846040518363ffffffff1660e01b8152600401610ad6929190613023565b6020604051808303815f875af1158015610af2573d5f5f3e3d5ffd5b505050506040513d601f19601f82011682018060405250810190610b169190613074565b905080610b58576040517f08c379a0000000000000000000000000000000000000000000000000000000008152600401610b4f906130e9565b60405180910390fd5b505b857f75b8c91e46f219f2164d6bce576e7cebd2d3ff8749726009fcafdf04e2e1eb7b60405160405180910390a25050505050610b94612512565b50565b5f60015f8381526020019081526020015f20905080600a015f9054906101000a900460ff16610bfb576040517f08c379a0000000000000000000000000000000000000000000000000000000008152600401610bf290612d6f565b60405180910390fd5b80600a0160019054906101000a900460ff1615610c4d576040517f08c379a0000000000000000000000000000000000000000000000000000000008152600401610c4490613151565b60405180910390fd5b806001015f9054906101000a900473ffffffffffffffffffffffffffffffffffffffff1673ffffffffffffffffffffffffffffffffffffffff163373ffffffffffffffffffffffffffffffffffffffff1614610cde576040517f08c379a0000000000000000000000000000000000000000000000000000000008152600401610cd5906131b9565b60405180910390fd5b600181600a0160016101000a81548160ff021916908315150217905550817fc1e14ec692cfc1a89cae539cb884be8d7cc39fd7a129fd73e0d59895fe48d2b860405160405180910390a25050565b610d346124f0565b5f60015f8481526020019081526020015f20905080600a015f9054906101000a900460ff16610d98576040517f08c379a0000000000000000000000000000000000000000000000000000000008152600401610d8f90612d6f565b60405180910390fd5b80600a0160019054906101000a900460ff1615610dea576040517f08c379a0000000000000000000000000000000000000000000000000000000008152600401610de190612dd7565b60405180910390fd5b80600601544211610e30576040517f08c379a0000000000000000000000000000000000000000000000000000000008152600401610e2790613221565b60405180910390fd5b5f610e3b33836123a4565b90505f8311610e7f576040517f08c379a0000000000000000000000000000000000000000000000000000000008152600401610e7690613289565b60405180910390fd5b80831115610ec2576040517f08c379a0000000000000000000000000000000000000000000000000000000008152600401610eb9906132f1565b60405180910390fd5b5f5f90505b8260020180549050811015610f8c573373ffffffffffffffffffffffffffffffffffffffff16836002018281548110610f0357610f02612df5565b5b905f5260205f20015f9054906101000a900473ffffffffffffffffffffffffffffffffffffffff1673ffffffffffffffffffffffffffffffffffffffff1603610f7f5783836009018281548110610f5d57610f5c612df5565b5b905f5260205f20015f828254610f739190612ff0565b92505081905550610f8c565b8080600101915050610ec7565b505f7f000000000000000000000000000000000000000000000000000000000000000073ffffffffffffffffffffffffffffffffffffffff1663a9059cbb33866040518363ffffffff1660e01b8152600401610fe9929190613023565b6020604051808303815f875af1158015611005573d5f5f3e3d5ffd5b505050506040513d601f19601f820116820180604052508101906110299190613074565b90508061106b576040517f08c379a0000000000000000000000000000000000000000000000000000000008152600401611062906130e9565b60405180910390fd5b3373ffffffffffffffffffffffffffffffffffffffff16857f36c3ab437e6a424ed25dc4bfdeb62706aa06558660fab2dab229d2555adaf89c866040516110b29190612639565b60405180910390a35050506110c5612512565b5050565b606060025f8373ffffffffffffffffffffffffffffffffffffffff1673ffffffffffffffffffffffffffffffffffffffff1681526020019081526020015f2080548060200260200160405190810160405280929190818152602001828054801561115057602002820191905f5260205f20905b81548152602001906001019080831161113c575b50505050509050919050565b5f5f5f60015f8681526020019081526020015f2090508373ffffffffffffffffffffffffffffffffffffffff16816001015f9054906101000a900473ffffffffffffffffffffffffffffffffffffffff1673ffffffffffffffffffffffffffffffffffffffff161492505f5f90505b8160020180549050811015611260578473ffffffffffffffffffffffffffffffffffffffff1682600201828154811061120757611206612df5565b5b905f5260205f20015f9054906101000a900473ffffffffffffffffffffffffffffffffffffffff1673ffffffffffffffffffffffffffffffffffffffff16036112535760019250611260565b80806001019150506111cb565b50509250929050565b606060035f8373ffffffffffffffffffffffffffffffffffffffff1673ffffffffffffffffffffffffffffffffffffffff1681526020019081526020015f208054806020026020016040519081016040528092919081815260200182805480156112f057602002820191905f5260205f20905b8154815260200190600101908083116112dc575b50505050509050919050565b5f60015f8381526020019081526020015f20905080600a015f9054906101000a900460ff16611360576040517f08c379a000000000000000000000000000000000000000000000000000000000815260040161135790612d6f565b60405180910390fd5b80600a0160019054906101000a900460ff166113b1576040517f08c379a00000000000000000000000000000000000000000000000000000000081526004016113a890613359565b60405180910390fd5b806001015f9054906101000a900473ffffffffffffffffffffffffffffffffffffffff1673ffffffffffffffffffffffffffffffffffffffff163373ffffffffffffffffffffffffffffffffffffffff1614611442576040517f08c379a0000000000000000000000000000000000000000000000000000000008152600401611439906131b9565b60405180910390fd5b5f81600a0160016101000a81548160ff021916908315150217905550817f1596c7c03ad2a3ba0ace554b73f0d4cabac8f60ebba723b7f501aa9697f673e960405160405180910390a25050565b5f6114986124f0565b60018551116114dc576040517f08c379a00000000000000000000000000000000000000000000000000000000081526004016114d3906133c1565b60405180910390fd5b8151855114611520576040517f08c379a000000000000000000000000000000000000000000000000000000000815260040161151790613429565b60405180910390fd5b5f8311801561152e57505f84115b61156d576040517f08c379a000000000000000000000000000000000000000000000000000000000815260040161156490613491565b60405180910390fd5b5f5f5f90505b835181101561160d575f8482815181106115905761158f612df5565b5b6020026020010151116115d8576040517f08c379a00000000000000000000000000000000000000000000000000000000081526004016115cf906134f9565b60405180910390fd5b8381815181106115eb576115ea612df5565b5b6020026020010151826115fe9190612ff0565b91508080600101915050611573565b506127108114611652576040517f08c379a000000000000000000000000000000000000000000000000000000000815260040161164990613561565b60405180910390fd5b5f7f000000000000000000000000000000000000000000000000000000000000000073ffffffffffffffffffffffffffffffffffffffff166323b872dd3330886040518463ffffffff1660e01b81526004016116b09392919061357f565b6020604051808303815f875af11580156116cc573d5f5f3e3d5ffd5b505050506040513d601f19601f820116820180604052508101906116f09190613074565b905080611732576040517f08c379a0000000000000000000000000000000000000000000000000000000008152600401611729906130e9565b60405180910390fd5b5f5f5490505f60015f8381526020019081526020015f2090505f5f90505b89518110156119d2575f73ffffffffffffffffffffffffffffffffffffffff168a828151811061178357611782612df5565b5b602002602001015173ffffffffffffffffffffffffffffffffffffffff16036117e1576040517f08c379a00000000000000000000000000000000000000000000000000000000081526004016117d890612d07565b60405180910390fd5b816002018a82815181106117f8576117f7612df5565b5b6020026020010151908060018154018082558091505060019003905f5260205f20015f9091909190916101000a81548173ffffffffffffffffffffffffffffffffffffffff021916908373ffffffffffffffffffffffffffffffffffffffff1602179055508160030187828151811061187457611873612df5565b5b6020026020010151908060018154018082558091505060019003905f5260205f20015f9091909190915055816009015f908060018154018082558091505060019003905f5260205f20015f909190919091505560035f8b83815181106118dd576118dc612df5565b5b602002602001015173ffffffffffffffffffffffffffffffffffffffff1673ffffffffffffffffffffffffffffffffffffffff1681526020019081526020015f2083908060018154018082558091505060019003905f5260205f20015f909190919091505589818151811061195557611954612df5565b5b602002602001015173ffffffffffffffffffffffffffffffffffffffff16837f36c8c364d3add8a80edb09b638d7bdd81a77e5a498255d6edf53ed891bf806ab8984815181106119a8576119a7612df5565b5b60200260200101516040516119bd9190612639565b60405180910390a38080600101915050611750565b5033816001015f6101000a81548173ffffffffffffffffffffffffffffffffffffffff021916908373ffffffffffffffffffffffffffffffffffffffff1602179055508781600401819055508681600501819055504281600601819055508742611a3c9190612ff0565b81600701819055508787611a509190612fc0565b8160080181905550600181600a015f6101000a81548160ff0219169083151502179055505f81600a0160016101000a81548160ff02191690831515021790555081815f01819055505f5f815480929190611aa9906135b4565b919050555060025f3373ffffffffffffffffffffffffffffffffffffffff1673ffffffffffffffffffffffffffffffffffffffff1681526020019081526020015f2082908060018154018082558091505060019003905f5260205f20015f90919091909150553373ffffffffffffffffffffffffffffffffffffffff16827fe182e2dc0f9d78c65c0a90f042f4e89439fc8badf149f1bfaad7ed3f4e534ebc898b604051611b589291906135fb565b60405180910390a381945050505050611b6f612512565b949350505050565b5f60015f8581526020019081526020015f20905080600a015f9054906101000a900460ff16611bdb576040517f08c379a0000000000000000000000000000000000000000000000000000000008152600401611bd290612d6f565b60405180910390fd5b80600a0160019054906101000a900460ff1615611c2d576040517f08c379a0000000000000000000000000000000000000000000000000000000008152600401611c2490612dd7565b60405180910390fd5b80600601544211611c73576040517f08c379a0000000000000000000000000000000000000000000000000000000008152600401611c6a90613221565b60405180910390fd5b5f611c7e33836123a4565b90505f8411611cc2576040517f08c379a0000000000000000000000000000000000000000000000000000000008152600401611cb990613289565b60405180910390fd5b80841115611d05576040517f08c379a0000000000000000000000000000000000000000000000000000000008152600401611cfc906132f1565b60405180910390fd5b5f5f90505b8260020180549050811015611dcf573373ffffffffffffffffffffffffffffffffffffffff16836002018281548110611d4657611d45612df5565b5b905f5260205f20015f9054906101000a900473ffffffffffffffffffffffffffffffffffffffff1673ffffffffffffffffffffffffffffffffffffffff1603611dc25784836009018281548110611da057611d9f612df5565b5b905f5260205f20015f828254611db69190612ff0565b92505081905550611dcf565b8080600101915050611d0a565b505f7f000000000000000000000000000000000000000000000000000000000000000073ffffffffffffffffffffffffffffffffffffffff1663a9059cbb85876040518363ffffffff1660e01b8152600401611e2c929190613023565b6020604051808303815f875af1158015611e48573d5f5f3e3d5ffd5b505050506040513d601f19601f82011682018060405250810190611e6c9190613074565b905080611eae576040517f08c379a0000000000000000000000000000000000000000000000000000000008152600401611ea5906130e9565b60405180910390fd5b8373ffffffffffffffffffffffffffffffffffffffff16867ffc170a5b9f226b178db20055cd172a977ad897453b2959bdcdb491bb9f79522d87604051611ef59190612639565b60405180910390a3505050505050565b6003602052815f5260405f208181548110611f1e575f80fd5b905f5260205f20015f91509150505481565b5f611f396124f0565b5f73ffffffffffffffffffffffffffffffffffffffff168473ffffffffffffffffffffffffffffffffffffffff1603611fa7576040517f08c379a0000000000000000000000000000000000000000000000000000000008152600401611f9e90612d07565b60405180910390fd5b5f82118015611fb557505f83115b611ff4576040517f08c379a0000000000000000000000000000000000000000000000000000000008152600401611feb90613491565b60405180910390fd5b5f7f000000000000000000000000000000000000000000000000000000000000000073ffffffffffffffffffffffffffffffffffffffff166323b872dd3330866040518463ffffffff1660e01b81526004016120529392919061357f565b6020604051808303815f875af115801561206e573d5f5f3e3d5ffd5b505050506040513d601f19601f820116820180604052508101906120929190613074565b9050806120d4576040517f08c379a00000000000000000000000000000000000000000000000000000000081526004016120cb906130e9565b60405180910390fd5b5f5f5490505f60015f8381526020019081526020015f20905033816001015f6101000a81548173ffffffffffffffffffffffffffffffffffffffff021916908373ffffffffffffffffffffffffffffffffffffffff1602179055508060020187908060018154018082558091505060019003905f5260205f20015f9091909190916101000a81548173ffffffffffffffffffffffffffffffffffffffff021916908373ffffffffffffffffffffffffffffffffffffffff16021790555080600301612710908060018154018082558091505060019003905f5260205f20015f9091909190915055806009015f908060018154018082558091505060019003905f5260205f20015f9091909190915055858160040181905550848160050181905550428160060181905550854261220a9190612ff0565b8160070181905550858561221e9190612fc0565b8160080181905550600181600a015f6101000a81548160ff0219169083151502179055505f81600a0160016101000a81548160ff02191690831515021790555081815f01819055505f5f815480929190612277906135b4565b919050555060025f3373ffffffffffffffffffffffffffffffffffffffff1673ffffffffffffffffffffffffffffffffffffffff1681526020019081526020015f2082908060018154018082558091505060019003905f5260205f20015f909190919091505560035f8873ffffffffffffffffffffffffffffffffffffffff1673ffffffffffffffffffffffffffffffffffffffff1681526020019081526020015f2082908060018154018082558091505060019003905f5260205f20015f90919091909150553373ffffffffffffffffffffffffffffffffffffffff16827fe182e2dc0f9d78c65c0a90f042f4e89439fc8badf149f1bfaad7ed3f4e534ebc87896040516123879291906135fb565b60405180910390a381935050505061239d612512565b9392505050565b5f5f826007015442106123bd57826004015490506123d0565b8260060154426123cd9190612f1f565b90505b5f8360080154826123e19190612f52565b90505f5f90505b84600201805490508110156124e3578573ffffffffffffffffffffffffffffffffffffffff1685600201828154811061242457612423612df5565b5b905f5260205f20015f9054906101000a900473ffffffffffffffffffffffffffffffffffffffff1673ffffffffffffffffffffffffffffffffffffffff16036124d6575f61271086600301838154811061248157612480612df5565b5b905f5260205f200154846124959190612f52565b61249f9190612fc0565b90508560090182815481106124b7576124b6612df5565b5b905f5260205f200154816124cb9190612f1f565b9450505050506124ea565b80806001019150506123e8565b505f925050505b92915050565b6124f861252c565b600261250a61250561256d565b612596565b5f0181905550565b600161252461251f61256d565b612596565b5f0181905550565b61253461259f565b1561256b576040517f3ee5aeb500000000000000000000000000000000000000000000000000000000815260040160405180910390fd5b565b5f7f9b779b17422d0df92223018b32b4d1fa46e071723d6817e2486d003becc55f005f1b905090565b5f819050919050565b5f60026125b26125ad61256d565b612596565b5f015414905090565b5f604051905090565b5f5ffd5b5f5ffd5b5f819050919050565b6125de816125cc565b81146125e8575f5ffd5b50565b5f813590506125f9816125d5565b92915050565b5f60208284031215612614576126136125c4565b5b5f612621848285016125eb565b91505092915050565b612633816125cc565b82525050565b5f60208201905061264c5f83018461262a565b92915050565b5f73ffffffffffffffffffffffffffffffffffffffff82169050919050565b5f61267b82612652565b9050919050565b61268b81612671565b8114612695575f5ffd5b50565b5f813590506126a681612682565b92915050565b5f5f604083850312156126c2576126c16125c4565b5b5f6126cf85828601612698565b92505060206126e0858286016125eb565b9150509250929050565b5f5f60408385031215612700576126ff6125c4565b5b5f61270d858286016125eb565b925050602061271e85828601612698565b9150509250929050565b61273181612671565b82525050565b5f8115159050919050565b61274b81612737565b82525050565b5f610160820190506127655f83018e61262a565b612772602083018d612728565b61277f604083018c61262a565b61278c606083018b61262a565b612799608083018a61262a565b6127a660a083018961262a565b6127b360c083018861262a565b6127c060e0830187612742565b6127ce610100830186612742565b6127dc61012083018561262a565b6127ea61014083018461262a565b9c9b505050505050505050505050565b5f5f604083850312156128105761280f6125c4565b5b5f61281d858286016125eb565b925050602061282e858286016125eb565b9150509250929050565b5f6020828403121561284d5761284c6125c4565b5b5f61285a84828501612698565b91505092915050565b5f81519050919050565b5f82825260208201905092915050565b5f819050602082019050919050565b612895816125cc565b82525050565b5f6128a6838361288c565b60208301905092915050565b5f602082019050919050565b5f6128c882612863565b6128d2818561286d565b93506128dd8361287d565b805f5b8381101561290d5781516128f4888261289b565b97506128ff836128b2565b9250506001810190506128e0565b5085935050505092915050565b5f6020820190508181035f83015261293281846128be565b905092915050565b5f60408201905061294d5f830185612742565b61295a6020830184612742565b9392505050565b5f5ffd5b5f601f19601f8301169050919050565b7f4e487b71000000000000000000000000000000000000000000000000000000005f52604160045260245ffd5b6129ab82612965565b810181811067ffffffffffffffff821117156129ca576129c9612975565b5b80604052505050565b5f6129dc6125bb565b90506129e882826129a2565b919050565b5f67ffffffffffffffff821115612a0757612a06612975565b5b602082029050602081019050919050565b5f5ffd5b5f612a2e612a29846129ed565b6129d3565b90508083825260208201905060208402830185811115612a5157612a50612a18565b5b835b81811015612a7a5780612a668882612698565b845260208401935050602081019050612a53565b5050509392505050565b5f82601f830112612a9857612a97612961565b5b8135612aa8848260208601612a1c565b91505092915050565b5f67ffffffffffffffff821115612acb57612aca612975565b5b602082029050602081019050919050565b5f612aee612ae984612ab1565b6129d3565b90508083825260208201905060208402830185811115612b1157612b10612a18565b5b835b81811015612b3a5780612b2688826125eb565b845260208401935050602081019050612b13565b5050509392505050565b5f82601f830112612b5857612b57612961565b5b8135612b68848260208601612adc565b91505092915050565b5f5f5f5f60808587031215612b8957612b886125c4565b5b5f85013567ffffffffffffffff811115612ba657612ba56125c8565b5b612bb287828801612a84565b9450506020612bc3878288016125eb565b9350506040612bd4878288016125eb565b925050606085013567ffffffffffffffff811115612bf557612bf46125c8565b5b612c0187828801612b44565b91505092959194509250565b5f5f5f60608486031215612c2457612c236125c4565b5b5f612c31868287016125eb565b9350506020612c42868287016125eb565b9250506040612c5386828701612698565b9150509250925092565b5f5f5f60608486031215612c7457612c736125c4565b5b5f612c8186828701612698565b9350506020612c92868287016125eb565b9250506040612ca3868287016125eb565b9150509250925092565b5f82825260208201905092915050565b7f696e76616c696420726563697069656e740000000000000000000000000000005f82015250565b5f612cf1601183612cad565b9150612cfc82612cbd565b602082019050919050565b5f6020820190508181035f830152612d1e81612ce5565b9050919050565b7f73747265616d20696e61637469766500000000000000000000000000000000005f82015250565b5f612d59600f83612cad565b9150612d6482612d25565b602082019050919050565b5f6020820190508181035f830152612d8681612d4d565b9050919050565b7f73747265616d20706175736564000000000000000000000000000000000000005f82015250565b5f612dc1600d83612cad565b9150612dcc82612d8d565b602082019050919050565b5f6020820190508181035f830152612dee81612db5565b9050919050565b7f4e487b71000000000000000000000000000000000000000000000000000000005f52603260045260245ffd5b7f63616c6c6572206e6f74206120726563697069656e74000000000000000000005f82015250565b5f612e56601683612cad565b9150612e6182612e22565b602082019050919050565b5f6020820190508181035f830152612e8381612e4a565b9050919050565b7f6e6f7420617574686f72697a65640000000000000000000000000000000000005f82015250565b5f612ebe600e83612cad565b9150612ec982612e8a565b602082019050919050565b5f6020820190508181035f830152612eeb81612eb2565b9050919050565b7f4e487b71000000000000000000000000000000000000000000000000000000005f52601160045260245ffd5b5f612f29826125cc565b9150612f34836125cc565b9250828203905081811115612f4c57612f4b612ef2565b5b92915050565b5f612f5c826125cc565b9150612f67836125cc565b9250828202612f75816125cc565b91508282048414831517612f8c57612f8b612ef2565b5b5092915050565b7f4e487b71000000000000000000000000000000000000000000000000000000005f52601260045260245ffd5b5f612fca826125cc565b9150612fd5836125cc565b925082612fe557612fe4612f93565b5b828204905092915050565b5f612ffa826125cc565b9150613005836125cc565b925082820190508082111561301d5761301c612ef2565b5b92915050565b5f6040820190506130365f830185612728565b613043602083018461262a565b9392505050565b61305381612737565b811461305d575f5ffd5b50565b5f8151905061306e8161304a565b92915050565b5f60208284031215613089576130886125c4565b5b5f61309684828501613060565b91505092915050565b7f7472616e73666572206661696c656400000000000000000000000000000000005f82015250565b5f6130d3600f83612cad565b91506130de8261309f565b602082019050919050565b5f6020820190508181035f830152613100816130c7565b9050919050565b7f616c7265616479207061757365640000000000000000000000000000000000005f82015250565b5f61313b600e83612cad565b915061314682613107565b602082019050919050565b5f6020820190508181035f8301526131688161312f565b9050919050565b7f6f6e6c792073656e6465720000000000000000000000000000000000000000005f82015250565b5f6131a3600b83612cad565b91506131ae8261316f565b602082019050919050565b5f6020820190508181035f8301526131d081613197565b9050919050565b7f73747265616d206e6f74207374617274656400000000000000000000000000005f82015250565b5f61320b601283612cad565b9150613216826131d7565b602082019050919050565b5f6020820190508181035f830152613238816131ff565b9050919050565b7f696e76616c696420616d6f756e740000000000000000000000000000000000005f82015250565b5f613273600e83612cad565b915061327e8261323f565b602082019050919050565b5f6020820190508181035f8301526132a081613267565b9050919050565b7f6578636565647320636c61696d61626c650000000000000000000000000000005f82015250565b5f6132db601183612cad565b91506132e6826132a7565b602082019050919050565b5f6020820190508181035f830152613308816132cf565b9050919050565b7f6e6f7420706175736564000000000000000000000000000000000000000000005f82015250565b5f613343600a83612cad565b915061334e8261330f565b602082019050919050565b5f6020820190508181035f83015261337081613337565b9050919050565b7f6e656564206d756c7469706c6520726563697069656e747300000000000000005f82015250565b5f6133ab601883612cad565b91506133b682613377565b602082019050919050565b5f6020820190508181035f8301526133d88161339f565b9050919050565b7f6172726179206d69736d617463680000000000000000000000000000000000005f82015250565b5f613413600e83612cad565b915061341e826133df565b602082019050919050565b5f6020820190508181035f83015261344081613407565b9050919050565b7f696e76616c696420616d6f756e74206f72206475726174696f6e0000000000005f82015250565b5f61347b601a83612cad565b915061348682613447565b602082019050919050565b5f6020820190508181035f8301526134a88161346f565b9050919050565b7f6261642070657263656e746167650000000000000000000000000000000000005f82015250565b5f6134e3600e83612cad565b91506134ee826134af565b602082019050919050565b5f6020820190508181035f830152613510816134d7565b9050919050565b7f70657263656e7461676573206d7573742073756d20746f2031303030300000005f82015250565b5f61354b601d83612cad565b915061355682613517565b602082019050919050565b5f6020820190508181035f8301526135788161353f565b9050919050565b5f6060820190506135925f830186612728565b61359f6020830185612728565b6135ac604083018461262a565b949350505050565b5f6135be826125cc565b91507fffffffffffffffffffffffffffffffffffffffffffffffffffffffffffffffff82036135f0576135ef612ef2565b5b600182019050919050565b5f60408201905061360e5f83018561262a565b61361b602083018461262a565b939250505056fea26469706673582212209cf2b63c69a75ee70d00a1c64237b91900109a43986ef6b2ccf05bc3ad6b006664736f6c634300081e0033","linkReferences":{}},"methodIdentifiers":{"cancelStream(uint256)":"6db9241b","createMultipleStreams(address[],uint256,uint256,uint256[])":"b8cd9587","createStream(address,uint256,uint256)":"cd9e3fe8","getClaimableFunds(uint256)":"1d2f7ee4","getStreamsByRecipient(address)":"98c49e45","getStreamsBySender(address)":"7c7e10af","getUserRole(uint256,address)":"80b89c18","pauseStream(uint256)":"746ff13d","redirectClaimsRecipient(uint256,address)":"585c8ae4","streams(uint256)":"64d60d91","streamsByRecipient(address,uint256)":"cc3cfc05","streamsBySender(address,uint256)":"4e8cb615","transferClaimsToAddress(uint256,uint256,address)":"b92554b1","unPauseStream(uint256)":"a6f55bbe","withdrawFromStream(uint256,uint256)":"7a9b2c6c"},"id":3}