{"abi":[{"type":"constructor","inputs":[{"name":"_usdtAddress","type":"address","internalType":"address"}],"stateMutability":"nonpayable"},{"type":"function","name":"cancelStream","inputs":[{"name":"_streamId","type":"uint256","internalType":"uint256"}],"outputs":[],"stateMutability":"nonpayable"},{"type":"function","name":"createMultipleStreams","inputs":[{"name":"_recipients","type":"address[]","internalType":"address[]"},{"name":"_duration","type":"uint256","internalType":"uint256"},{"name":"_amount","type":"uint256","internalType":"uint256"},{"name":"_percentages","type":"uint256[]","internalType":"uint256[]"},{"name":"_message","type":"string","internalType":"string"}],"outputs":[{"name":"","type":"uint256","internalType":"uint256"}],"stateMutability":"nonpayable"},{"type":"function","name":"createStream","inputs":[{"name":"_recipient","type":"address","internalType":"address"},{"name":"_duration","type":"uint256","internalType":"uint256"},{"name":"_amount","type":"uint256","internalType":"uint256"},{"name":"_message","type":"string","internalType":"string"}],"outputs":[{"name":"","type":"uint256","internalType":"uint256"}],"stateMutability":"nonpayable"},{"type":"function","name":"getClaimableFunds","inputs":[{"name":"_streamId","type":"uint256","internalType":"uint256"}],"outputs":[{"name":"","type":"uint256","internalType":"uint256"}],"stateMutability":"view"},{"type":"function","name":"getStreamsByRecipient","inputs":[{"name":"user","type":"address","internalType":"address"}],"outputs":[{"name":"","type":"uint256[]","internalType":"uint256[]"}],"stateMutability":"view"},{"type":"function","name":"getStreamsBySender","inputs":[{"name":"user","type":"address","internalType":"address"}],"outputs":[{"name":"","type":"uint256[]","internalType":"uint256[]"}],"stateMutability":"view"},{"type":"function","name":"getUserRole","inputs":[{"name":"streamId","type":"uint256","internalType":"uint256"},{"name":"user","type":"address","internalType":"address"}],"outputs":[{"name":"sender","type":"bool","internalType":"bool"},{"name":"recipient","type":"bool","internalType":"bool"}],"stateMutability":"view"},{"type":"function","name":"pauseStream","inputs":[{"name":"_streamId","type":"uint256","internalType":"uint256"}],"outputs":[],"stateMutability":"nonpayable"},{"type":"function","name":"redirectClaimsRecipient","inputs":[{"name":"_streamId","type":"uint256","internalType":"uint256"},{"name":"_newRecipient","type":"address","internalType":"address"}],"outputs":[],"stateMutability":"nonpayable"},{"type":"function","name":"streams","inputs":[{"name":"","type":"uint256","internalType":"uint256"}],"outputs":[{"name":"id","type":"uint256","internalType":"uint256"},{"name":"sender","type":"address","internalType":"address"},{"name":"message","type":"string","internalType":"string"},{"name":"duration","type":"uint256","internalType":"uint256"},{"name":"amount","type":"uint256","internalType":"uint256"},{"name":"startTime","type":"uint256","internalType":"uint256"},{"name":"endTime","type":"uint256","internalType":"uint256"},{"name":"flowRate","type":"uint256","internalType":"uint256"},{"name":"active","type":"bool","internalType":"bool"},{"name":"paused","type":"bool","internalType":"bool"},{"name":"pausedAt","type":"uint256","internalType":"uint256"},{"name":"totalPausedDuration","type":"uint256","internalType":"uint256"}],"stateMutability":"view"},{"type":"function","name":"streamsByRecipient","inputs":[{"name":"","type":"address","internalType":"address"},{"name":"","type":"uint256","internalType":"uint256"}],"outputs":[{"name":"","type":"uint256","internalType":"uint256"}],"stateMutability":"view"},{"type":"function","name":"streamsBySender","inputs":[{"name":"","type":"address","internalType":"address"},{"name":"","type":"uint256","internalType":"uint256"}],"outputs":[{"name":"","type":"uint256","internalType":"uint256"}],"stateMutability":"view"},{"type":"function","name":"transferClaimsToAddress","inputs":[{"name":"_streamId","type":"uint256","internalType":"uint256"},{"name":"_amount","type":"uint256","internalType":"uint256"},{"name":"_receiver","type":"address","internalType":"address"}],"outputs":[],"stateMutability":"nonpayable"},{"type":"function","name":"unPauseStream","inputs":[{"name":"_streamId","type":"uint256","internalType":"uint256"}],"outputs":[],"stateMutability":"nonpayable"},{"type":"function","name":"withdrawFromStream","inputs":[{"name":"_streamId","type":"uint256","internalType":"uint256"},{"name":"_amount","type":"uint256","internalType":"uint256"}],"outputs":[],"stateMutability":"nonpayable"},{"type":"event","name":"ClaimsTransferred","inputs":[{"name":"id","type":"uint256","indexed":true,"internalType":"uint256"},{"name":"to","type":"address","indexed":true,"internalType":"address"},{"name":"amount","type":"uint256","indexed":false,"internalType":"uint256"}],"anonymous":false},{"type":"event","name":"StreamCancelled","inputs":[{"name":"id","type":"uint256","indexed":true,"internalType":"uint256"}],"anonymous":false},{"type":"event","name":"StreamCreated","inputs":[{"name":"id","type":"uint256","indexed":true,"internalType":"uint256"},{"name":"sender","type":"address","indexed":true,"internalType":"address"},{"name":"amount","type":"uint256","indexed":false,"internalType":"uint256"},{"name":"duration","type":"uint256","indexed":false,"internalType":"uint256"}],"anonymous":false},{"type":"event","name":"StreamPaused","inputs":[{"name":"id","type":"uint256","indexed":true,"internalType":"uint256"}],"anonymous":false},{"type":"event","name":"StreamRecipient","inputs":[{"name":"id","type":"uint256","indexed":true,"internalType":"uint256"},{"name":"recipient","type":"address","indexed":true,"internalType":"address"},{"name":"percentage","type":"uint256","indexed":false,"internalType":"uint256"}],"anonymous":false},{"type":"event","name":"StreamRedirected","inputs":[{"name":"id","type":"uint256","indexed":true,"internalType":"uint256"},{"name":"oldRecipient","type":"address","indexed":true,"internalType":"address"},{"name":"newRecipient","type":"address","indexed":true,"internalType":"address"}],"anonymous":false},{"type":"event","name":"StreamUnpaused","inputs":[{"name":"id","type":"uint256","indexed":true,"internalType":"uint256"}],"anonymous":false},{"type":"event","name":"WithdrawFromStream","inputs":[{"name":"id","type":"uint256","indexed":true,"internalType":"uint256"},{"name":"recipient","type":"address","indexed":true,"internalType":"address"},{"name":"amount","type":"uint256","indexed":false,"internalType":"uint256"}],"anonymous":false},{"type":"error","name":"ReentrancyGuardReentrantCall","inputs":[]}],"bytecode":{"object":"0x60a060405260015f55348015610013575f5ffd5b50604051613dab380380613dab83398181016040528101906100359190610191565b600161005361004861010160201b60201c565b61012a60201b60201c565b5f01819055505f73ffffffffffffffffffffffffffffffffffffffff168173ffffffffffffffffffffffffffffffffffffffff16036100c7576040517f08c379a00000000000000000000000000000000000000000000000000000000081526004016100be90610216565b60405180910390fd5b8073ffffffffffffffffffffffffffffffffffffffff1660808173ffffffffffffffffffffffffffffffffffffffff168152505050610234565b5f7f9b779b17422d0df92223018b32b4d1fa46e071723d6817e2486d003becc55f005f1b905090565b5f819050919050565b5f5ffd5b5f73ffffffffffffffffffffffffffffffffffffffff82169050919050565b5f61016082610137565b9050919050565b61017081610156565b811461017a575f5ffd5b50565b5f8151905061018b81610167565b92915050565b5f602082840312156101a6576101a5610133565b5b5f6101b38482850161017d565b91505092915050565b5f82825260208201905092915050565b7f496e76616c6964205553445420616464726573730000000000000000000000005f82015250565b5f6102006014836101bc565b915061020b826101cc565b602082019050919050565b5f6020820190508181035f83015261022d816101f4565b9050919050565b608051613b3c61026f5f395f818161099f01528181610ae70152818161101d0152818161177801528181611a9b015261208f0152613b3c5ff3fe608060405234801561000f575f5ffd5b50600436106100f3575f3560e01c80637c7e10af11610095578063b92554b111610064578063b92554b1146102af578063cc3cfc05146102cb578063d0555c11146102fb578063dee04a721461032b576100f3565b80637c7e10af1461020257806380b89c181461023257806398c49e4514610263578063a6f55bbe14610293576100f3565b806364d60d91116100d157806364d60d91146101735780636db9241b146101ae578063746ff13d146101ca5780637a9b2c6c146101e6576100f3565b80631d2f7ee4146100f75780634e8cb61514610127578063585c8ae414610157575b5f5ffd5b610111600480360381019061010c91906126a2565b61035b565b60405161011e91906126dc565b60405180910390f35b610141600480360381019061013c919061274f565b610387565b60405161014e91906126dc565b60405180910390f35b610171600480360381019061016c919061278d565b6103b2565b005b61018d600480360381019061018891906126a2565b610672565b6040516101a59c9b9a99989796959493929190612864565b60405180910390f35b6101c860048036038101906101c391906126a2565b61078c565b005b6101e460048036038101906101df91906126a2565b610c24565b005b61020060048036038101906101fb9190612923565b610db9565b005b61021c60048036038101906102179190612961565b611156565b6040516102299190612a43565b60405180910390f35b61024c6004803603810190610247919061278d565b6111e9565b60405161025a929190612a63565b60405180910390f35b61027d60048036038101906102789190612961565b6112f6565b60405161028a9190612a43565b60405180910390f35b6102ad60048036038101906102a891906126a2565b611389565b005b6102c960048036038101906102c49190612a8a565b61151c565b005b6102e560048036038101906102e0919061274f565b6118aa565b6040516102f291906126dc565b60405180910390f35b61031560048036038101906103109190612d8a565b6118d5565b60405161032291906126dc565b60405180910390f35b61034560048036038101906103409190612e55565b611fc8565b60405161035291906126dc565b60405180910390f35b5f5f60015f8481526020019081526020015f2090505f61037b3383612447565b90508092505050919050565b6002602052815f5260405f2081815481106103a0575f80fd5b905f5260205f20015f91509150505481565b5f73ffffffffffffffffffffffffffffffffffffffff168173ffffffffffffffffffffffffffffffffffffffff1603610420576040517f08c379a000000000000000000000000000000000000000000000000000000000815260040161041790612f1f565b60405180910390fd5b5f60015f8481526020019081526020015f20905080600b015f9054906101000a900460ff16610484576040517f08c379a000000000000000000000000000000000000000000000000000000000815260040161047b90612f87565b60405180910390fd5b80600b0160019054906101000a900460ff16156104d6576040517f08c379a00000000000000000000000000000000000000000000000000000000081526004016104cd90612fef565b60405180910390fd5b5f5f90505f5f90505b82600301805490508110156105d0573373ffffffffffffffffffffffffffffffffffffffff1683600301828154811061051b5761051a61300d565b5b905f5260205f20015f9054906101000a900473ffffffffffffffffffffffffffffffffffffffff1673ffffffffffffffffffffffffffffffffffffffff16036105c357838360030182815481106105755761057461300d565b5b905f5260205f20015f6101000a81548173ffffffffffffffffffffffffffffffffffffffff021916908373ffffffffffffffffffffffffffffffffffffffff160217905550600191506105d0565b80806001019150506104df565b5080610611576040517f08c379a000000000000000000000000000000000000000000000000000000000815260040161060890613084565b60405180910390fd5b8273ffffffffffffffffffffffffffffffffffffffff163373ffffffffffffffffffffffffffffffffffffffff16857f0f81a452435213495f5eb594ea69c07fb66cb271c8c2b57e4e89b44abf6654a160405160405180910390a450505050565b6001602052805f5260405f205f91509050805f015490806001015f9054906101000a900473ffffffffffffffffffffffffffffffffffffffff16908060020180546106bc906130cf565b80601f01602080910402602001604051908101604052809291908181526020018280546106e8906130cf565b80156107335780601f1061070a57610100808354040283529160200191610733565b820191905f5260205f20905b81548152906001019060200180831161071657829003601f168201915b50505050509080600501549080600601549080600701549080600801549080600901549080600b015f9054906101000a900460ff169080600b0160019054906101000a900460ff169080600c01549080600d015490508c565b610794612593565b5f60015f8381526020019081526020015f20905080600b015f9054906101000a900460ff166107f8576040517f08c379a00000000000000000000000000000000000000000000000000000000081526004016107ef90612f87565b60405180910390fd5b5f816001015f9054906101000a900473ffffffffffffffffffffffffffffffffffffffff1673ffffffffffffffffffffffffffffffffffffffff163373ffffffffffffffffffffffffffffffffffffffff161490508061088d576040517f08c379a000000000000000000000000000000000000000000000000000000000815260040161088490613149565b60405180910390fd5b5f82600b015f6101000a81548160ff0219169083151502179055505f82600801544210156108ca578260070154426108c59190613194565b6108d0565b82600501545b90505f8360090154826108e391906131c7565b90505f5f90505b8460030180549050811015610ac8575f6127108660040183815481106109135761091261300d565b5b905f5260205f2001548461092791906131c7565b6109319190613235565b90505f86600a01838154811061094a5761094961300d565b5b905f5260205f2001548261095e9190613194565b90505f811115610ab9578087600a01848154811061097f5761097e61300d565b5b905f5260205f20015f8282546109959190613265565b925050819055505f7f000000000000000000000000000000000000000000000000000000000000000073ffffffffffffffffffffffffffffffffffffffff1663a9059cbb8960030186815481106109ef576109ee61300d565b5b905f5260205f20015f9054906101000a900473ffffffffffffffffffffffffffffffffffffffff16846040518363ffffffff1660e01b8152600401610a35929190613298565b6020604051808303815f875af1158015610a51573d5f5f3e3d5ffd5b505050506040513d601f19601f82011682018060405250810190610a7591906132e9565b905080610ab7576040517f08c379a0000000000000000000000000000000000000000000000000000000008152600401610aae9061335e565b60405180910390fd5b505b505080806001019150506108ea565b505f818560060154610ada9190613194565b90505f811115610be7575f7f000000000000000000000000000000000000000000000000000000000000000073ffffffffffffffffffffffffffffffffffffffff1663a9059cbb876001015f9054906101000a900473ffffffffffffffffffffffffffffffffffffffff16846040518363ffffffff1660e01b8152600401610b63929190613298565b6020604051808303815f875af1158015610b7f573d5f5f3e3d5ffd5b505050506040513d601f19601f82011682018060405250810190610ba391906132e9565b905080610be5576040517f08c379a0000000000000000000000000000000000000000000000000000000008152600401610bdc9061335e565b60405180910390fd5b505b857f75b8c91e46f219f2164d6bce576e7cebd2d3ff8749726009fcafdf04e2e1eb7b60405160405180910390a25050505050610c216125b5565b50565b5f60015f8381526020019081526020015f20905080600b015f9054906101000a900460ff16610c88576040517f08c379a0000000000000000000000000000000000000000000000000000000008152600401610c7f90612f87565b60405180910390fd5b80600b0160019054906101000a900460ff1615610cda576040517f08c379a0000000000000000000000000000000000000000000000000000000008152600401610cd1906133c6565b60405180910390fd5b806001015f9054906101000a900473ffffffffffffffffffffffffffffffffffffffff1673ffffffffffffffffffffffffffffffffffffffff163373ffffffffffffffffffffffffffffffffffffffff1614610d6b576040517f08c379a0000000000000000000000000000000000000000000000000000000008152600401610d629061342e565b60405180910390fd5b600181600b0160016101000a81548160ff021916908315150217905550817fc1e14ec692cfc1a89cae539cb884be8d7cc39fd7a129fd73e0d59895fe48d2b860405160405180910390a25050565b610dc1612593565b5f60015f8481526020019081526020015f20905080600b015f9054906101000a900460ff16610e25576040517f08c379a0000000000000000000000000000000000000000000000000000000008152600401610e1c90612f87565b60405180910390fd5b80600b0160019054906101000a900460ff1615610e77576040517f08c379a0000000000000000000000000000000000000000000000000000000008152600401610e6e90612fef565b60405180910390fd5b80600701544211610ebd576040517f08c379a0000000000000000000000000000000000000000000000000000000008152600401610eb490613496565b60405180910390fd5b5f610ec83383612447565b90505f8311610f0c576040517f08c379a0000000000000000000000000000000000000000000000000000000008152600401610f03906134fe565b60405180910390fd5b80831115610f4f576040517f08c379a0000000000000000000000000000000000000000000000000000000008152600401610f4690613566565b60405180910390fd5b5f5f90505b8260030180549050811015611019573373ffffffffffffffffffffffffffffffffffffffff16836003018281548110610f9057610f8f61300d565b5b905f5260205f20015f9054906101000a900473ffffffffffffffffffffffffffffffffffffffff1673ffffffffffffffffffffffffffffffffffffffff160361100c578383600a018281548110610fea57610fe961300d565b5b905f5260205f20015f8282546110009190613265565b92505081905550611019565b8080600101915050610f54565b505f7f000000000000000000000000000000000000000000000000000000000000000073ffffffffffffffffffffffffffffffffffffffff1663a9059cbb33866040518363ffffffff1660e01b8152600401611076929190613298565b6020604051808303815f875af1158015611092573d5f5f3e3d5ffd5b505050506040513d601f19601f820116820180604052508101906110b691906132e9565b9050806110f8576040517f08c379a00000000000000000000000000000000000000000000000000000000081526004016110ef9061335e565b60405180910390fd5b3373ffffffffffffffffffffffffffffffffffffffff16857f36c3ab437e6a424ed25dc4bfdeb62706aa06558660fab2dab229d2555adaf89c8660405161113f91906126dc565b60405180910390a35050506111526125b5565b5050565b606060025f8373ffffffffffffffffffffffffffffffffffffffff1673ffffffffffffffffffffffffffffffffffffffff1681526020019081526020015f208054806020026020016040519081016040528092919081815260200182805480156111dd57602002820191905f5260205f20905b8154815260200190600101908083116111c9575b50505050509050919050565b5f5f5f60015f8681526020019081526020015f2090508373ffffffffffffffffffffffffffffffffffffffff16816001015f9054906101000a900473ffffffffffffffffffffffffffffffffffffffff1673ffffffffffffffffffffffffffffffffffffffff161492505f5f90505b81600301805490508110156112ed578473ffffffffffffffffffffffffffffffffffffffff168260030182815481106112945761129361300d565b5b905f5260205f20015f9054906101000a900473ffffffffffffffffffffffffffffffffffffffff1673ffffffffffffffffffffffffffffffffffffffff16036112e057600192506112ed565b8080600101915050611258565b50509250929050565b606060035f8373ffffffffffffffffffffffffffffffffffffffff1673ffffffffffffffffffffffffffffffffffffffff1681526020019081526020015f2080548060200260200160405190810160405280929190818152602001828054801561137d57602002820191905f5260205f20905b815481526020019060010190808311611369575b50505050509050919050565b5f60015f8381526020019081526020015f20905080600b015f9054906101000a900460ff166113ed576040517f08c379a00000000000000000000000000000000000000000000000000000000081526004016113e490612f87565b60405180910390fd5b80600b0160019054906101000a900460ff1661143e576040517f08c379a0000000000000000000000000000000000000000000000000000000008152600401611435906135ce565b60405180910390fd5b806001015f9054906101000a900473ffffffffffffffffffffffffffffffffffffffff1673ffffffffffffffffffffffffffffffffffffffff163373ffffffffffffffffffffffffffffffffffffffff16146114cf576040517f08c379a00000000000000000000000000000000000000000000000000000000081526004016114c69061342e565b60405180910390fd5b5f81600b0160016101000a81548160ff021916908315150217905550817f1596c7c03ad2a3ba0ace554b73f0d4cabac8f60ebba723b7f501aa9697f673e960405160405180910390a25050565b5f60015f8581526020019081526020015f20905080600b015f9054906101000a900460ff16611580576040517f08c379a000000000000000000000000000000000000000000000000000000000815260040161157790612f87565b60405180910390fd5b80600b0160019054906101000a900460ff16156115d2576040517f08c379a00000000000000000000000000000000000000000000000000000000081526004016115c990612fef565b60405180910390fd5b80600701544211611618576040517f08c379a000000000000000000000000000000000000000000000000000000000815260040161160f90613496565b60405180910390fd5b5f6116233383612447565b90505f8411611667576040517f08c379a000000000000000000000000000000000000000000000000000000000815260040161165e906134fe565b60405180910390fd5b808411156116aa576040517f08c379a00000000000000000000000000000000000000000000000000000000081526004016116a190613566565b60405180910390fd5b5f5f90505b8260030180549050811015611774573373ffffffffffffffffffffffffffffffffffffffff168360030182815481106116eb576116ea61300d565b5b905f5260205f20015f9054906101000a900473ffffffffffffffffffffffffffffffffffffffff1673ffffffffffffffffffffffffffffffffffffffff1603611767578483600a0182815481106117455761174461300d565b5b905f5260205f20015f82825461175b9190613265565b92505081905550611774565b80806001019150506116af565b505f7f000000000000000000000000000000000000000000000000000000000000000073ffffffffffffffffffffffffffffffffffffffff1663a9059cbb85876040518363ffffffff1660e01b81526004016117d1929190613298565b6020604051808303815f875af11580156117ed573d5f5f3e3d5ffd5b505050506040513d601f19601f8201168201806040525081019061181191906132e9565b905080611853576040517f08c379a000000000000000000000000000000000000000000000000000000000815260040161184a9061335e565b60405180910390fd5b8373ffffffffffffffffffffffffffffffffffffffff16867ffc170a5b9f226b178db20055cd172a977ad897453b2959bdcdb491bb9f79522d8760405161189a91906126dc565b60405180910390a3505050505050565b6003602052815f5260405f2081815481106118c3575f80fd5b905f5260205f20015f91509150505481565b5f6118de612593565b6001865111611922576040517f08c379a000000000000000000000000000000000000000000000000000000000815260040161191990613636565b60405180910390fd5b8251865114611966576040517f08c379a000000000000000000000000000000000000000000000000000000000815260040161195d9061369e565b60405180910390fd5b5f8411801561197457505f85115b6119b3576040517f08c379a00000000000000000000000000000000000000000000000000000000081526004016119aa90613706565b60405180910390fd5b5f5f5f90505b8451811015611a53575f8582815181106119d6576119d561300d565b5b602002602001015111611a1e576040517f08c379a0000000000000000000000000000000000000000000000000000000008152600401611a159061376e565b60405180910390fd5b848181518110611a3157611a3061300d565b5b602002602001015182611a449190613265565b915080806001019150506119b9565b506127108114611a98576040517f08c379a0000000000000000000000000000000000000000000000000000000008152600401611a8f906137d6565b60405180910390fd5b5f7f000000000000000000000000000000000000000000000000000000000000000073ffffffffffffffffffffffffffffffffffffffff166323b872dd3330896040518463ffffffff1660e01b8152600401611af6939291906137f4565b6020604051808303815f875af1158015611b12573d5f5f3e3d5ffd5b505050506040513d601f19601f82011682018060405250810190611b3691906132e9565b905080611b78576040517f08c379a0000000000000000000000000000000000000000000000000000000008152600401611b6f9061335e565b60405180910390fd5b5f5f5490505f60015f8381526020019081526020015f2090505f5f90505b8a51811015611e18575f73ffffffffffffffffffffffffffffffffffffffff168b8281518110611bc957611bc861300d565b5b602002602001015173ffffffffffffffffffffffffffffffffffffffff1603611c27576040517f08c379a0000000000000000000000000000000000000000000000000000000008152600401611c1e90612f1f565b60405180910390fd5b816003018b8281518110611c3e57611c3d61300d565b5b6020026020010151908060018154018082558091505060019003905f5260205f20015f9091909190916101000a81548173ffffffffffffffffffffffffffffffffffffffff021916908373ffffffffffffffffffffffffffffffffffffffff16021790555081600401888281518110611cba57611cb961300d565b5b6020026020010151908060018154018082558091505060019003905f5260205f20015f909190919091505581600a015f908060018154018082558091505060019003905f5260205f20015f909190919091505560035f8c8381518110611d2357611d2261300d565b5b602002602001015173ffffffffffffffffffffffffffffffffffffffff1673ffffffffffffffffffffffffffffffffffffffff1681526020019081526020015f2083908060018154018082558091505060019003905f5260205f20015f90919091909150558a8181518110611d9b57611d9a61300d565b5b602002602001015173ffffffffffffffffffffffffffffffffffffffff16837f36c8c364d3add8a80edb09b638d7bdd81a77e5a498255d6edf53ed891bf806ab8a8481518110611dee57611ded61300d565b5b6020026020010151604051611e0391906126dc565b60405180910390a38080600101915050611b96565b5033816001015f6101000a81548173ffffffffffffffffffffffffffffffffffffffff021916908373ffffffffffffffffffffffffffffffffffffffff1602179055508881600501819055508781600601819055504281600701819055508842611e829190613265565b81600801819055508888611e969190613235565b8160090181905550600181600b015f6101000a81548160ff0219169083151502179055505f81600b0160016101000a81548160ff02191690831515021790555085816002019081611ee791906139c9565b505f5f815480929190611ef990613a98565b919050555060025f3373ffffffffffffffffffffffffffffffffffffffff1673ffffffffffffffffffffffffffffffffffffffff1681526020019081526020015f2082908060018154018082558091505060019003905f5260205f20015f90919091909150553373ffffffffffffffffffffffffffffffffffffffff16827fe182e2dc0f9d78c65c0a90f042f4e89439fc8badf149f1bfaad7ed3f4e534ebc8a8c604051611fa8929190613adf565b60405180910390a381945050505050611fbf6125b5565b95945050505050565b5f611fd1612593565b5f73ffffffffffffffffffffffffffffffffffffffff168573ffffffffffffffffffffffffffffffffffffffff160361203f576040517f08c379a000000000000000000000000000000000000000000000000000000000815260040161203690612f1f565b60405180910390fd5b5f8311801561204d57505f84115b61208c576040517f08c379a000000000000000000000000000000000000000000000000000000000815260040161208390613706565b60405180910390fd5b5f7f000000000000000000000000000000000000000000000000000000000000000073ffffffffffffffffffffffffffffffffffffffff166323b872dd3330876040518463ffffffff1660e01b81526004016120ea939291906137f4565b6020604051808303815f875af1158015612106573d5f5f3e3d5ffd5b505050506040513d601f19601f8201168201806040525081019061212a91906132e9565b90508061216c576040517f08c379a00000000000000000000000000000000000000000000000000000000081526004016121639061335e565b60405180910390fd5b5f5f5490505f60015f8381526020019081526020015f20905033816001015f6101000a81548173ffffffffffffffffffffffffffffffffffffffff021916908373ffffffffffffffffffffffffffffffffffffffff1602179055508060030188908060018154018082558091505060019003905f5260205f20015f9091909190916101000a81548173ffffffffffffffffffffffffffffffffffffffff021916908373ffffffffffffffffffffffffffffffffffffffff16021790555080600401612710908060018154018082558091505060019003905f5260205f20015f909190919091505580600a015f908060018154018082558091505060019003905f5260205f20015f909190919091505586816005018190555085816006018190555042816007018190555086426122a29190613265565b816008018190555086866122b69190613235565b8160090181905550600181600b015f6101000a81548160ff0219169083151502179055505f81600b0160016101000a81548160ff0219169083151502179055508481600201908161230791906139c9565b505f5f81548092919061231990613a98565b919050555060025f3373ffffffffffffffffffffffffffffffffffffffff1673ffffffffffffffffffffffffffffffffffffffff1681526020019081526020015f2082908060018154018082558091505060019003905f5260205f20015f909190919091505560035f8973ffffffffffffffffffffffffffffffffffffffff1673ffffffffffffffffffffffffffffffffffffffff1681526020019081526020015f2082908060018154018082558091505060019003905f5260205f20015f90919091909150553373ffffffffffffffffffffffffffffffffffffffff16827fe182e2dc0f9d78c65c0a90f042f4e89439fc8badf149f1bfaad7ed3f4e534ebc888a604051612429929190613adf565b60405180910390a381935050505061243f6125b5565b949350505050565b5f5f826008015442106124605782600501549050612473565b8260070154426124709190613194565b90505b5f83600901548261248491906131c7565b90505f5f90505b8460030180549050811015612586578573ffffffffffffffffffffffffffffffffffffffff168560030182815481106124c7576124c661300d565b5b905f5260205f20015f9054906101000a900473ffffffffffffffffffffffffffffffffffffffff1673ffffffffffffffffffffffffffffffffffffffff1603612579575f6127108660040183815481106125245761252361300d565b5b905f5260205f2001548461253891906131c7565b6125429190613235565b905085600a01828154811061255a5761255961300d565b5b905f5260205f2001548161256e9190613194565b94505050505061258d565b808060010191505061248b565b505f925050505b92915050565b61259b6125cf565b60026125ad6125a8612610565b612639565b5f0181905550565b60016125c76125c2612610565b612639565b5f0181905550565b6125d7612642565b1561260e576040517f3ee5aeb500000000000000000000000000000000000000000000000000000000815260040160405180910390fd5b565b5f7f9b779b17422d0df92223018b32b4d1fa46e071723d6817e2486d003becc55f005f1b905090565b5f819050919050565b5f6002612655612650612610565b612639565b5f015414905090565b5f604051905090565b5f5ffd5b5f5ffd5b5f819050919050565b6126818161266f565b811461268b575f5ffd5b50565b5f8135905061269c81612678565b92915050565b5f602082840312156126b7576126b6612667565b5b5f6126c48482850161268e565b91505092915050565b6126d68161266f565b82525050565b5f6020820190506126ef5f8301846126cd565b92915050565b5f73ffffffffffffffffffffffffffffffffffffffff82169050919050565b5f61271e826126f5565b9050919050565b61272e81612714565b8114612738575f5ffd5b50565b5f8135905061274981612725565b92915050565b5f5f6040838503121561276557612764612667565b5b5f6127728582860161273b565b92505060206127838582860161268e565b9150509250929050565b5f5f604083850312156127a3576127a2612667565b5b5f6127b08582860161268e565b92505060206127c18582860161273b565b9150509250929050565b6127d481612714565b82525050565b5f81519050919050565b5f82825260208201905092915050565b8281835e5f83830152505050565b5f601f19601f8301169050919050565b5f61281c826127da565b61282681856127e4565b93506128368185602086016127f4565b61283f81612802565b840191505092915050565b5f8115159050919050565b61285e8161284a565b82525050565b5f610180820190506128785f83018f6126cd565b612885602083018e6127cb565b8181036040830152612897818d612812565b90506128a6606083018c6126cd565b6128b3608083018b6126cd565b6128c060a083018a6126cd565b6128cd60c08301896126cd565b6128da60e08301886126cd565b6128e8610100830187612855565b6128f6610120830186612855565b6129046101408301856126cd565b6129126101608301846126cd565b9d9c50505050505050505050505050565b5f5f6040838503121561293957612938612667565b5b5f6129468582860161268e565b92505060206129578582860161268e565b9150509250929050565b5f6020828403121561297657612975612667565b5b5f6129838482850161273b565b91505092915050565b5f81519050919050565b5f82825260208201905092915050565b5f819050602082019050919050565b6129be8161266f565b82525050565b5f6129cf83836129b5565b60208301905092915050565b5f602082019050919050565b5f6129f18261298c565b6129fb8185612996565b9350612a06836129a6565b805f5b83811015612a36578151612a1d88826129c4565b9750612a28836129db565b925050600181019050612a09565b5085935050505092915050565b5f6020820190508181035f830152612a5b81846129e7565b905092915050565b5f604082019050612a765f830185612855565b612a836020830184612855565b9392505050565b5f5f5f60608486031215612aa157612aa0612667565b5b5f612aae8682870161268e565b9350506020612abf8682870161268e565b9250506040612ad08682870161273b565b9150509250925092565b5f5ffd5b7f4e487b71000000000000000000000000000000000000000000000000000000005f52604160045260245ffd5b612b1482612802565b810181811067ffffffffffffffff82111715612b3357612b32612ade565b5b80604052505050565b5f612b4561265e565b9050612b518282612b0b565b919050565b5f67ffffffffffffffff821115612b7057612b6f612ade565b5b602082029050602081019050919050565b5f5ffd5b5f612b97612b9284612b56565b612b3c565b90508083825260208201905060208402830185811115612bba57612bb9612b81565b5b835b81811015612be35780612bcf888261273b565b845260208401935050602081019050612bbc565b5050509392505050565b5f82601f830112612c0157612c00612ada565b5b8135612c11848260208601612b85565b91505092915050565b5f67ffffffffffffffff821115612c3457612c33612ade565b5b602082029050602081019050919050565b5f612c57612c5284612c1a565b612b3c565b90508083825260208201905060208402830185811115612c7a57612c79612b81565b5b835b81811015612ca35780612c8f888261268e565b845260208401935050602081019050612c7c565b5050509392505050565b5f82601f830112612cc157612cc0612ada565b5b8135612cd1848260208601612c45565b91505092915050565b5f5ffd5b5f67ffffffffffffffff821115612cf857612cf7612ade565b5b612d0182612802565b9050602081019050919050565b828183375f83830152505050565b5f612d2e612d2984612cde565b612b3c565b905082815260208101848484011115612d4a57612d49612cda565b5b612d55848285612d0e565b509392505050565b5f82601f830112612d7157612d70612ada565b5b8135612d81848260208601612d1c565b91505092915050565b5f5f5f5f5f60a08688031215612da357612da2612667565b5b5f86013567ffffffffffffffff811115612dc057612dbf61266b565b5b612dcc88828901612bed565b9550506020612ddd8882890161268e565b9450506040612dee8882890161268e565b935050606086013567ffffffffffffffff811115612e0f57612e0e61266b565b5b612e1b88828901612cad565b925050608086013567ffffffffffffffff811115612e3c57612e3b61266b565b5b612e4888828901612d5d565b9150509295509295909350565b5f5f5f5f60808587031215612e6d57612e6c612667565b5b5f612e7a8782880161273b565b9450506020612e8b8782880161268e565b9350506040612e9c8782880161268e565b925050606085013567ffffffffffffffff811115612ebd57612ebc61266b565b5b612ec987828801612d5d565b91505092959194509250565b7f696e76616c696420726563697069656e740000000000000000000000000000005f82015250565b5f612f096011836127e4565b9150612f1482612ed5565b602082019050919050565b5f6020820190508181035f830152612f3681612efd565b9050919050565b7f73747265616d20696e61637469766500000000000000000000000000000000005f82015250565b5f612f71600f836127e4565b9150612f7c82612f3d565b602082019050919050565b5f6020820190508181035f830152612f9e81612f65565b9050919050565b7f73747265616d20706175736564000000000000000000000000000000000000005f82015250565b5f612fd9600d836127e4565b9150612fe482612fa5565b602082019050919050565b5f6020820190508181035f83015261300681612fcd565b9050919050565b7f4e487b71000000000000000000000000000000000000000000000000000000005f52603260045260245ffd5b7f63616c6c6572206e6f74206120726563697069656e74000000000000000000005f82015250565b5f61306e6016836127e4565b91506130798261303a565b602082019050919050565b5f6020820190508181035f83015261309b81613062565b9050919050565b7f4e487b71000000000000000000000000000000000000000000000000000000005f52602260045260245ffd5b5f60028204905060018216806130e657607f821691505b6020821081036130f9576130f86130a2565b5b50919050565b7f6e6f7420617574686f72697a65640000000000000000000000000000000000005f82015250565b5f613133600e836127e4565b915061313e826130ff565b602082019050919050565b5f6020820190508181035f83015261316081613127565b9050919050565b7f4e487b71000000000000000000000000000000000000000000000000000000005f52601160045260245ffd5b5f61319e8261266f565b91506131a98361266f565b92508282039050818111156131c1576131c0613167565b5b92915050565b5f6131d18261266f565b91506131dc8361266f565b92508282026131ea8161266f565b9150828204841483151761320157613200613167565b5b5092915050565b7f4e487b71000000000000000000000000000000000000000000000000000000005f52601260045260245ffd5b5f61323f8261266f565b915061324a8361266f565b92508261325a57613259613208565b5b828204905092915050565b5f61326f8261266f565b915061327a8361266f565b925082820190508082111561329257613291613167565b5b92915050565b5f6040820190506132ab5f8301856127cb565b6132b860208301846126cd565b9392505050565b6132c88161284a565b81146132d2575f5ffd5b50565b5f815190506132e3816132bf565b92915050565b5f602082840312156132fe576132fd612667565b5b5f61330b848285016132d5565b91505092915050565b7f7472616e73666572206661696c656400000000000000000000000000000000005f82015250565b5f613348600f836127e4565b915061335382613314565b602082019050919050565b5f6020820190508181035f8301526133758161333c565b9050919050565b7f616c7265616479207061757365640000000000000000000000000000000000005f82015250565b5f6133b0600e836127e4565b91506133bb8261337c565b602082019050919050565b5f6020820190508181035f8301526133dd816133a4565b9050919050565b7f6f6e6c792073656e6465720000000000000000000000000000000000000000005f82015250565b5f613418600b836127e4565b9150613423826133e4565b602082019050919050565b5f6020820190508181035f8301526134458161340c565b9050919050565b7f73747265616d206e6f74207374617274656400000000000000000000000000005f82015250565b5f6134806012836127e4565b915061348b8261344c565b602082019050919050565b5f6020820190508181035f8301526134ad81613474565b9050919050565b7f696e76616c696420616d6f756e740000000000000000000000000000000000005f82015250565b5f6134e8600e836127e4565b91506134f3826134b4565b602082019050919050565b5f6020820190508181035f830152613515816134dc565b9050919050565b7f6578636565647320636c61696d61626c650000000000000000000000000000005f82015250565b5f6135506011836127e4565b915061355b8261351c565b602082019050919050565b5f6020820190508181035f83015261357d81613544565b9050919050565b7f6e6f7420706175736564000000000000000000000000000000000000000000005f82015250565b5f6135b8600a836127e4565b91506135c382613584565b602082019050919050565b5f6020820190508181035f8301526135e5816135ac565b9050919050565b7f6e656564206d756c7469706c6520726563697069656e747300000000000000005f82015250565b5f6136206018836127e4565b915061362b826135ec565b602082019050919050565b5f6020820190508181035f83015261364d81613614565b9050919050565b7f6172726179206d69736d617463680000000000000000000000000000000000005f82015250565b5f613688600e836127e4565b915061369382613654565b602082019050919050565b5f6020820190508181035f8301526136b58161367c565b9050919050565b7f696e76616c696420616d6f756e74206f72206475726174696f6e0000000000005f82015250565b5f6136f0601a836127e4565b91506136fb826136bc565b602082019050919050565b5f6020820190508181035f83015261371d816136e4565b9050919050565b7f6261642070657263656e746167650000000000000000000000000000000000005f82015250565b5f613758600e836127e4565b915061376382613724565b602082019050919050565b5f6020820190508181035f8301526137858161374c565b9050919050565b7f70657263656e7461676573206d7573742073756d20746f2031303030300000005f82015250565b5f6137c0601d836127e4565b91506137cb8261378c565b602082019050919050565b5f6020820190508181035f8301526137ed816137b4565b9050919050565b5f6060820190506138075f8301866127cb565b61381460208301856127cb565b61382160408301846126cd565b949350505050565b5f819050815f5260205f209050919050565b5f6020601f8301049050919050565b5f82821b905092915050565b5f600883026138857fffffffffffffffffffffffffffffffffffffffffffffffffffffffffffffffff8261384a565b61388f868361384a565b95508019841693508086168417925050509392505050565b5f819050919050565b5f6138ca6138c56138c08461266f565b6138a7565b61266f565b9050919050565b5f819050919050565b6138e3836138b0565b6138f76138ef826138d1565b848454613856565b825550505050565b5f5f905090565b61390e6138ff565b6139198184846138da565b505050565b5b8181101561393c576139315f82613906565b60018101905061391f565b5050565b601f8211156139815761395281613829565b61395b8461383b565b8101602085101561396a578190505b61397e6139768561383b565b83018261391e565b50505b505050565b5f82821c905092915050565b5f6139a15f1984600802613986565b1980831691505092915050565b5f6139b98383613992565b9150826002028217905092915050565b6139d2826127da565b67ffffffffffffffff8111156139eb576139ea612ade565b5b6139f582546130cf565b613a00828285613940565b5f60209050601f831160018114613a31575f8415613a1f578287015190505b613a2985826139ae565b865550613a90565b601f198416613a3f86613829565b5f5b82811015613a6657848901518255600182019150602085019450602081019050613a41565b86831015613a835784890151613a7f601f891682613992565b8355505b6001600288020188555050505b505050505050565b5f613aa28261266f565b91507fffffffffffffffffffffffffffffffffffffffffffffffffffffffffffffffff8203613ad457613ad3613167565b5b600182019050919050565b5f604082019050613af25f8301856126cd565b613aff60208301846126cd565b939250505056fea26469706673582212206eb4b15df654d9032f6640415cb831ec54dd76fa6a7fb38f17f0883e2f0e350364736f6c634300081e0033","linkReferences":{}},"methodIdentifiers":{"cancelStream(uint256)":"6db9241b","createMultipleStreams(address[],uint256,uint256,uint256[],string)":"d0555c11","createStream(address,uint256,uint256,string)":"dee04a72","getClaimableFunds(uint256)":"1d2f7ee4","getStreamsByRecipient(address)":"98c49e45","getStreamsBySender(address)":"7c7e10af","getUserRole(uint256,address)":"80b89c18","pauseStream(uint256)":"746ff13d","redirectClaimsRecipient(uint256,address)":"585c8ae4","streams(uint256)":"64d60d91","streamsByRecipient(address,uint256)":"cc3cfc05","streamsBySender(address,uint256)":"4e8cb615","transferClaimsToAddress(uint256,uint256,address)":"b92554b1","unPauseStream(uint256)":"a6f55bbe","withdrawFromStream(uint256,uint256)":"7a9b2c6c"},"id":3}