{"abi":[{"type":"constructor","inputs":[{"name":"_usdtAddress","type":"address","internalType":"address"}],"stateMutability":"nonpayable"},{"type":"function","name":"cancelStream","inputs":[{"name":"_streamId","type":"uint256","internalType":"uint256"}],"outputs":[],"stateMutability":"nonpayable"},{"type":"function","name":"createMultipleStreams","inputs":[{"name":"_recipients","type":"address[]","internalType":"address[]"},{"name":"_duration","type":"uint256","internalType":"uint256"},{"name":"_amount","type":"uint256","internalType":"uint256"},{"name":"_percentages","type":"uint256[]","internalType":"uint256[]"}],"outputs":[{"name":"","type":"uint256","internalType":"uint256"}],"stateMutability":"nonpayable"},{"type":"function","name":"createStream","inputs":[{"name":"_recipient","type":"address","internalType":"address"},{"name":"_duration","type":"uint256","internalType":"uint256"},{"name":"_amount","type":"uint256","internalType":"uint256"}],"outputs":[{"name":"","type":"uint256","internalType":"uint256"}],"stateMutability":"nonpayable"},{"type":"function","name":"getClaimableFunds","inputs":[{"name":"_streamId","type":"uint256","internalType":"uint256"}],"outputs":[{"name":"","type":"uint256","internalType":"uint256"}],"stateMutability":"view"},{"type":"function","name":"pauseStream","inputs":[{"name":"_streamId","type":"uint256","internalType":"uint256"}],"outputs":[],"stateMutability":"nonpayable"},{"type":"function","name":"redirectClaimsRecipient","inputs":[{"name":"_streamId","type":"uint256","internalType":"uint256"},{"name":"_newRecipient","type":"address","internalType":"address"}],"outputs":[],"stateMutability":"nonpayable"},{"type":"function","name":"streams","inputs":[{"name":"","type":"uint256","internalType":"uint256"}],"outputs":[{"name":"sender","type":"address","internalType":"address"},{"name":"duration","type":"uint256","internalType":"uint256"},{"name":"amount","type":"uint256","internalType":"uint256"},{"name":"startTime","type":"uint256","internalType":"uint256"},{"name":"endTime","type":"uint256","internalType":"uint256"},{"name":"flowRate","type":"uint256","internalType":"uint256"},{"name":"active","type":"bool","internalType":"bool"},{"name":"paused","type":"bool","internalType":"bool"},{"name":"pausedAt","type":"uint256","internalType":"uint256"},{"name":"totalPausedDuration","type":"uint256","internalType":"uint256"}],"stateMutability":"view"},{"type":"function","name":"transferClaimsToAddress","inputs":[{"name":"_streamId","type":"uint256","internalType":"uint256"},{"name":"_amount","type":"uint256","internalType":"uint256"},{"name":"_receiver","type":"address","internalType":"address"}],"outputs":[],"stateMutability":"nonpayable"},{"type":"function","name":"unPauseStream","inputs":[{"name":"_streamId","type":"uint256","internalType":"uint256"}],"outputs":[],"stateMutability":"nonpayable"},{"type":"function","name":"withdrawFromStream","inputs":[{"name":"_streamId","type":"uint256","internalType":"uint256"},{"name":"_amount","type":"uint256","internalType":"uint256"}],"outputs":[],"stateMutability":"nonpayable"},{"type":"event","name":"MultipleStreamsCreated","inputs":[{"name":"id","type":"uint256","indexed":true,"internalType":"uint256"},{"name":"sender","type":"address","indexed":true,"internalType":"address"},{"name":"recipient","type":"address[]","indexed":true,"internalType":"address[]"},{"name":"amount","type":"uint256","indexed":false,"internalType":"uint256"},{"name":"duration","type":"uint256","indexed":false,"internalType":"uint256"}],"anonymous":false},{"type":"event","name":"Redirect","inputs":[{"name":"id","type":"uint256","indexed":true,"internalType":"uint256"},{"name":"oldRecipient","type":"address","indexed":false,"internalType":"address"},{"name":"newRecipient","type":"address","indexed":false,"internalType":"address"}],"anonymous":false},{"type":"event","name":"StreamCancelled","inputs":[{"name":"id","type":"uint256","indexed":true,"internalType":"uint256"}],"anonymous":false},{"type":"event","name":"StreamCreated","inputs":[{"name":"id","type":"uint256","indexed":true,"internalType":"uint256"},{"name":"sender","type":"address","indexed":true,"internalType":"address"},{"name":"recipient","type":"address","indexed":true,"internalType":"address"},{"name":"amount","type":"uint256","indexed":false,"internalType":"uint256"},{"name":"duration","type":"uint256","indexed":false,"internalType":"uint256"}],"anonymous":false},{"type":"event","name":"StreamPaused","inputs":[{"name":"id","type":"uint256","indexed":true,"internalType":"uint256"}],"anonymous":false},{"type":"event","name":"StreamUnpaused","inputs":[{"name":"id","type":"uint256","indexed":true,"internalType":"uint256"}],"anonymous":false},{"type":"event","name":"TransferClaims","inputs":[{"name":"id","type":"uint256","indexed":true,"internalType":"uint256"},{"name":"to","type":"address","indexed":true,"internalType":"address"},{"name":"amount","type":"uint256","indexed":false,"internalType":"uint256"}],"anonymous":false},{"type":"event","name":"WithdrawFromStream","inputs":[{"name":"id","type":"uint256","indexed":true,"internalType":"uint256"},{"name":"recipient","type":"address","indexed":true,"internalType":"address"},{"name":"amount","type":"uint256","indexed":false,"internalType":"uint256"}],"anonymous":false},{"type":"error","name":"ReentrancyGuardReentrantCall","inputs":[]}],"bytecode":{"object":"0x60a060405260018055348015610013575f5ffd5b5060405161323638038061323683398181016040528101906100359190610191565b600161005361004861010160201b60201c565b61012a60201b60201c565b5f01819055505f73ffffffffffffffffffffffffffffffffffffffff168173ffffffffffffffffffffffffffffffffffffffff16036100c7576040517f08c379a00000000000000000000000000000000000000000000000000000000081526004016100be90610216565b60405180910390fd5b8073ffffffffffffffffffffffffffffffffffffffff1660808173ffffffffffffffffffffffffffffffffffffffff168152505050610234565b5f7f9b779b17422d0df92223018b32b4d1fa46e071723d6817e2486d003becc55f005f1b905090565b5f819050919050565b5f5ffd5b5f73ffffffffffffffffffffffffffffffffffffffff82169050919050565b5f61016082610137565b9050919050565b61017081610156565b811461017a575f5ffd5b50565b5f8151905061018b81610167565b92915050565b5f602082840312156101a6576101a5610133565b5b5f6101b38482850161017d565b91505092915050565b5f82825260208201905092915050565b7f496e76616c6964205553445420616464726573730000000000000000000000005f82015250565b5f6102006014836101bc565b915061020b826101cc565b602082019050919050565b5f6020820190508181035f83015261022d816101f4565b9050919050565b608051612fc761026f5f395f8181610772015281816108ba01528181610dec0152818161127c015281816118a80152611aa10152612fc75ff3fe608060405234801561000f575f5ffd5b506004361061009c575f3560e01c80637a9b2c6c116100645780637a9b2c6c1461015d578063a6f55bbe14610179578063b8cd958714610195578063b92554b1146101c5578063cd9e3fe8146101e15761009c565b80631d2f7ee4146100a0578063585c8ae4146100d057806364d60d91146100ec5780636db9241b14610125578063746ff13d14610141575b5f5ffd5b6100ba60048036038101906100b59190611ff6565b610211565b6040516100c79190612030565b60405180910390f35b6100ea60048036038101906100e591906120a3565b61023c565b005b61010660048036038101906101019190611ff6565b6104da565b60405161011c9a9998979695949392919061210a565b60405180910390f35b61013f600480360381019061013a9190611ff6565b610561565b005b61015b60048036038101906101569190611ff6565b6109f6565b005b610177600480360381019061017291906121a4565b610b89565b005b610193600480360381019061018e9190611ff6565b610f25565b005b6101af60048036038101906101aa91906123f2565b6110b6565b6040516101bc9190612030565b60405180910390f35b6101df60048036038101906101da919061248e565b61164d565b005b6101fb60048036038101906101f691906124de565b6119da565b6040516102089190612030565b60405180910390f35b5f5f5f5f8481526020019081526020015f2090505f6102303383611d9b565b90508092505050919050565b5f73ffffffffffffffffffffffffffffffffffffffff168173ffffffffffffffffffffffffffffffffffffffff16036102aa576040517f08c379a00000000000000000000000000000000000000000000000000000000081526004016102a190612588565b60405180910390fd5b5f5f5f8481526020019081526020015f209050806009015f9054906101000a900460ff1661030d576040517f08c379a0000000000000000000000000000000000000000000000000000000008152600401610304906125f0565b60405180910390fd5b8060090160019054906101000a900460ff161561035f576040517f08c379a000000000000000000000000000000000000000000000000000000000815260040161035690612658565b60405180910390fd5b5f5f90505f5f90505b8260010180549050811015610459573373ffffffffffffffffffffffffffffffffffffffff168360010182815481106103a4576103a3612676565b5b905f5260205f20015f9054906101000a900473ffffffffffffffffffffffffffffffffffffffff1673ffffffffffffffffffffffffffffffffffffffff160361044c57838360010182815481106103fe576103fd612676565b5b905f5260205f20015f6101000a81548173ffffffffffffffffffffffffffffffffffffffff021916908373ffffffffffffffffffffffffffffffffffffffff16021790555060019150610459565b8080600101915050610368565b508061049a576040517f08c379a0000000000000000000000000000000000000000000000000000000008152600401610491906126ed565b60405180910390fd5b837f1f4bb3687e3231a968b4449f2bd6784c01d578ab5f307f0499bef96c39a4fd7033856040516104cc92919061270b565b60405180910390a250505050565b5f602052805f5260405f205f91509050805f015f9054906101000a900473ffffffffffffffffffffffffffffffffffffffff1690806003015490806004015490806005015490806006015490806007015490806009015f9054906101000a900460ff16908060090160019054906101000a900460ff169080600a01549080600b015490508a565b610569611ee7565b5f5f5f8381526020019081526020015f209050806009015f9054906101000a900460ff166105cc576040517f08c379a00000000000000000000000000000000000000000000000000000000081526004016105c3906125f0565b60405180910390fd5b5f815f015f9054906101000a900473ffffffffffffffffffffffffffffffffffffffff1673ffffffffffffffffffffffffffffffffffffffff163373ffffffffffffffffffffffffffffffffffffffff1614905080610660576040517f08c379a00000000000000000000000000000000000000000000000000000000081526004016106579061277c565b60405180910390fd5b5f826009015f6101000a81548160ff0219169083151502179055505f826006015442101561069d5782600501544261069891906127c7565b6106a3565b82600301545b90505f8360070154826106b691906127fa565b90505f5f90505b846001018054905081101561089b575f6127108660020183815481106106e6576106e5612676565b5b905f5260205f200154846106fa91906127fa565b6107049190612868565b90505f86600801838154811061071d5761071c612676565b5b905f5260205f2001548261073191906127c7565b90505f81111561088c578087600801848154811061075257610751612676565b5b905f5260205f20015f8282546107689190612898565b925050819055505f7f000000000000000000000000000000000000000000000000000000000000000073ffffffffffffffffffffffffffffffffffffffff1663a9059cbb8960010186815481106107c2576107c1612676565b5b905f5260205f20015f9054906101000a900473ffffffffffffffffffffffffffffffffffffffff16846040518363ffffffff1660e01b81526004016108089291906128cb565b6020604051808303815f875af1158015610824573d5f5f3e3d5ffd5b505050506040513d601f19601f82011682018060405250810190610848919061291c565b90508061088a576040517f08c379a000000000000000000000000000000000000000000000000000000000815260040161088190612991565b60405180910390fd5b505b505080806001019150506106bd565b505f8185600401546108ad91906127c7565b90505f8111156109b9575f7f000000000000000000000000000000000000000000000000000000000000000073ffffffffffffffffffffffffffffffffffffffff1663a9059cbb875f015f9054906101000a900473ffffffffffffffffffffffffffffffffffffffff16846040518363ffffffff1660e01b81526004016109359291906128cb565b6020604051808303815f875af1158015610951573d5f5f3e3d5ffd5b505050506040513d601f19601f82011682018060405250810190610975919061291c565b9050806109b7576040517f08c379a00000000000000000000000000000000000000000000000000000000081526004016109ae90612991565b60405180910390fd5b505b857f75b8c91e46f219f2164d6bce576e7cebd2d3ff8749726009fcafdf04e2e1eb7b60405160405180910390a250505050506109f3611f09565b50565b5f5f5f8381526020019081526020015f209050806009015f9054906101000a900460ff16610a59576040517f08c379a0000000000000000000000000000000000000000000000000000000008152600401610a50906125f0565b60405180910390fd5b8060090160019054906101000a900460ff1615610aab576040517f08c379a0000000000000000000000000000000000000000000000000000000008152600401610aa2906129f9565b60405180910390fd5b805f015f9054906101000a900473ffffffffffffffffffffffffffffffffffffffff1673ffffffffffffffffffffffffffffffffffffffff163373ffffffffffffffffffffffffffffffffffffffff1614610b3b576040517f08c379a0000000000000000000000000000000000000000000000000000000008152600401610b3290612a61565b60405180910390fd5b60018160090160016101000a81548160ff021916908315150217905550817fc1e14ec692cfc1a89cae539cb884be8d7cc39fd7a129fd73e0d59895fe48d2b860405160405180910390a25050565b610b91611ee7565b5f5f5f8481526020019081526020015f209050806009015f9054906101000a900460ff16610bf4576040517f08c379a0000000000000000000000000000000000000000000000000000000008152600401610beb906125f0565b60405180910390fd5b8060090160019054906101000a900460ff1615610c46576040517f08c379a0000000000000000000000000000000000000000000000000000000008152600401610c3d90612658565b60405180910390fd5b80600501544211610c8c576040517f08c379a0000000000000000000000000000000000000000000000000000000008152600401610c8390612ac9565b60405180910390fd5b5f610c973383611d9b565b90505f8311610cdb576040517f08c379a0000000000000000000000000000000000000000000000000000000008152600401610cd290612b31565b60405180910390fd5b80831115610d1e576040517f08c379a0000000000000000000000000000000000000000000000000000000008152600401610d1590612b99565b60405180910390fd5b5f5f90505b8260010180549050811015610de8573373ffffffffffffffffffffffffffffffffffffffff16836001018281548110610d5f57610d5e612676565b5b905f5260205f20015f9054906101000a900473ffffffffffffffffffffffffffffffffffffffff1673ffffffffffffffffffffffffffffffffffffffff1603610ddb5783836008018281548110610db957610db8612676565b5b905f5260205f20015f828254610dcf9190612898565b92505081905550610de8565b8080600101915050610d23565b505f7f000000000000000000000000000000000000000000000000000000000000000073ffffffffffffffffffffffffffffffffffffffff1663a9059cbb33866040518363ffffffff1660e01b8152600401610e459291906128cb565b6020604051808303815f875af1158015610e61573d5f5f3e3d5ffd5b505050506040513d601f19601f82011682018060405250810190610e85919061291c565b905080610ec7576040517f08c379a0000000000000000000000000000000000000000000000000000000008152600401610ebe90612991565b60405180910390fd5b3373ffffffffffffffffffffffffffffffffffffffff16857f36c3ab437e6a424ed25dc4bfdeb62706aa06558660fab2dab229d2555adaf89c86604051610f0e9190612030565b60405180910390a3505050610f21611f09565b5050565b5f5f5f8381526020019081526020015f209050806009015f9054906101000a900460ff16610f88576040517f08c379a0000000000000000000000000000000000000000000000000000000008152600401610f7f906125f0565b60405180910390fd5b8060090160019054906101000a900460ff16610fd9576040517f08c379a0000000000000000000000000000000000000000000000000000000008152600401610fd090612c01565b60405180910390fd5b805f015f9054906101000a900473ffffffffffffffffffffffffffffffffffffffff1673ffffffffffffffffffffffffffffffffffffffff163373ffffffffffffffffffffffffffffffffffffffff1614611069576040517f08c379a000000000000000000000000000000000000000000000000000000000815260040161106090612a61565b60405180910390fd5b5f8160090160016101000a81548160ff021916908315150217905550817f1596c7c03ad2a3ba0ace554b73f0d4cabac8f60ebba723b7f501aa9697f673e960405160405180910390a25050565b5f6110bf611ee7565b6001855111611103576040517f08c379a00000000000000000000000000000000000000000000000000000000081526004016110fa90612c69565b60405180910390fd5b8151855114611147576040517f08c379a000000000000000000000000000000000000000000000000000000000815260040161113e90612cd1565b60405180910390fd5b5f8311801561115557505f84115b611194576040517f08c379a000000000000000000000000000000000000000000000000000000000815260040161118b90612d39565b60405180910390fd5b5f5f5f90505b8351811015611234575f8482815181106111b7576111b6612676565b5b6020026020010151116111ff576040517f08c379a00000000000000000000000000000000000000000000000000000000081526004016111f690612da1565b60405180910390fd5b83818151811061121257611211612676565b5b6020026020010151826112259190612898565b9150808060010191505061119a565b506127108114611279576040517f08c379a000000000000000000000000000000000000000000000000000000000815260040161127090612e09565b60405180910390fd5b5f7f000000000000000000000000000000000000000000000000000000000000000073ffffffffffffffffffffffffffffffffffffffff166323b872dd3330886040518463ffffffff1660e01b81526004016112d793929190612e27565b6020604051808303815f875af11580156112f3573d5f5f3e3d5ffd5b505050506040513d601f19601f82011682018060405250810190611317919061291c565b905080611359576040517f08c379a000000000000000000000000000000000000000000000000000000000815260040161135090612991565b60405180910390fd5b5f60015490505f5f5f8381526020019081526020015f2090505f5f90505b89518110156114fb575f73ffffffffffffffffffffffffffffffffffffffff168a82815181106113aa576113a9612676565b5b602002602001015173ffffffffffffffffffffffffffffffffffffffff1603611408576040517f08c379a00000000000000000000000000000000000000000000000000000000081526004016113ff90612588565b60405180910390fd5b816001018a828151811061141f5761141e612676565b5b6020026020010151908060018154018082558091505060019003905f5260205f20015f9091909190916101000a81548173ffffffffffffffffffffffffffffffffffffffff021916908373ffffffffffffffffffffffffffffffffffffffff1602179055508160020187828151811061149b5761149a612676565b5b6020026020010151908060018154018082558091505060019003905f5260205f20015f9091909190915055816008015f908060018154018082558091505060019003905f5260205f20015f90919091909150558080600101915050611377565b5033815f015f6101000a81548173ffffffffffffffffffffffffffffffffffffffff021916908373ffffffffffffffffffffffffffffffffffffffff16021790555087816003018190555086816004018190555042816005018190555087426115649190612898565b816006018190555087876115789190612868565b81600701819055506001816009015f6101000a81548160ff0219169083151502179055505f8160090160016101000a81548160ff02191690831515021790555060015f8154809291906115ca90612e5c565b9190505550886040516115dd9190612f54565b60405180910390203373ffffffffffffffffffffffffffffffffffffffff16837f73f8783bdf460e02ac9f470e63eb7a3d38045ed46f12dddf27d2d77d330753438a8c60405161162e929190612f6a565b60405180910390a481945050505050611645611f09565b949350505050565b5f5f5f8581526020019081526020015f209050806009015f9054906101000a900460ff166116b0576040517f08c379a00000000000000000000000000000000000000000000000000000000081526004016116a7906125f0565b60405180910390fd5b8060090160019054906101000a900460ff1615611702576040517f08c379a00000000000000000000000000000000000000000000000000000000081526004016116f990612658565b60405180910390fd5b80600501544211611748576040517f08c379a000000000000000000000000000000000000000000000000000000000815260040161173f90612ac9565b60405180910390fd5b5f6117533383611d9b565b90505f8411611797576040517f08c379a000000000000000000000000000000000000000000000000000000000815260040161178e90612b31565b60405180910390fd5b808411156117da576040517f08c379a00000000000000000000000000000000000000000000000000000000081526004016117d190612b99565b60405180910390fd5b5f5f90505b82600101805490508110156118a4573373ffffffffffffffffffffffffffffffffffffffff1683600101828154811061181b5761181a612676565b5b905f5260205f20015f9054906101000a900473ffffffffffffffffffffffffffffffffffffffff1673ffffffffffffffffffffffffffffffffffffffff1603611897578483600801828154811061187557611874612676565b5b905f5260205f20015f82825461188b9190612898565b925050819055506118a4565b80806001019150506117df565b505f7f000000000000000000000000000000000000000000000000000000000000000073ffffffffffffffffffffffffffffffffffffffff1663a9059cbb85876040518363ffffffff1660e01b81526004016119019291906128cb565b6020604051808303815f875af115801561191d573d5f5f3e3d5ffd5b505050506040513d601f19601f82011682018060405250810190611941919061291c565b905080611983576040517f08c379a000000000000000000000000000000000000000000000000000000000815260040161197a90612991565b60405180910390fd5b8373ffffffffffffffffffffffffffffffffffffffff16867faa15be4520c0655c62fca591eb6944ef2f72a2f7615356edd4faed8aab8045ed876040516119ca9190612030565b60405180910390a3505050505050565b5f6119e3611ee7565b5f73ffffffffffffffffffffffffffffffffffffffff168473ffffffffffffffffffffffffffffffffffffffff1603611a51576040517f08c379a0000000000000000000000000000000000000000000000000000000008152600401611a4890612588565b60405180910390fd5b5f82118015611a5f57505f83115b611a9e576040517f08c379a0000000000000000000000000000000000000000000000000000000008152600401611a9590612d39565b60405180910390fd5b5f7f000000000000000000000000000000000000000000000000000000000000000073ffffffffffffffffffffffffffffffffffffffff166323b872dd3330866040518463ffffffff1660e01b8152600401611afc93929190612e27565b6020604051808303815f875af1158015611b18573d5f5f3e3d5ffd5b505050506040513d601f19601f82011682018060405250810190611b3c919061291c565b905080611b7e576040517f08c379a0000000000000000000000000000000000000000000000000000000008152600401611b7590612991565b60405180910390fd5b5f60015490505f5f5f8381526020019081526020015f20905033815f015f6101000a81548173ffffffffffffffffffffffffffffffffffffffff021916908373ffffffffffffffffffffffffffffffffffffffff1602179055508060010187908060018154018082558091505060019003905f5260205f20015f9091909190916101000a81548173ffffffffffffffffffffffffffffffffffffffff021916908373ffffffffffffffffffffffffffffffffffffffff16021790555080600201612710908060018154018082558091505060019003905f5260205f20015f9091909190915055806008015f908060018154018082558091505060019003905f5260205f20015f90919091909150558581600301819055508481600401819055504281600501819055508542611cb39190612898565b81600601819055508585611cc79190612868565b81600701819055506001816009015f6101000a81548160ff0219169083151502179055505f8160090160016101000a81548160ff02191690831515021790555060015f815480929190611d1990612e5c565b91905055508673ffffffffffffffffffffffffffffffffffffffff163373ffffffffffffffffffffffffffffffffffffffff16837f3062262d3b7b7b5292387920111bfa3e0597dc070a8f10f1be710f15868c22e0888a604051611d7e929190612f6a565b60405180910390a4819350505050611d94611f09565b9392505050565b5f5f82600601544210611db45782600301549050611dc7565b826005015442611dc491906127c7565b90505b5f836007015482611dd891906127fa565b90505f5f90505b8460010180549050811015611eda578573ffffffffffffffffffffffffffffffffffffffff16856001018281548110611e1b57611e1a612676565b5b905f5260205f20015f9054906101000a900473ffffffffffffffffffffffffffffffffffffffff1673ffffffffffffffffffffffffffffffffffffffff1603611ecd575f612710866002018381548110611e7857611e77612676565b5b905f5260205f20015484611e8c91906127fa565b611e969190612868565b9050856008018281548110611eae57611ead612676565b5b905f5260205f20015481611ec291906127c7565b945050505050611ee1565b8080600101915050611ddf565b505f925050505b92915050565b611eef611f23565b6002611f01611efc611f64565b611f8d565b5f0181905550565b6001611f1b611f16611f64565b611f8d565b5f0181905550565b611f2b611f96565b15611f62576040517f3ee5aeb500000000000000000000000000000000000000000000000000000000815260040160405180910390fd5b565b5f7f9b779b17422d0df92223018b32b4d1fa46e071723d6817e2486d003becc55f005f1b905090565b5f819050919050565b5f6002611fa9611fa4611f64565b611f8d565b5f015414905090565b5f604051905090565b5f5ffd5b5f5ffd5b5f819050919050565b611fd581611fc3565b8114611fdf575f5ffd5b50565b5f81359050611ff081611fcc565b92915050565b5f6020828403121561200b5761200a611fbb565b5b5f61201884828501611fe2565b91505092915050565b61202a81611fc3565b82525050565b5f6020820190506120435f830184612021565b92915050565b5f73ffffffffffffffffffffffffffffffffffffffff82169050919050565b5f61207282612049565b9050919050565b61208281612068565b811461208c575f5ffd5b50565b5f8135905061209d81612079565b92915050565b5f5f604083850312156120b9576120b8611fbb565b5b5f6120c685828601611fe2565b92505060206120d78582860161208f565b9150509250929050565b6120ea81612068565b82525050565b5f8115159050919050565b612104816120f0565b82525050565b5f6101408201905061211e5f83018d6120e1565b61212b602083018c612021565b612138604083018b612021565b612145606083018a612021565b6121526080830189612021565b61215f60a0830188612021565b61216c60c08301876120fb565b61217960e08301866120fb565b612187610100830185612021565b612195610120830184612021565b9b9a5050505050505050505050565b5f5f604083850312156121ba576121b9611fbb565b5b5f6121c785828601611fe2565b92505060206121d885828601611fe2565b9150509250929050565b5f5ffd5b5f601f19601f8301169050919050565b7f4e487b71000000000000000000000000000000000000000000000000000000005f52604160045260245ffd5b61222c826121e6565b810181811067ffffffffffffffff8211171561224b5761224a6121f6565b5b80604052505050565b5f61225d611fb2565b90506122698282612223565b919050565b5f67ffffffffffffffff821115612288576122876121f6565b5b602082029050602081019050919050565b5f5ffd5b5f6122af6122aa8461226e565b612254565b905080838252602082019050602084028301858111156122d2576122d1612299565b5b835b818110156122fb57806122e7888261208f565b8452602084019350506020810190506122d4565b5050509392505050565b5f82601f830112612319576123186121e2565b5b813561232984826020860161229d565b91505092915050565b5f67ffffffffffffffff82111561234c5761234b6121f6565b5b602082029050602081019050919050565b5f61236f61236a84612332565b612254565b9050808382526020820190506020840283018581111561239257612391612299565b5b835b818110156123bb57806123a78882611fe2565b845260208401935050602081019050612394565b5050509392505050565b5f82601f8301126123d9576123d86121e2565b5b81356123e984826020860161235d565b91505092915050565b5f5f5f5f6080858703121561240a57612409611fbb565b5b5f85013567ffffffffffffffff81111561242757612426611fbf565b5b61243387828801612305565b945050602061244487828801611fe2565b935050604061245587828801611fe2565b925050606085013567ffffffffffffffff81111561247657612475611fbf565b5b612482878288016123c5565b91505092959194509250565b5f5f5f606084860312156124a5576124a4611fbb565b5b5f6124b286828701611fe2565b93505060206124c386828701611fe2565b92505060406124d48682870161208f565b9150509250925092565b5f5f5f606084860312156124f5576124f4611fbb565b5b5f6125028682870161208f565b935050602061251386828701611fe2565b925050604061252486828701611fe2565b9150509250925092565b5f82825260208201905092915050565b7f696e76616c696420726563697069656e740000000000000000000000000000005f82015250565b5f61257260118361252e565b915061257d8261253e565b602082019050919050565b5f6020820190508181035f83015261259f81612566565b9050919050565b7f73747265616d20696e61637469766500000000000000000000000000000000005f82015250565b5f6125da600f8361252e565b91506125e5826125a6565b602082019050919050565b5f6020820190508181035f830152612607816125ce565b9050919050565b7f73747265616d20706175736564000000000000000000000000000000000000005f82015250565b5f612642600d8361252e565b915061264d8261260e565b602082019050919050565b5f6020820190508181035f83015261266f81612636565b9050919050565b7f4e487b71000000000000000000000000000000000000000000000000000000005f52603260045260245ffd5b7f63616c6c6572206e6f74206120726563697069656e74000000000000000000005f82015250565b5f6126d760168361252e565b91506126e2826126a3565b602082019050919050565b5f6020820190508181035f830152612704816126cb565b9050919050565b5f60408201905061271e5f8301856120e1565b61272b60208301846120e1565b9392505050565b7f6e6f7420617574686f72697a65640000000000000000000000000000000000005f82015250565b5f612766600e8361252e565b915061277182612732565b602082019050919050565b5f6020820190508181035f8301526127938161275a565b9050919050565b7f4e487b71000000000000000000000000000000000000000000000000000000005f52601160045260245ffd5b5f6127d182611fc3565b91506127dc83611fc3565b92508282039050818111156127f4576127f361279a565b5b92915050565b5f61280482611fc3565b915061280f83611fc3565b925082820261281d81611fc3565b915082820484148315176128345761283361279a565b5b5092915050565b7f4e487b71000000000000000000000000000000000000000000000000000000005f52601260045260245ffd5b5f61287282611fc3565b915061287d83611fc3565b92508261288d5761288c61283b565b5b828204905092915050565b5f6128a282611fc3565b91506128ad83611fc3565b92508282019050808211156128c5576128c461279a565b5b92915050565b5f6040820190506128de5f8301856120e1565b6128eb6020830184612021565b9392505050565b6128fb816120f0565b8114612905575f5ffd5b50565b5f81519050612916816128f2565b92915050565b5f6020828403121561293157612930611fbb565b5b5f61293e84828501612908565b91505092915050565b7f7472616e73666572206661696c656400000000000000000000000000000000005f82015250565b5f61297b600f8361252e565b915061298682612947565b602082019050919050565b5f6020820190508181035f8301526129a88161296f565b9050919050565b7f616c7265616479207061757365640000000000000000000000000000000000005f82015250565b5f6129e3600e8361252e565b91506129ee826129af565b602082019050919050565b5f6020820190508181035f830152612a10816129d7565b9050919050565b7f6f6e6c792073656e6465720000000000000000000000000000000000000000005f82015250565b5f612a4b600b8361252e565b9150612a5682612a17565b602082019050919050565b5f6020820190508181035f830152612a7881612a3f565b9050919050565b7f73747265616d206e6f74207374617274656400000000000000000000000000005f82015250565b5f612ab360128361252e565b9150612abe82612a7f565b602082019050919050565b5f6020820190508181035f830152612ae081612aa7565b9050919050565b7f696e76616c696420616d6f756e740000000000000000000000000000000000005f82015250565b5f612b1b600e8361252e565b9150612b2682612ae7565b602082019050919050565b5f6020820190508181035f830152612b4881612b0f565b9050919050565b7f6578636565647320636c61696d61626c650000000000000000000000000000005f82015250565b5f612b8360118361252e565b9150612b8e82612b4f565b602082019050919050565b5f6020820190508181035f830152612bb081612b77565b9050919050565b7f6e6f7420706175736564000000000000000000000000000000000000000000005f82015250565b5f612beb600a8361252e565b9150612bf682612bb7565b602082019050919050565b5f6020820190508181035f830152612c1881612bdf565b9050919050565b7f6e656564206d756c7469706c6520726563697069656e747300000000000000005f82015250565b5f612c5360188361252e565b9150612c5e82612c1f565b602082019050919050565b5f6020820190508181035f830152612c8081612c47565b9050919050565b7f6172726179206d69736d617463680000000000000000000000000000000000005f82015250565b5f612cbb600e8361252e565b9150612cc682612c87565b602082019050919050565b5f6020820190508181035f830152612ce881612caf565b9050919050565b7f696e76616c696420616d6f756e74206f72206475726174696f6e0000000000005f82015250565b5f612d23601a8361252e565b9150612d2e82612cef565b602082019050919050565b5f6020820190508181035f830152612d5081612d17565b9050919050565b7f6261642070657263656e746167650000000000000000000000000000000000005f82015250565b5f612d8b600e8361252e565b9150612d9682612d57565b602082019050919050565b5f6020820190508181035f830152612db881612d7f565b9050919050565b7f70657263656e7461676573206d7573742073756d20746f2031303030300000005f82015250565b5f612df3601d8361252e565b9150612dfe82612dbf565b602082019050919050565b5f6020820190508181035f830152612e2081612de7565b9050919050565b5f606082019050612e3a5f8301866120e1565b612e4760208301856120e1565b612e546040830184612021565b949350505050565b5f612e6682611fc3565b91507fffffffffffffffffffffffffffffffffffffffffffffffffffffffffffffffff8203612e9857612e9761279a565b5b600182019050919050565b5f81519050919050565b5f81905092915050565b5f819050602082019050919050565b612ecf81612068565b82525050565b5f612ee08383612ec6565b60208301905092915050565b5f602082019050919050565b5f612f0282612ea3565b612f0c8185612ead565b9350612f1783612eb7565b805f5b83811015612f47578151612f2e8882612ed5565b9750612f3983612eec565b925050600181019050612f1a565b5085935050505092915050565b5f612f5f8284612ef8565b915081905092915050565b5f604082019050612f7d5f830185612021565b612f8a6020830184612021565b939250505056fea2646970667358221220e84f115cc5d17338a016425306b70f1dee23d5abb89822d6a0a0096a028bfbef64736f6c634300081e0033","linkReferences":{}},"methodIdentifiers":{"cancelStream(uint256)":"6db9241b","createMultipleStreams(address[],uint256,uint256,uint256[])":"b8cd9587","createStream(address,uint256,uint256)":"cd9e3fe8","getClaimableFunds(uint256)":"1d2f7ee4","pauseStream(uint256)":"746ff13d","redirectClaimsRecipient(uint256,address)":"585c8ae4","streams(uint256)":"64d60d91","transferClaimsToAddress(uint256,uint256,address)":"b92554b1","unPauseStream(uint256)":"a6f55bbe","withdrawFromStream(uint256,uint256)":"7a9b2c6c"},"id":26}