{"abi":[{"type":"constructor","inputs":[{"name":"_usdtAddress","type":"address","internalType":"address"}],"stateMutability":"nonpayable"},{"type":"function","name":"cancelStream","inputs":[{"name":"_streamId","type":"uint256","internalType":"uint256"}],"outputs":[],"stateMutability":"nonpayable"},{"type":"function","name":"createMultipleStreams","inputs":[{"name":"_recipients","type":"address[]","internalType":"address[]"},{"name":"_duration","type":"uint256","internalType":"uint256"},{"name":"_amount","type":"uint256","internalType":"uint256"},{"name":"_percentages","type":"uint256[]","internalType":"uint256[]"},{"name":"_message","type":"string","internalType":"string"}],"outputs":[{"name":"","type":"uint256","internalType":"uint256"}],"stateMutability":"nonpayable"},{"type":"function","name":"createStream","inputs":[{"name":"_recipient","type":"address","internalType":"address"},{"name":"_duration","type":"uint256","internalType":"uint256"},{"name":"_amount","type":"uint256","internalType":"uint256"},{"name":"_message","type":"string","internalType":"string"}],"outputs":[{"name":"","type":"uint256","internalType":"uint256"}],"stateMutability":"nonpayable"},{"type":"function","name":"getClaimableBalance","inputs":[{"name":"streamId","type":"uint256","internalType":"uint256"}],"outputs":[{"name":"","type":"uint256","internalType":"uint256"}],"stateMutability":"view"},{"type":"function","name":"getClaimableFunds","inputs":[{"name":"_streamId","type":"uint256","internalType":"uint256"}],"outputs":[{"name":"","type":"uint256","internalType":"uint256"}],"stateMutability":"view"},{"type":"function","name":"getStreamArrays","inputs":[{"name":"streamId","type":"uint256","internalType":"uint256"}],"outputs":[{"name":"recipients","type":"address[]","internalType":"address[]"},{"name":"percentages","type":"uint256[]","internalType":"uint256[]"},{"name":"withdrawn","type":"uint256[]","internalType":"uint256[]"}],"stateMutability":"view"},{"type":"function","name":"getStreamsByRecipient","inputs":[{"name":"user","type":"address","internalType":"address"}],"outputs":[{"name":"","type":"uint256[]","internalType":"uint256[]"}],"stateMutability":"view"},{"type":"function","name":"getStreamsBySender","inputs":[{"name":"user","type":"address","internalType":"address"}],"outputs":[{"name":"","type":"uint256[]","internalType":"uint256[]"}],"stateMutability":"view"},{"type":"function","name":"pauseStream","inputs":[{"name":"_streamId","type":"uint256","internalType":"uint256"}],"outputs":[],"stateMutability":"nonpayable"},{"type":"function","name":"redirectClaimsRecipient","inputs":[{"name":"_streamId","type":"uint256","internalType":"uint256"},{"name":"_newRecipient","type":"address","internalType":"address"}],"outputs":[],"stateMutability":"nonpayable"},{"type":"function","name":"streams","inputs":[{"name":"","type":"uint256","internalType":"uint256"}],"outputs":[{"name":"id","type":"uint256","internalType":"uint256"},{"name":"sender","type":"address","internalType":"address"},{"name":"message","type":"string","internalType":"string"},{"name":"duration","type":"uint256","internalType":"uint256"},{"name":"amount","type":"uint256","internalType":"uint256"},{"name":"startTime","type":"uint256","internalType":"uint256"},{"name":"endTime","type":"uint256","internalType":"uint256"},{"name":"flowRate","type":"uint256","internalType":"uint256"},{"name":"active","type":"bool","internalType":"bool"},{"name":"paused","type":"bool","internalType":"bool"},{"name":"pausedAt","type":"uint256","internalType":"uint256"},{"name":"totalPausedDuration","type":"uint256","internalType":"uint256"}],"stateMutability":"view"},{"type":"function","name":"streamsByRecipient","inputs":[{"name":"","type":"address","internalType":"address"},{"name":"","type":"uint256","internalType":"uint256"}],"outputs":[{"name":"","type":"uint256","internalType":"uint256"}],"stateMutability":"view"},{"type":"function","name":"streamsBySender","inputs":[{"name":"","type":"address","internalType":"address"},{"name":"","type":"uint256","internalType":"uint256"}],"outputs":[{"name":"","type":"uint256","internalType":"uint256"}],"stateMutability":"view"},{"type":"function","name":"transferClaimsToAddress","inputs":[{"name":"_streamId","type":"uint256","internalType":"uint256"},{"name":"_amount","type":"uint256","internalType":"uint256"},{"name":"_receiver","type":"address","internalType":"address"}],"outputs":[],"stateMutability":"nonpayable"},{"type":"function","name":"unPauseStream","inputs":[{"name":"_streamId","type":"uint256","internalType":"uint256"}],"outputs":[],"stateMutability":"nonpayable"},{"type":"function","name":"withdrawFromStream","inputs":[{"name":"_streamId","type":"uint256","internalType":"uint256"},{"name":"_amount","type":"uint256","internalType":"uint256"}],"outputs":[],"stateMutability":"nonpayable"},{"type":"event","name":"ClaimsTransferred","inputs":[{"name":"id","type":"uint256","indexed":true,"internalType":"uint256"},{"name":"to","type":"address","indexed":true,"internalType":"address"},{"name":"amount","type":"uint256","indexed":false,"internalType":"uint256"}],"anonymous":false},{"type":"event","name":"StreamCancelled","inputs":[{"name":"id","type":"uint256","indexed":true,"internalType":"uint256"}],"anonymous":false},{"type":"event","name":"StreamCreated","inputs":[{"name":"id","type":"uint256","indexed":true,"internalType":"uint256"},{"name":"sender","type":"address","indexed":true,"internalType":"address"},{"name":"amount","type":"uint256","indexed":false,"internalType":"uint256"},{"name":"duration","type":"uint256","indexed":false,"internalType":"uint256"}],"anonymous":false},{"type":"event","name":"StreamPaused","inputs":[{"name":"id","type":"uint256","indexed":true,"internalType":"uint256"}],"anonymous":false},{"type":"event","name":"StreamRecipient","inputs":[{"name":"id","type":"uint256","indexed":true,"internalType":"uint256"},{"name":"recipient","type":"address","indexed":true,"internalType":"address"},{"name":"percentage","type":"uint256","indexed":false,"internalType":"uint256"}],"anonymous":false},{"type":"event","name":"StreamRedirected","inputs":[{"name":"id","type":"uint256","indexed":true,"internalType":"uint256"},{"name":"oldRecipient","type":"address","indexed":true,"internalType":"address"},{"name":"newRecipient","type":"address","indexed":true,"internalType":"address"}],"anonymous":false},{"type":"event","name":"StreamUnpaused","inputs":[{"name":"id","type":"uint256","indexed":true,"internalType":"uint256"}],"anonymous":false},{"type":"event","name":"WithdrawFromStream","inputs":[{"name":"id","type":"uint256","indexed":true,"internalType":"uint256"},{"name":"recipient","type":"address","indexed":true,"internalType":"address"},{"name":"amount","type":"uint256","indexed":false,"internalType":"uint256"}],"anonymous":false},{"type":"error","name":"ReentrancyGuardReentrantCall","inputs":[]}],"bytecode":{"object":"0x60a060405260015f55348015610013575f5ffd5b506040516140b43803806140b483398181016040528101906100359190610191565b600161005361004861010160201b60201c565b61012a60201b60201c565b5f01819055505f73ffffffffffffffffffffffffffffffffffffffff168173ffffffffffffffffffffffffffffffffffffffff16036100c7576040517f08c379a00000000000000000000000000000000000000000000000000000000081526004016100be90610216565b60405180910390fd5b8073ffffffffffffffffffffffffffffffffffffffff1660808173ffffffffffffffffffffffffffffffffffffffff168152505050610234565b5f7f9b779b17422d0df92223018b32b4d1fa46e071723d6817e2486d003becc55f005f1b905090565b5f819050919050565b5f5ffd5b5f73ffffffffffffffffffffffffffffffffffffffff82169050919050565b5f61016082610137565b9050919050565b61017081610156565b811461017a575f5ffd5b50565b5f8151905061018b81610167565b92915050565b5f602082840312156101a6576101a5610133565b5b5f6101b38482850161017d565b91505092915050565b5f82825260208201905092915050565b7f496e76616c6964205553445420616464726573730000000000000000000000005f82015250565b5f6102006014836101bc565b915061020b826101cc565b602082019050919050565b5f6020820190508181035f83015261022d816101f4565b9050919050565b608051613e4561026f5f395f81816109e401528181610b2c01528181611062015281816119a701528181611cca01526122be0152613e455ff3fe608060405234801561000f575f5ffd5b50600436106100fe575f3560e01c806393866b9011610095578063b92554b111610064578063b92554b1146102eb578063cc3cfc0514610307578063d0555c1114610337578063dee04a7214610367576100fe565b806393866b901461023d57806398c49e451461026f578063a4424d5a1461029f578063a6f55bbe146102cf576100fe565b80636db9241b116100d15780636db9241b146101b9578063746ff13d146101d55780637a9b2c6c146101f15780637c7e10af1461020d576100fe565b80631d2f7ee4146101025780634e8cb61514610132578063585c8ae41461016257806364d60d911461017e575b5f5ffd5b61011c600480360381019061011791906128d1565b610397565b604051610129919061290b565b60405180910390f35b61014c6004803603810190610147919061297e565b6103c3565b604051610159919061290b565b60405180910390f35b61017c600480360381019061017791906129bc565b6103ee565b005b610198600480360381019061019391906128d1565b6106ae565b6040516101b09c9b9a99989796959493929190612a93565b60405180910390f35b6101d360048036038101906101ce91906128d1565b6107c8565b005b6101ef60048036038101906101ea91906128d1565b610c69565b005b61020b60048036038101906102069190612b52565b610dfe565b005b61022760048036038101906102229190612b90565b61119b565b6040516102349190612c72565b60405180910390f35b610257600480360381019061025291906128d1565b61122e565b60405161026693929190612d49565b60405180910390f35b61028960048036038101906102849190612b90565b611386565b6040516102969190612c72565b60405180910390f35b6102b960048036038101906102b491906128d1565b611419565b6040516102c6919061290b565b60405180910390f35b6102e960048036038101906102e491906128d1565b6115b8565b005b61030560048036038101906103009190612d93565b61174b565b005b610321600480360381019061031c919061297e565b611ad9565b60405161032e919061290b565b60405180910390f35b610351600480360381019061034c9190613093565b611b04565b60405161035e919061290b565b60405180910390f35b610381600480360381019061037c919061315e565b6121f7565b60405161038e919061290b565b60405180910390f35b5f5f60015f8481526020019081526020015f2090505f6103b73383612676565b90508092505050919050565b6002602052815f5260405f2081815481106103dc575f80fd5b905f5260205f20015f91509150505481565b5f73ffffffffffffffffffffffffffffffffffffffff168173ffffffffffffffffffffffffffffffffffffffff160361045c576040517f08c379a000000000000000000000000000000000000000000000000000000000815260040161045390613228565b60405180910390fd5b5f60015f8481526020019081526020015f20905080600b015f9054906101000a900460ff166104c0576040517f08c379a00000000000000000000000000000000000000000000000000000000081526004016104b790613290565b60405180910390fd5b80600b0160019054906101000a900460ff1615610512576040517f08c379a0000000000000000000000000000000000000000000000000000000008152600401610509906132f8565b60405180910390fd5b5f5f90505f5f90505b826003018054905081101561060c573373ffffffffffffffffffffffffffffffffffffffff1683600301828154811061055757610556613316565b5b905f5260205f20015f9054906101000a900473ffffffffffffffffffffffffffffffffffffffff1673ffffffffffffffffffffffffffffffffffffffff16036105ff57838360030182815481106105b1576105b0613316565b5b905f5260205f20015f6101000a81548173ffffffffffffffffffffffffffffffffffffffff021916908373ffffffffffffffffffffffffffffffffffffffff1602179055506001915061060c565b808060010191505061051b565b508061064d576040517f08c379a00000000000000000000000000000000000000000000000000000000081526004016106449061338d565b60405180910390fd5b8273ffffffffffffffffffffffffffffffffffffffff163373ffffffffffffffffffffffffffffffffffffffff16857f0f81a452435213495f5eb594ea69c07fb66cb271c8c2b57e4e89b44abf6654a160405160405180910390a450505050565b6001602052805f5260405f205f91509050805f015490806001015f9054906101000a900473ffffffffffffffffffffffffffffffffffffffff16908060020180546106f8906133d8565b80601f0160208091040260200160405190810160405280929190818152602001828054610724906133d8565b801561076f5780601f106107465761010080835404028352916020019161076f565b820191905f5260205f20905b81548152906001019060200180831161075257829003601f168201915b50505050509080600501549080600601549080600701549080600801549080600901549080600b015f9054906101000a900460ff169080600b0160019054906101000a900460ff169080600c01549080600d015490508c565b6107d06127c2565b5f60015f8381526020019081526020015f20905080600b015f9054906101000a900460ff16610834576040517f08c379a000000000000000000000000000000000000000000000000000000000815260040161082b90613290565b60405180910390fd5b5f816001015f9054906101000a900473ffffffffffffffffffffffffffffffffffffffff1673ffffffffffffffffffffffffffffffffffffffff163373ffffffffffffffffffffffffffffffffffffffff16149050806108c9576040517f08c379a00000000000000000000000000000000000000000000000000000000081526004016108c090613452565b60405180910390fd5b5f82600b015f6101000a81548160ff0219169083151502179055505f826008015442101561090657826007015442610901919061349d565b61090c565b82600501545b90505f83600901548261091f91906134d0565b90504284600801819055505f5f90505b8460030180549050811015610b0d575f61271086600401838154811061095857610957613316565b5b905f5260205f2001548461096c91906134d0565b610976919061353e565b90505f86600a01838154811061098f5761098e613316565b5b905f5260205f200154826109a3919061349d565b90505f811115610afe578087600a0184815481106109c4576109c3613316565b5b905f5260205f20015f8282546109da919061356e565b925050819055505f7f000000000000000000000000000000000000000000000000000000000000000073ffffffffffffffffffffffffffffffffffffffff1663a9059cbb896003018681548110610a3457610a33613316565b5b905f5260205f20015f9054906101000a900473ffffffffffffffffffffffffffffffffffffffff16846040518363ffffffff1660e01b8152600401610a7a9291906135a1565b6020604051808303815f875af1158015610a96573d5f5f3e3d5ffd5b505050506040513d601f19601f82011682018060405250810190610aba91906135f2565b905080610afc576040517f08c379a0000000000000000000000000000000000000000000000000000000008152600401610af390613667565b60405180910390fd5b505b5050808060010191505061092f565b505f818560060154610b1f919061349d565b90505f811115610c2c575f7f000000000000000000000000000000000000000000000000000000000000000073ffffffffffffffffffffffffffffffffffffffff1663a9059cbb876001015f9054906101000a900473ffffffffffffffffffffffffffffffffffffffff16846040518363ffffffff1660e01b8152600401610ba89291906135a1565b6020604051808303815f875af1158015610bc4573d5f5f3e3d5ffd5b505050506040513d601f19601f82011682018060405250810190610be891906135f2565b905080610c2a576040517f08c379a0000000000000000000000000000000000000000000000000000000008152600401610c2190613667565b60405180910390fd5b505b857f75b8c91e46f219f2164d6bce576e7cebd2d3ff8749726009fcafdf04e2e1eb7b60405160405180910390a25050505050610c666127e4565b50565b5f60015f8381526020019081526020015f20905080600b015f9054906101000a900460ff16610ccd576040517f08c379a0000000000000000000000000000000000000000000000000000000008152600401610cc490613290565b60405180910390fd5b80600b0160019054906101000a900460ff1615610d1f576040517f08c379a0000000000000000000000000000000000000000000000000000000008152600401610d16906136cf565b60405180910390fd5b806001015f9054906101000a900473ffffffffffffffffffffffffffffffffffffffff1673ffffffffffffffffffffffffffffffffffffffff163373ffffffffffffffffffffffffffffffffffffffff1614610db0576040517f08c379a0000000000000000000000000000000000000000000000000000000008152600401610da790613737565b60405180910390fd5b600181600b0160016101000a81548160ff021916908315150217905550817fc1e14ec692cfc1a89cae539cb884be8d7cc39fd7a129fd73e0d59895fe48d2b860405160405180910390a25050565b610e066127c2565b5f60015f8481526020019081526020015f20905080600b015f9054906101000a900460ff16610e6a576040517f08c379a0000000000000000000000000000000000000000000000000000000008152600401610e6190613290565b60405180910390fd5b80600b0160019054906101000a900460ff1615610ebc576040517f08c379a0000000000000000000000000000000000000000000000000000000008152600401610eb3906132f8565b60405180910390fd5b80600701544211610f02576040517f08c379a0000000000000000000000000000000000000000000000000000000008152600401610ef99061379f565b60405180910390fd5b5f610f0d3383612676565b90505f8311610f51576040517f08c379a0000000000000000000000000000000000000000000000000000000008152600401610f4890613807565b60405180910390fd5b80831115610f94576040517f08c379a0000000000000000000000000000000000000000000000000000000008152600401610f8b9061386f565b60405180910390fd5b5f5f90505b826003018054905081101561105e573373ffffffffffffffffffffffffffffffffffffffff16836003018281548110610fd557610fd4613316565b5b905f5260205f20015f9054906101000a900473ffffffffffffffffffffffffffffffffffffffff1673ffffffffffffffffffffffffffffffffffffffff1603611051578383600a01828154811061102f5761102e613316565b5b905f5260205f20015f828254611045919061356e565b9250508190555061105e565b8080600101915050610f99565b505f7f000000000000000000000000000000000000000000000000000000000000000073ffffffffffffffffffffffffffffffffffffffff1663a9059cbb33866040518363ffffffff1660e01b81526004016110bb9291906135a1565b6020604051808303815f875af11580156110d7573d5f5f3e3d5ffd5b505050506040513d601f19601f820116820180604052508101906110fb91906135f2565b90508061113d576040517f08c379a000000000000000000000000000000000000000000000000000000000815260040161113490613667565b60405180910390fd5b3373ffffffffffffffffffffffffffffffffffffffff16857f36c3ab437e6a424ed25dc4bfdeb62706aa06558660fab2dab229d2555adaf89c86604051611184919061290b565b60405180910390a35050506111976127e4565b5050565b606060025f8373ffffffffffffffffffffffffffffffffffffffff1673ffffffffffffffffffffffffffffffffffffffff1681526020019081526020015f2080548060200260200160405190810160405280929190818152602001828054801561122257602002820191905f5260205f20905b81548152602001906001019080831161120e575b50505050509050919050565b60608060605f60015f8681526020019081526020015f209050806003018160040182600a01828054806020026020016040519081016040528092919081815260200182805480156112d157602002820191905f5260205f20905b815f9054906101000a900473ffffffffffffffffffffffffffffffffffffffff1673ffffffffffffffffffffffffffffffffffffffff1681526020019060010190808311611288575b505050505092508180548060200260200160405190810160405280929190818152602001828054801561132157602002820191905f5260205f20905b81548152602001906001019080831161130d575b505050505091508080548060200260200160405190810160405280929190818152602001828054801561137157602002820191905f5260205f20905b81548152602001906001019080831161135d575b50505050509050935093509350509193909250565b606060035f8373ffffffffffffffffffffffffffffffffffffffff1673ffffffffffffffffffffffffffffffffffffffff1681526020019081526020015f2080548060200260200160405190810160405280929190818152602001828054801561140d57602002820191905f5260205f20905b8154815260200190600101908083116113f9575b50505050509050919050565b5f5f60015f8481526020019081526020015f20905080600b015f9054906101000a900460ff1661144c575f9150506115b3565b80600b0160019054906101000a900460ff161561146c575f9150506115b3565b5f816008015442106114845781600501549050611497565b816007015442611494919061349d565b90505b5f8260090154826114a891906134d0565b90505f5f90505b83600301805490508110156115ab573373ffffffffffffffffffffffffffffffffffffffff168460030182815481106114eb576114ea613316565b5b905f5260205f20015f9054906101000a900473ffffffffffffffffffffffffffffffffffffffff1673ffffffffffffffffffffffffffffffffffffffff160361159e575f61271085600401838154811061154857611547613316565b5b905f5260205f2001548461155c91906134d0565b611566919061353e565b905084600a01828154811061157e5761157d613316565b5b905f5260205f20015481611592919061349d565b955050505050506115b3565b80806001019150506114af565b505f93505050505b919050565b5f60015f8381526020019081526020015f20905080600b015f9054906101000a900460ff1661161c576040517f08c379a000000000000000000000000000000000000000000000000000000000815260040161161390613290565b60405180910390fd5b80600b0160019054906101000a900460ff1661166d576040517f08c379a0000000000000000000000000000000000000000000000000000000008152600401611664906138d7565b60405180910390fd5b806001015f9054906101000a900473ffffffffffffffffffffffffffffffffffffffff1673ffffffffffffffffffffffffffffffffffffffff163373ffffffffffffffffffffffffffffffffffffffff16146116fe576040517f08c379a00000000000000000000000000000000000000000000000000000000081526004016116f590613737565b60405180910390fd5b5f81600b0160016101000a81548160ff021916908315150217905550817f1596c7c03ad2a3ba0ace554b73f0d4cabac8f60ebba723b7f501aa9697f673e960405160405180910390a25050565b5f60015f8581526020019081526020015f20905080600b015f9054906101000a900460ff166117af576040517f08c379a00000000000000000000000000000000000000000000000000000000081526004016117a690613290565b60405180910390fd5b80600b0160019054906101000a900460ff1615611801576040517f08c379a00000000000000000000000000000000000000000000000000000000081526004016117f8906132f8565b60405180910390fd5b80600701544211611847576040517f08c379a000000000000000000000000000000000000000000000000000000000815260040161183e9061379f565b60405180910390fd5b5f6118523383612676565b90505f8411611896576040517f08c379a000000000000000000000000000000000000000000000000000000000815260040161188d90613807565b60405180910390fd5b808411156118d9576040517f08c379a00000000000000000000000000000000000000000000000000000000081526004016118d09061386f565b60405180910390fd5b5f5f90505b82600301805490508110156119a3573373ffffffffffffffffffffffffffffffffffffffff1683600301828154811061191a57611919613316565b5b905f5260205f20015f9054906101000a900473ffffffffffffffffffffffffffffffffffffffff1673ffffffffffffffffffffffffffffffffffffffff1603611996578483600a01828154811061197457611973613316565b5b905f5260205f20015f82825461198a919061356e565b925050819055506119a3565b80806001019150506118de565b505f7f000000000000000000000000000000000000000000000000000000000000000073ffffffffffffffffffffffffffffffffffffffff1663a9059cbb85876040518363ffffffff1660e01b8152600401611a009291906135a1565b6020604051808303815f875af1158015611a1c573d5f5f3e3d5ffd5b505050506040513d601f19601f82011682018060405250810190611a4091906135f2565b905080611a82576040517f08c379a0000000000000000000000000000000000000000000000000000000008152600401611a7990613667565b60405180910390fd5b8373ffffffffffffffffffffffffffffffffffffffff16867ffc170a5b9f226b178db20055cd172a977ad897453b2959bdcdb491bb9f79522d87604051611ac9919061290b565b60405180910390a3505050505050565b6003602052815f5260405f208181548110611af2575f80fd5b905f5260205f20015f91509150505481565b5f611b0d6127c2565b6001865111611b51576040517f08c379a0000000000000000000000000000000000000000000000000000000008152600401611b489061393f565b60405180910390fd5b8251865114611b95576040517f08c379a0000000000000000000000000000000000000000000000000000000008152600401611b8c906139a7565b60405180910390fd5b5f84118015611ba357505f85115b611be2576040517f08c379a0000000000000000000000000000000000000000000000000000000008152600401611bd990613a0f565b60405180910390fd5b5f5f5f90505b8451811015611c82575f858281518110611c0557611c04613316565b5b602002602001015111611c4d576040517f08c379a0000000000000000000000000000000000000000000000000000000008152600401611c4490613a77565b60405180910390fd5b848181518110611c6057611c5f613316565b5b602002602001015182611c73919061356e565b91508080600101915050611be8565b506127108114611cc7576040517f08c379a0000000000000000000000000000000000000000000000000000000008152600401611cbe90613adf565b60405180910390fd5b5f7f000000000000000000000000000000000000000000000000000000000000000073ffffffffffffffffffffffffffffffffffffffff166323b872dd3330896040518463ffffffff1660e01b8152600401611d2593929190613afd565b6020604051808303815f875af1158015611d41573d5f5f3e3d5ffd5b505050506040513d601f19601f82011682018060405250810190611d6591906135f2565b905080611da7576040517f08c379a0000000000000000000000000000000000000000000000000000000008152600401611d9e90613667565b60405180910390fd5b5f5f5490505f60015f8381526020019081526020015f2090505f5f90505b8a51811015612047575f73ffffffffffffffffffffffffffffffffffffffff168b8281518110611df857611df7613316565b5b602002602001015173ffffffffffffffffffffffffffffffffffffffff1603611e56576040517f08c379a0000000000000000000000000000000000000000000000000000000008152600401611e4d90613228565b60405180910390fd5b816003018b8281518110611e6d57611e6c613316565b5b6020026020010151908060018154018082558091505060019003905f5260205f20015f9091909190916101000a81548173ffffffffffffffffffffffffffffffffffffffff021916908373ffffffffffffffffffffffffffffffffffffffff16021790555081600401888281518110611ee957611ee8613316565b5b6020026020010151908060018154018082558091505060019003905f5260205f20015f909190919091505581600a015f908060018154018082558091505060019003905f5260205f20015f909190919091505560035f8c8381518110611f5257611f51613316565b5b602002602001015173ffffffffffffffffffffffffffffffffffffffff1673ffffffffffffffffffffffffffffffffffffffff1681526020019081526020015f2083908060018154018082558091505060019003905f5260205f20015f90919091909150558a8181518110611fca57611fc9613316565b5b602002602001015173ffffffffffffffffffffffffffffffffffffffff16837f36c8c364d3add8a80edb09b638d7bdd81a77e5a498255d6edf53ed891bf806ab8a848151811061201d5761201c613316565b5b6020026020010151604051612032919061290b565b60405180910390a38080600101915050611dc5565b5033816001015f6101000a81548173ffffffffffffffffffffffffffffffffffffffff021916908373ffffffffffffffffffffffffffffffffffffffff16021790555088816005018190555087816006018190555042816007018190555088426120b1919061356e565b816008018190555088886120c5919061353e565b8160090181905550600181600b015f6101000a81548160ff0219169083151502179055505f81600b0160016101000a81548160ff021916908315150217905550858160020190816121169190613cd2565b505f5f81548092919061212890613da1565b919050555060025f3373ffffffffffffffffffffffffffffffffffffffff1673ffffffffffffffffffffffffffffffffffffffff1681526020019081526020015f2082908060018154018082558091505060019003905f5260205f20015f90919091909150553373ffffffffffffffffffffffffffffffffffffffff16827fe182e2dc0f9d78c65c0a90f042f4e89439fc8badf149f1bfaad7ed3f4e534ebc8a8c6040516121d7929190613de8565b60405180910390a3819450505050506121ee6127e4565b95945050505050565b5f6122006127c2565b5f73ffffffffffffffffffffffffffffffffffffffff168573ffffffffffffffffffffffffffffffffffffffff160361226e576040517f08c379a000000000000000000000000000000000000000000000000000000000815260040161226590613228565b60405180910390fd5b5f8311801561227c57505f84115b6122bb576040517f08c379a00000000000000000000000000000000000000000000000000000000081526004016122b290613a0f565b60405180910390fd5b5f7f000000000000000000000000000000000000000000000000000000000000000073ffffffffffffffffffffffffffffffffffffffff166323b872dd3330876040518463ffffffff1660e01b815260040161231993929190613afd565b6020604051808303815f875af1158015612335573d5f5f3e3d5ffd5b505050506040513d601f19601f8201168201806040525081019061235991906135f2565b90508061239b576040517f08c379a000000000000000000000000000000000000000000000000000000000815260040161239290613667565b60405180910390fd5b5f5f5490505f60015f8381526020019081526020015f20905033816001015f6101000a81548173ffffffffffffffffffffffffffffffffffffffff021916908373ffffffffffffffffffffffffffffffffffffffff1602179055508060030188908060018154018082558091505060019003905f5260205f20015f9091909190916101000a81548173ffffffffffffffffffffffffffffffffffffffff021916908373ffffffffffffffffffffffffffffffffffffffff16021790555080600401612710908060018154018082558091505060019003905f5260205f20015f909190919091505580600a015f908060018154018082558091505060019003905f5260205f20015f909190919091505586816005018190555085816006018190555042816007018190555086426124d1919061356e565b816008018190555086866124e5919061353e565b8160090181905550600181600b015f6101000a81548160ff0219169083151502179055505f81600b0160016101000a81548160ff021916908315150217905550848160020190816125369190613cd2565b505f5f81548092919061254890613da1565b919050555060025f3373ffffffffffffffffffffffffffffffffffffffff1673ffffffffffffffffffffffffffffffffffffffff1681526020019081526020015f2082908060018154018082558091505060019003905f5260205f20015f909190919091505560035f8973ffffffffffffffffffffffffffffffffffffffff1673ffffffffffffffffffffffffffffffffffffffff1681526020019081526020015f2082908060018154018082558091505060019003905f5260205f20015f90919091909150553373ffffffffffffffffffffffffffffffffffffffff16827fe182e2dc0f9d78c65c0a90f042f4e89439fc8badf149f1bfaad7ed3f4e534ebc888a604051612658929190613de8565b60405180910390a381935050505061266e6127e4565b949350505050565b5f5f8260080154421061268f57826005015490506126a2565b82600701544261269f919061349d565b90505b5f8360090154826126b391906134d0565b90505f5f90505b84600301805490508110156127b5578573ffffffffffffffffffffffffffffffffffffffff168560030182815481106126f6576126f5613316565b5b905f5260205f20015f9054906101000a900473ffffffffffffffffffffffffffffffffffffffff1673ffffffffffffffffffffffffffffffffffffffff16036127a8575f61271086600401838154811061275357612752613316565b5b905f5260205f2001548461276791906134d0565b612771919061353e565b905085600a01828154811061278957612788613316565b5b905f5260205f2001548161279d919061349d565b9450505050506127bc565b80806001019150506126ba565b505f925050505b92915050565b6127ca6127fe565b60026127dc6127d761283f565b612868565b5f0181905550565b60016127f66127f161283f565b612868565b5f0181905550565b612806612871565b1561283d576040517f3ee5aeb500000000000000000000000000000000000000000000000000000000815260040160405180910390fd5b565b5f7f9b779b17422d0df92223018b32b4d1fa46e071723d6817e2486d003becc55f005f1b905090565b5f819050919050565b5f600261288461287f61283f565b612868565b5f015414905090565b5f604051905090565b5f5ffd5b5f5ffd5b5f819050919050565b6128b08161289e565b81146128ba575f5ffd5b50565b5f813590506128cb816128a7565b92915050565b5f602082840312156128e6576128e5612896565b5b5f6128f3848285016128bd565b91505092915050565b6129058161289e565b82525050565b5f60208201905061291e5f8301846128fc565b92915050565b5f73ffffffffffffffffffffffffffffffffffffffff82169050919050565b5f61294d82612924565b9050919050565b61295d81612943565b8114612967575f5ffd5b50565b5f8135905061297881612954565b92915050565b5f5f6040838503121561299457612993612896565b5b5f6129a18582860161296a565b92505060206129b2858286016128bd565b9150509250929050565b5f5f604083850312156129d2576129d1612896565b5b5f6129df858286016128bd565b92505060206129f08582860161296a565b9150509250929050565b612a0381612943565b82525050565b5f81519050919050565b5f82825260208201905092915050565b8281835e5f83830152505050565b5f601f19601f8301169050919050565b5f612a4b82612a09565b612a558185612a13565b9350612a65818560208601612a23565b612a6e81612a31565b840191505092915050565b5f8115159050919050565b612a8d81612a79565b82525050565b5f61018082019050612aa75f83018f6128fc565b612ab4602083018e6129fa565b8181036040830152612ac6818d612a41565b9050612ad5606083018c6128fc565b612ae2608083018b6128fc565b612aef60a083018a6128fc565b612afc60c08301896128fc565b612b0960e08301886128fc565b612b17610100830187612a84565b612b25610120830186612a84565b612b336101408301856128fc565b612b416101608301846128fc565b9d9c50505050505050505050505050565b5f5f60408385031215612b6857612b67612896565b5b5f612b75858286016128bd565b9250506020612b86858286016128bd565b9150509250929050565b5f60208284031215612ba557612ba4612896565b5b5f612bb28482850161296a565b91505092915050565b5f81519050919050565b5f82825260208201905092915050565b5f819050602082019050919050565b612bed8161289e565b82525050565b5f612bfe8383612be4565b60208301905092915050565b5f602082019050919050565b5f612c2082612bbb565b612c2a8185612bc5565b9350612c3583612bd5565b805f5b83811015612c65578151612c4c8882612bf3565b9750612c5783612c0a565b925050600181019050612c38565b5085935050505092915050565b5f6020820190508181035f830152612c8a8184612c16565b905092915050565b5f81519050919050565b5f82825260208201905092915050565b5f819050602082019050919050565b612cc481612943565b82525050565b5f612cd58383612cbb565b60208301905092915050565b5f602082019050919050565b5f612cf782612c92565b612d018185612c9c565b9350612d0c83612cac565b805f5b83811015612d3c578151612d238882612cca565b9750612d2e83612ce1565b925050600181019050612d0f565b5085935050505092915050565b5f6060820190508181035f830152612d618186612ced565b90508181036020830152612d758185612c16565b90508181036040830152612d898184612c16565b9050949350505050565b5f5f5f60608486031215612daa57612da9612896565b5b5f612db7868287016128bd565b9350506020612dc8868287016128bd565b9250506040612dd98682870161296a565b9150509250925092565b5f5ffd5b7f4e487b71000000000000000000000000000000000000000000000000000000005f52604160045260245ffd5b612e1d82612a31565b810181811067ffffffffffffffff82111715612e3c57612e3b612de7565b5b80604052505050565b5f612e4e61288d565b9050612e5a8282612e14565b919050565b5f67ffffffffffffffff821115612e7957612e78612de7565b5b602082029050602081019050919050565b5f5ffd5b5f612ea0612e9b84612e5f565b612e45565b90508083825260208201905060208402830185811115612ec357612ec2612e8a565b5b835b81811015612eec5780612ed8888261296a565b845260208401935050602081019050612ec5565b5050509392505050565b5f82601f830112612f0a57612f09612de3565b5b8135612f1a848260208601612e8e565b91505092915050565b5f67ffffffffffffffff821115612f3d57612f3c612de7565b5b602082029050602081019050919050565b5f612f60612f5b84612f23565b612e45565b90508083825260208201905060208402830185811115612f8357612f82612e8a565b5b835b81811015612fac5780612f9888826128bd565b845260208401935050602081019050612f85565b5050509392505050565b5f82601f830112612fca57612fc9612de3565b5b8135612fda848260208601612f4e565b91505092915050565b5f5ffd5b5f67ffffffffffffffff82111561300157613000612de7565b5b61300a82612a31565b9050602081019050919050565b828183375f83830152505050565b5f61303761303284612fe7565b612e45565b90508281526020810184848401111561305357613052612fe3565b5b61305e848285613017565b509392505050565b5f82601f83011261307a57613079612de3565b5b813561308a848260208601613025565b91505092915050565b5f5f5f5f5f60a086880312156130ac576130ab612896565b5b5f86013567ffffffffffffffff8111156130c9576130c861289a565b5b6130d588828901612ef6565b95505060206130e6888289016128bd565b94505060406130f7888289016128bd565b935050606086013567ffffffffffffffff8111156131185761311761289a565b5b61312488828901612fb6565b925050608086013567ffffffffffffffff8111156131455761314461289a565b5b61315188828901613066565b9150509295509295909350565b5f5f5f5f6080858703121561317657613175612896565b5b5f6131838782880161296a565b9450506020613194878288016128bd565b93505060406131a5878288016128bd565b925050606085013567ffffffffffffffff8111156131c6576131c561289a565b5b6131d287828801613066565b91505092959194509250565b7f696e76616c696420726563697069656e740000000000000000000000000000005f82015250565b5f613212601183612a13565b915061321d826131de565b602082019050919050565b5f6020820190508181035f83015261323f81613206565b9050919050565b7f73747265616d20696e61637469766500000000000000000000000000000000005f82015250565b5f61327a600f83612a13565b915061328582613246565b602082019050919050565b5f6020820190508181035f8301526132a78161326e565b9050919050565b7f73747265616d20706175736564000000000000000000000000000000000000005f82015250565b5f6132e2600d83612a13565b91506132ed826132ae565b602082019050919050565b5f6020820190508181035f83015261330f816132d6565b9050919050565b7f4e487b71000000000000000000000000000000000000000000000000000000005f52603260045260245ffd5b7f63616c6c6572206e6f74206120726563697069656e74000000000000000000005f82015250565b5f613377601683612a13565b915061338282613343565b602082019050919050565b5f6020820190508181035f8301526133a48161336b565b9050919050565b7f4e487b71000000000000000000000000000000000000000000000000000000005f52602260045260245ffd5b5f60028204905060018216806133ef57607f821691505b602082108103613402576134016133ab565b5b50919050565b7f6e6f7420617574686f72697a65640000000000000000000000000000000000005f82015250565b5f61343c600e83612a13565b915061344782613408565b602082019050919050565b5f6020820190508181035f83015261346981613430565b9050919050565b7f4e487b71000000000000000000000000000000000000000000000000000000005f52601160045260245ffd5b5f6134a78261289e565b91506134b28361289e565b92508282039050818111156134ca576134c9613470565b5b92915050565b5f6134da8261289e565b91506134e58361289e565b92508282026134f38161289e565b9150828204841483151761350a57613509613470565b5b5092915050565b7f4e487b71000000000000000000000000000000000000000000000000000000005f52601260045260245ffd5b5f6135488261289e565b91506135538361289e565b92508261356357613562613511565b5b828204905092915050565b5f6135788261289e565b91506135838361289e565b925082820190508082111561359b5761359a613470565b5b92915050565b5f6040820190506135b45f8301856129fa565b6135c160208301846128fc565b9392505050565b6135d181612a79565b81146135db575f5ffd5b50565b5f815190506135ec816135c8565b92915050565b5f6020828403121561360757613606612896565b5b5f613614848285016135de565b91505092915050565b7f7472616e73666572206661696c656400000000000000000000000000000000005f82015250565b5f613651600f83612a13565b915061365c8261361d565b602082019050919050565b5f6020820190508181035f83015261367e81613645565b9050919050565b7f616c7265616479207061757365640000000000000000000000000000000000005f82015250565b5f6136b9600e83612a13565b91506136c482613685565b602082019050919050565b5f6020820190508181035f8301526136e6816136ad565b9050919050565b7f6f6e6c792073656e6465720000000000000000000000000000000000000000005f82015250565b5f613721600b83612a13565b915061372c826136ed565b602082019050919050565b5f6020820190508181035f83015261374e81613715565b9050919050565b7f73747265616d206e6f74207374617274656400000000000000000000000000005f82015250565b5f613789601283612a13565b915061379482613755565b602082019050919050565b5f6020820190508181035f8301526137b68161377d565b9050919050565b7f696e76616c696420616d6f756e740000000000000000000000000000000000005f82015250565b5f6137f1600e83612a13565b91506137fc826137bd565b602082019050919050565b5f6020820190508181035f83015261381e816137e5565b9050919050565b7f6578636565647320636c61696d61626c650000000000000000000000000000005f82015250565b5f613859601183612a13565b915061386482613825565b602082019050919050565b5f6020820190508181035f8301526138868161384d565b9050919050565b7f6e6f7420706175736564000000000000000000000000000000000000000000005f82015250565b5f6138c1600a83612a13565b91506138cc8261388d565b602082019050919050565b5f6020820190508181035f8301526138ee816138b5565b9050919050565b7f6e656564206d756c7469706c6520726563697069656e747300000000000000005f82015250565b5f613929601883612a13565b9150613934826138f5565b602082019050919050565b5f6020820190508181035f8301526139568161391d565b9050919050565b7f6172726179206d69736d617463680000000000000000000000000000000000005f82015250565b5f613991600e83612a13565b915061399c8261395d565b602082019050919050565b5f6020820190508181035f8301526139be81613985565b9050919050565b7f696e76616c696420616d6f756e74206f72206475726174696f6e0000000000005f82015250565b5f6139f9601a83612a13565b9150613a04826139c5565b602082019050919050565b5f6020820190508181035f830152613a26816139ed565b9050919050565b7f6261642070657263656e746167650000000000000000000000000000000000005f82015250565b5f613a61600e83612a13565b9150613a6c82613a2d565b602082019050919050565b5f6020820190508181035f830152613a8e81613a55565b9050919050565b7f70657263656e7461676573206d7573742073756d20746f2031303030300000005f82015250565b5f613ac9601d83612a13565b9150613ad482613a95565b602082019050919050565b5f6020820190508181035f830152613af681613abd565b9050919050565b5f606082019050613b105f8301866129fa565b613b1d60208301856129fa565b613b2a60408301846128fc565b949350505050565b5f819050815f5260205f209050919050565b5f6020601f8301049050919050565b5f82821b905092915050565b5f60088302613b8e7fffffffffffffffffffffffffffffffffffffffffffffffffffffffffffffffff82613b53565b613b988683613b53565b95508019841693508086168417925050509392505050565b5f819050919050565b5f613bd3613bce613bc98461289e565b613bb0565b61289e565b9050919050565b5f819050919050565b613bec83613bb9565b613c00613bf882613bda565b848454613b5f565b825550505050565b5f5f905090565b613c17613c08565b613c22818484613be3565b505050565b5b81811015613c4557613c3a5f82613c0f565b600181019050613c28565b5050565b601f821115613c8a57613c5b81613b32565b613c6484613b44565b81016020851015613c73578190505b613c87613c7f85613b44565b830182613c27565b50505b505050565b5f82821c905092915050565b5f613caa5f1984600802613c8f565b1980831691505092915050565b5f613cc28383613c9b565b9150826002028217905092915050565b613cdb82612a09565b67ffffffffffffffff811115613cf457613cf3612de7565b5b613cfe82546133d8565b613d09828285613c49565b5f60209050601f831160018114613d3a575f8415613d28578287015190505b613d328582613cb7565b865550613d99565b601f198416613d4886613b32565b5f5b82811015613d6f57848901518255600182019150602085019450602081019050613d4a565b86831015613d8c5784890151613d88601f891682613c9b565b8355505b6001600288020188555050505b505050505050565b5f613dab8261289e565b91507fffffffffffffffffffffffffffffffffffffffffffffffffffffffffffffffff8203613ddd57613ddc613470565b5b600182019050919050565b5f604082019050613dfb5f8301856128fc565b613e0860208301846128fc565b939250505056fea26469706673582212205d76885ae59b67bb3cca7a86122e454d011b45144582b08f5e9a6562b1a1859164736f6c634300081e0033","linkReferences":{}},"methodIdentifiers":{"cancelStream(uint256)":"6db9241b","createMultipleStreams(address[],uint256,uint256,uint256[],string)":"d0555c11","createStream(address,uint256,uint256,string)":"dee04a72","getClaimableBalance(uint256)":"a4424d5a","getClaimableFunds(uint256)":"1d2f7ee4","getStreamArrays(uint256)":"93866b90","getStreamsByRecipient(address)":"98c49e45","getStreamsBySender(address)":"7c7e10af","pauseStream(uint256)":"746ff13d","redirectClaimsRecipient(uint256,address)":"585c8ae4","streams(uint256)":"64d60d91","streamsByRecipient(address,uint256)":"cc3cfc05","streamsBySender(address,uint256)":"4e8cb615","transferClaimsToAddress(uint256,uint256,address)":"b92554b1","unPauseStream(uint256)":"a6f55bbe","withdrawFromStream(uint256,uint256)":"7a9b2c6c"},"id":3}