{"abi":[{"type":"constructor","inputs":[{"name":"_usdtAddress","type":"address","internalType":"address"}],"stateMutability":"nonpayable"},{"type":"function","name":"cancelStream","inputs":[{"name":"_streamId","type":"uint256","internalType":"uint256"}],"outputs":[],"stateMutability":"nonpayable"},{"type":"function","name":"createMultipleStreams","inputs":[{"name":"_recipients","type":"address[]","internalType":"address[]"},{"name":"_duration","type":"uint256","internalType":"uint256"},{"name":"_amount","type":"uint256","internalType":"uint256"},{"name":"_percentages","type":"uint256[]","internalType":"uint256[]"},{"name":"_message","type":"string","internalType":"string"}],"outputs":[{"name":"","type":"uint256","internalType":"uint256"}],"stateMutability":"nonpayable"},{"type":"function","name":"createStream","inputs":[{"name":"_recipient","type":"address","internalType":"address"},{"name":"_duration","type":"uint256","internalType":"uint256"},{"name":"_amount","type":"uint256","internalType":"uint256"},{"name":"_message","type":"string","internalType":"string"}],"outputs":[{"name":"","type":"uint256","internalType":"uint256"}],"stateMutability":"nonpayable"},{"type":"function","name":"getClaimableBalance","inputs":[{"name":"streamId","type":"uint256","internalType":"uint256"}],"outputs":[{"name":"","type":"uint256","internalType":"uint256"}],"stateMutability":"view"},{"type":"function","name":"getClaimableFunds","inputs":[{"name":"_streamId","type":"uint256","internalType":"uint256"}],"outputs":[{"name":"","type":"uint256","internalType":"uint256"}],"stateMutability":"view"},{"type":"function","name":"getStreamArrays","inputs":[{"name":"streamId","type":"uint256","internalType":"uint256"}],"outputs":[{"name":"recipients","type":"address[]","internalType":"address[]"},{"name":"percentages","type":"uint256[]","internalType":"uint256[]"},{"name":"withdrawn","type":"uint256[]","internalType":"uint256[]"}],"stateMutability":"view"},{"type":"function","name":"getStreamsByRecipient","inputs":[{"name":"user","type":"address","internalType":"address"}],"outputs":[{"name":"","type":"uint256[]","internalType":"uint256[]"}],"stateMutability":"view"},{"type":"function","name":"getStreamsBySender","inputs":[{"name":"user","type":"address","internalType":"address"}],"outputs":[{"name":"","type":"uint256[]","internalType":"uint256[]"}],"stateMutability":"view"},{"type":"function","name":"pauseStream","inputs":[{"name":"_streamId","type":"uint256","internalType":"uint256"}],"outputs":[],"stateMutability":"nonpayable"},{"type":"function","name":"redirectClaimsRecipient","inputs":[{"name":"_streamId","type":"uint256","internalType":"uint256"},{"name":"_newRecipient","type":"address","internalType":"address"}],"outputs":[],"stateMutability":"nonpayable"},{"type":"function","name":"streams","inputs":[{"name":"","type":"uint256","internalType":"uint256"}],"outputs":[{"name":"id","type":"uint256","internalType":"uint256"},{"name":"sender","type":"address","internalType":"address"},{"name":"message","type":"string","internalType":"string"},{"name":"duration","type":"uint256","internalType":"uint256"},{"name":"amount","type":"uint256","internalType":"uint256"},{"name":"startTime","type":"uint256","internalType":"uint256"},{"name":"endTime","type":"uint256","internalType":"uint256"},{"name":"flowRate","type":"uint256","internalType":"uint256"},{"name":"active","type":"bool","internalType":"bool"},{"name":"paused","type":"bool","internalType":"bool"},{"name":"pausedAt","type":"uint256","internalType":"uint256"},{"name":"totalPausedDuration","type":"uint256","internalType":"uint256"}],"stateMutability":"view"},{"type":"function","name":"streamsByRecipient","inputs":[{"name":"","type":"address","internalType":"address"},{"name":"","type":"uint256","internalType":"uint256"}],"outputs":[{"name":"","type":"uint256","internalType":"uint256"}],"stateMutability":"view"},{"type":"function","name":"streamsBySender","inputs":[{"name":"","type":"address","internalType":"address"},{"name":"","type":"uint256","internalType":"uint256"}],"outputs":[{"name":"","type":"uint256","internalType":"uint256"}],"stateMutability":"view"},{"type":"function","name":"transferClaimsToAddress","inputs":[{"name":"_streamId","type":"uint256","internalType":"uint256"},{"name":"_amount","type":"uint256","internalType":"uint256"},{"name":"_receiver","type":"address","internalType":"address"}],"outputs":[],"stateMutability":"nonpayable"},{"type":"function","name":"unPauseStream","inputs":[{"name":"_streamId","type":"uint256","internalType":"uint256"}],"outputs":[],"stateMutability":"nonpayable"},{"type":"function","name":"withdrawFromStream","inputs":[{"name":"_streamId","type":"uint256","internalType":"uint256"},{"name":"_amount","type":"uint256","internalType":"uint256"}],"outputs":[],"stateMutability":"nonpayable"},{"type":"event","name":"ClaimsTransferred","inputs":[{"name":"id","type":"uint256","indexed":true,"internalType":"uint256"},{"name":"to","type":"address","indexed":true,"internalType":"address"},{"name":"amount","type":"uint256","indexed":false,"internalType":"uint256"}],"anonymous":false},{"type":"event","name":"StreamCancelled","inputs":[{"name":"id","type":"uint256","indexed":true,"internalType":"uint256"}],"anonymous":false},{"type":"event","name":"StreamCreated","inputs":[{"name":"id","type":"uint256","indexed":true,"internalType":"uint256"},{"name":"sender","type":"address","indexed":true,"internalType":"address"},{"name":"amount","type":"uint256","indexed":false,"internalType":"uint256"},{"name":"duration","type":"uint256","indexed":false,"internalType":"uint256"}],"anonymous":false},{"type":"event","name":"StreamPaused","inputs":[{"name":"id","type":"uint256","indexed":true,"internalType":"uint256"}],"anonymous":false},{"type":"event","name":"StreamRecipient","inputs":[{"name":"id","type":"uint256","indexed":true,"internalType":"uint256"},{"name":"recipient","type":"address","indexed":true,"internalType":"address"},{"name":"percentage","type":"uint256","indexed":false,"internalType":"uint256"}],"anonymous":false},{"type":"event","name":"StreamRedirected","inputs":[{"name":"id","type":"uint256","indexed":true,"internalType":"uint256"},{"name":"oldRecipient","type":"address","indexed":true,"internalType":"address"},{"name":"newRecipient","type":"address","indexed":true,"internalType":"address"}],"anonymous":false},{"type":"event","name":"StreamUnpaused","inputs":[{"name":"id","type":"uint256","indexed":true,"internalType":"uint256"}],"anonymous":false},{"type":"event","name":"WithdrawFromStream","inputs":[{"name":"id","type":"uint256","indexed":true,"internalType":"uint256"},{"name":"recipient","type":"address","indexed":true,"internalType":"address"},{"name":"amount","type":"uint256","indexed":false,"internalType":"uint256"}],"anonymous":false},{"type":"error","name":"ReentrancyGuardReentrantCall","inputs":[]}],"bytecode":{"object":"0x60a060405260015f55348015610013575f5ffd5b5060405161415638038061415683398181016040528101906100359190610191565b600161005361004861010160201b60201c565b61012a60201b60201c565b5f01819055505f73ffffffffffffffffffffffffffffffffffffffff168173ffffffffffffffffffffffffffffffffffffffff16036100c7576040517f08c379a00000000000000000000000000000000000000000000000000000000081526004016100be90610216565b60405180910390fd5b8073ffffffffffffffffffffffffffffffffffffffff1660808173ffffffffffffffffffffffffffffffffffffffff168152505050610234565b5f7f9b779b17422d0df92223018b32b4d1fa46e071723d6817e2486d003becc55f005f1b905090565b5f819050919050565b5f5ffd5b5f73ffffffffffffffffffffffffffffffffffffffff82169050919050565b5f61016082610137565b9050919050565b61017081610156565b811461017a575f5ffd5b50565b5f8151905061018b81610167565b92915050565b5f602082840312156101a6576101a5610133565b5b5f6101b38482850161017d565b91505092915050565b5f82825260208201905092915050565b7f496e76616c6964205553445420616464726573730000000000000000000000005f82015250565b5f6102006014836101bc565b915061020b826101cc565b602082019050919050565b5f6020820190508181035f83015261022d816101f4565b9050919050565b608051613ee761026f5f395f81816109db01528181610b230152818161105901528181611a4901528181611d6c01526123600152613ee75ff3fe608060405234801561000f575f5ffd5b50600436106100fe575f3560e01c806393866b9011610095578063b92554b111610064578063b92554b1146102eb578063cc3cfc0514610307578063d0555c1114610337578063dee04a7214610367576100fe565b806393866b901461023d57806398c49e451461026f578063a4424d5a1461029f578063a6f55bbe146102cf576100fe565b80636db9241b116100d15780636db9241b146101b9578063746ff13d146101d55780637a9b2c6c146101f15780637c7e10af1461020d576100fe565b80631d2f7ee4146101025780634e8cb61514610132578063585c8ae41461016257806364d60d911461017e575b5f5ffd5b61011c60048036038101906101179190612973565b610397565b60405161012991906129ad565b60405180910390f35b61014c60048036038101906101479190612a20565b6103c3565b60405161015991906129ad565b60405180910390f35b61017c60048036038101906101779190612a5e565b6103ee565b005b61019860048036038101906101939190612973565b6106ae565b6040516101b09c9b9a99989796959493929190612b35565b60405180910390f35b6101d360048036038101906101ce9190612973565b6107c8565b005b6101ef60048036038101906101ea9190612973565b610c60565b005b61020b60048036038101906102069190612bf4565b610df5565b005b61022760048036038101906102229190612c32565b611192565b6040516102349190612d14565b60405180910390f35b61025760048036038101906102529190612973565b611225565b60405161026693929190612deb565b60405180910390f35b61028960048036038101906102849190612c32565b61137d565b6040516102969190612d14565b60405180910390f35b6102b960048036038101906102b49190612973565b611410565b6040516102c691906129ad565b60405180910390f35b6102e960048036038101906102e49190612973565b61165a565b005b61030560048036038101906103009190612e35565b6117ed565b005b610321600480360381019061031c9190612a20565b611b7b565b60405161032e91906129ad565b60405180910390f35b610351600480360381019061034c9190613135565b611ba6565b60405161035e91906129ad565b60405180910390f35b610381600480360381019061037c9190613200565b612299565b60405161038e91906129ad565b60405180910390f35b5f5f60015f8481526020019081526020015f2090505f6103b73383612718565b90508092505050919050565b6002602052815f5260405f2081815481106103dc575f80fd5b905f5260205f20015f91509150505481565b5f73ffffffffffffffffffffffffffffffffffffffff168173ffffffffffffffffffffffffffffffffffffffff160361045c576040517f08c379a0000000000000000000000000000000000000000000000000000000008152600401610453906132ca565b60405180910390fd5b5f60015f8481526020019081526020015f20905080600b015f9054906101000a900460ff166104c0576040517f08c379a00000000000000000000000000000000000000000000000000000000081526004016104b790613332565b60405180910390fd5b80600b0160019054906101000a900460ff1615610512576040517f08c379a00000000000000000000000000000000000000000000000000000000081526004016105099061339a565b60405180910390fd5b5f5f90505f5f90505b826003018054905081101561060c573373ffffffffffffffffffffffffffffffffffffffff16836003018281548110610557576105566133b8565b5b905f5260205f20015f9054906101000a900473ffffffffffffffffffffffffffffffffffffffff1673ffffffffffffffffffffffffffffffffffffffff16036105ff57838360030182815481106105b1576105b06133b8565b5b905f5260205f20015f6101000a81548173ffffffffffffffffffffffffffffffffffffffff021916908373ffffffffffffffffffffffffffffffffffffffff1602179055506001915061060c565b808060010191505061051b565b508061064d576040517f08c379a00000000000000000000000000000000000000000000000000000000081526004016106449061342f565b60405180910390fd5b8273ffffffffffffffffffffffffffffffffffffffff163373ffffffffffffffffffffffffffffffffffffffff16857f0f81a452435213495f5eb594ea69c07fb66cb271c8c2b57e4e89b44abf6654a160405160405180910390a450505050565b6001602052805f5260405f205f91509050805f015490806001015f9054906101000a900473ffffffffffffffffffffffffffffffffffffffff16908060020180546106f89061347a565b80601f01602080910402602001604051908101604052809291908181526020018280546107249061347a565b801561076f5780601f106107465761010080835404028352916020019161076f565b820191905f5260205f20905b81548152906001019060200180831161075257829003601f168201915b50505050509080600501549080600601549080600701549080600801549080600901549080600b015f9054906101000a900460ff169080600b0160019054906101000a900460ff169080600c01549080600d015490508c565b6107d0612864565b5f60015f8381526020019081526020015f20905080600b015f9054906101000a900460ff16610834576040517f08c379a000000000000000000000000000000000000000000000000000000000815260040161082b90613332565b60405180910390fd5b5f816001015f9054906101000a900473ffffffffffffffffffffffffffffffffffffffff1673ffffffffffffffffffffffffffffffffffffffff163373ffffffffffffffffffffffffffffffffffffffff16149050806108c9576040517f08c379a00000000000000000000000000000000000000000000000000000000081526004016108c0906134f4565b60405180910390fd5b5f82600b015f6101000a81548160ff0219169083151502179055505f826008015442101561090657826007015442610901919061353f565b61090c565b82600501545b90505f83600901548261091f9190613572565b90505f5f90505b8460030180549050811015610b04575f61271086600401838154811061094f5761094e6133b8565b5b905f5260205f200154846109639190613572565b61096d91906135e0565b90505f86600a018381548110610986576109856133b8565b5b905f5260205f2001548261099a919061353f565b90505f811115610af5578087600a0184815481106109bb576109ba6133b8565b5b905f5260205f20015f8282546109d19190613610565b925050819055505f7f000000000000000000000000000000000000000000000000000000000000000073ffffffffffffffffffffffffffffffffffffffff1663a9059cbb896003018681548110610a2b57610a2a6133b8565b5b905f5260205f20015f9054906101000a900473ffffffffffffffffffffffffffffffffffffffff16846040518363ffffffff1660e01b8152600401610a71929190613643565b6020604051808303815f875af1158015610a8d573d5f5f3e3d5ffd5b505050506040513d601f19601f82011682018060405250810190610ab19190613694565b905080610af3576040517f08c379a0000000000000000000000000000000000000000000000000000000008152600401610aea90613709565b60405180910390fd5b505b50508080600101915050610926565b505f818560060154610b16919061353f565b90505f811115610c23575f7f000000000000000000000000000000000000000000000000000000000000000073ffffffffffffffffffffffffffffffffffffffff1663a9059cbb876001015f9054906101000a900473ffffffffffffffffffffffffffffffffffffffff16846040518363ffffffff1660e01b8152600401610b9f929190613643565b6020604051808303815f875af1158015610bbb573d5f5f3e3d5ffd5b505050506040513d601f19601f82011682018060405250810190610bdf9190613694565b905080610c21576040517f08c379a0000000000000000000000000000000000000000000000000000000008152600401610c1890613709565b60405180910390fd5b505b857f75b8c91e46f219f2164d6bce576e7cebd2d3ff8749726009fcafdf04e2e1eb7b60405160405180910390a25050505050610c5d612886565b50565b5f60015f8381526020019081526020015f20905080600b015f9054906101000a900460ff16610cc4576040517f08c379a0000000000000000000000000000000000000000000000000000000008152600401610cbb90613332565b60405180910390fd5b80600b0160019054906101000a900460ff1615610d16576040517f08c379a0000000000000000000000000000000000000000000000000000000008152600401610d0d90613771565b60405180910390fd5b806001015f9054906101000a900473ffffffffffffffffffffffffffffffffffffffff1673ffffffffffffffffffffffffffffffffffffffff163373ffffffffffffffffffffffffffffffffffffffff1614610da7576040517f08c379a0000000000000000000000000000000000000000000000000000000008152600401610d9e906137d9565b60405180910390fd5b600181600b0160016101000a81548160ff021916908315150217905550817fc1e14ec692cfc1a89cae539cb884be8d7cc39fd7a129fd73e0d59895fe48d2b860405160405180910390a25050565b610dfd612864565b5f60015f8481526020019081526020015f20905080600b015f9054906101000a900460ff16610e61576040517f08c379a0000000000000000000000000000000000000000000000000000000008152600401610e5890613332565b60405180910390fd5b80600b0160019054906101000a900460ff1615610eb3576040517f08c379a0000000000000000000000000000000000000000000000000000000008152600401610eaa9061339a565b60405180910390fd5b80600701544211610ef9576040517f08c379a0000000000000000000000000000000000000000000000000000000008152600401610ef090613841565b60405180910390fd5b5f610f043383612718565b90505f8311610f48576040517f08c379a0000000000000000000000000000000000000000000000000000000008152600401610f3f906138a9565b60405180910390fd5b80831115610f8b576040517f08c379a0000000000000000000000000000000000000000000000000000000008152600401610f8290613911565b60405180910390fd5b5f5f90505b8260030180549050811015611055573373ffffffffffffffffffffffffffffffffffffffff16836003018281548110610fcc57610fcb6133b8565b5b905f5260205f20015f9054906101000a900473ffffffffffffffffffffffffffffffffffffffff1673ffffffffffffffffffffffffffffffffffffffff1603611048578383600a018281548110611026576110256133b8565b5b905f5260205f20015f82825461103c9190613610565b92505081905550611055565b8080600101915050610f90565b505f7f000000000000000000000000000000000000000000000000000000000000000073ffffffffffffffffffffffffffffffffffffffff1663a9059cbb33866040518363ffffffff1660e01b81526004016110b2929190613643565b6020604051808303815f875af11580156110ce573d5f5f3e3d5ffd5b505050506040513d601f19601f820116820180604052508101906110f29190613694565b905080611134576040517f08c379a000000000000000000000000000000000000000000000000000000000815260040161112b90613709565b60405180910390fd5b3373ffffffffffffffffffffffffffffffffffffffff16857f36c3ab437e6a424ed25dc4bfdeb62706aa06558660fab2dab229d2555adaf89c8660405161117b91906129ad565b60405180910390a350505061118e612886565b5050565b606060025f8373ffffffffffffffffffffffffffffffffffffffff1673ffffffffffffffffffffffffffffffffffffffff1681526020019081526020015f2080548060200260200160405190810160405280929190818152602001828054801561121957602002820191905f5260205f20905b815481526020019060010190808311611205575b50505050509050919050565b60608060605f60015f8681526020019081526020015f209050806003018160040182600a01828054806020026020016040519081016040528092919081815260200182805480156112c857602002820191905f5260205f20905b815f9054906101000a900473ffffffffffffffffffffffffffffffffffffffff1673ffffffffffffffffffffffffffffffffffffffff168152602001906001019080831161127f575b505050505092508180548060200260200160405190810160405280929190818152602001828054801561131857602002820191905f5260205f20905b815481526020019060010190808311611304575b505050505091508080548060200260200160405190810160405280929190818152602001828054801561136857602002820191905f5260205f20905b815481526020019060010190808311611354575b50505050509050935093509350509193909250565b606060035f8373ffffffffffffffffffffffffffffffffffffffff1673ffffffffffffffffffffffffffffffffffffffff1681526020019081526020015f2080548060200260200160405190810160405280929190818152602001828054801561140457602002820191905f5260205f20905b8154815260200190600101908083116113f0575b50505050509050919050565b5f5f60015f8481526020019081526020015f20905080600b015f9054906101000a900460ff16611475576040517f08c379a000000000000000000000000000000000000000000000000000000000815260040161146c90613332565b60405180910390fd5b80600b0160019054906101000a900460ff16156114c7576040517f08c379a00000000000000000000000000000000000000000000000000000000081526004016114be9061339a565b60405180910390fd5b806007015442101561150e576040517f08c379a000000000000000000000000000000000000000000000000000000000815260040161150590613841565b60405180910390fd5b5f816008015442106115265781600501549050611539565b816007015442611536919061353f565b90505b5f82600901548261154a9190613572565b90505f5f90505b836003018054905081101561164d573373ffffffffffffffffffffffffffffffffffffffff1684600301828154811061158d5761158c6133b8565b5b905f5260205f20015f9054906101000a900473ffffffffffffffffffffffffffffffffffffffff1673ffffffffffffffffffffffffffffffffffffffff1603611640575f6127108560040183815481106115ea576115e96133b8565b5b905f5260205f200154846115fe9190613572565b61160891906135e0565b905084600a0182815481106116205761161f6133b8565b5b905f5260205f20015481611634919061353f565b95505050505050611655565b8080600101915050611551565b505f93505050505b919050565b5f60015f8381526020019081526020015f20905080600b015f9054906101000a900460ff166116be576040517f08c379a00000000000000000000000000000000000000000000000000000000081526004016116b590613332565b60405180910390fd5b80600b0160019054906101000a900460ff1661170f576040517f08c379a000000000000000000000000000000000000000000000000000000000815260040161170690613979565b60405180910390fd5b806001015f9054906101000a900473ffffffffffffffffffffffffffffffffffffffff1673ffffffffffffffffffffffffffffffffffffffff163373ffffffffffffffffffffffffffffffffffffffff16146117a0576040517f08c379a0000000000000000000000000000000000000000000000000000000008152600401611797906137d9565b60405180910390fd5b5f81600b0160016101000a81548160ff021916908315150217905550817f1596c7c03ad2a3ba0ace554b73f0d4cabac8f60ebba723b7f501aa9697f673e960405160405180910390a25050565b5f60015f8581526020019081526020015f20905080600b015f9054906101000a900460ff16611851576040517f08c379a000000000000000000000000000000000000000000000000000000000815260040161184890613332565b60405180910390fd5b80600b0160019054906101000a900460ff16156118a3576040517f08c379a000000000000000000000000000000000000000000000000000000000815260040161189a9061339a565b60405180910390fd5b806007015442116118e9576040517f08c379a00000000000000000000000000000000000000000000000000000000081526004016118e090613841565b60405180910390fd5b5f6118f43383612718565b90505f8411611938576040517f08c379a000000000000000000000000000000000000000000000000000000000815260040161192f906138a9565b60405180910390fd5b8084111561197b576040517f08c379a000000000000000000000000000000000000000000000000000000000815260040161197290613911565b60405180910390fd5b5f5f90505b8260030180549050811015611a45573373ffffffffffffffffffffffffffffffffffffffff168360030182815481106119bc576119bb6133b8565b5b905f5260205f20015f9054906101000a900473ffffffffffffffffffffffffffffffffffffffff1673ffffffffffffffffffffffffffffffffffffffff1603611a38578483600a018281548110611a1657611a156133b8565b5b905f5260205f20015f828254611a2c9190613610565b92505081905550611a45565b8080600101915050611980565b505f7f000000000000000000000000000000000000000000000000000000000000000073ffffffffffffffffffffffffffffffffffffffff1663a9059cbb85876040518363ffffffff1660e01b8152600401611aa2929190613643565b6020604051808303815f875af1158015611abe573d5f5f3e3d5ffd5b505050506040513d601f19601f82011682018060405250810190611ae29190613694565b905080611b24576040517f08c379a0000000000000000000000000000000000000000000000000000000008152600401611b1b90613709565b60405180910390fd5b8373ffffffffffffffffffffffffffffffffffffffff16867ffc170a5b9f226b178db20055cd172a977ad897453b2959bdcdb491bb9f79522d87604051611b6b91906129ad565b60405180910390a3505050505050565b6003602052815f5260405f208181548110611b94575f80fd5b905f5260205f20015f91509150505481565b5f611baf612864565b6001865111611bf3576040517f08c379a0000000000000000000000000000000000000000000000000000000008152600401611bea906139e1565b60405180910390fd5b8251865114611c37576040517f08c379a0000000000000000000000000000000000000000000000000000000008152600401611c2e90613a49565b60405180910390fd5b5f84118015611c4557505f85115b611c84576040517f08c379a0000000000000000000000000000000000000000000000000000000008152600401611c7b90613ab1565b60405180910390fd5b5f5f5f90505b8451811015611d24575f858281518110611ca757611ca66133b8565b5b602002602001015111611cef576040517f08c379a0000000000000000000000000000000000000000000000000000000008152600401611ce690613b19565b60405180910390fd5b848181518110611d0257611d016133b8565b5b602002602001015182611d159190613610565b91508080600101915050611c8a565b506127108114611d69576040517f08c379a0000000000000000000000000000000000000000000000000000000008152600401611d6090613b81565b60405180910390fd5b5f7f000000000000000000000000000000000000000000000000000000000000000073ffffffffffffffffffffffffffffffffffffffff166323b872dd3330896040518463ffffffff1660e01b8152600401611dc793929190613b9f565b6020604051808303815f875af1158015611de3573d5f5f3e3d5ffd5b505050506040513d601f19601f82011682018060405250810190611e079190613694565b905080611e49576040517f08c379a0000000000000000000000000000000000000000000000000000000008152600401611e4090613709565b60405180910390fd5b5f5f5490505f60015f8381526020019081526020015f2090505f5f90505b8a518110156120e9575f73ffffffffffffffffffffffffffffffffffffffff168b8281518110611e9a57611e996133b8565b5b602002602001015173ffffffffffffffffffffffffffffffffffffffff1603611ef8576040517f08c379a0000000000000000000000000000000000000000000000000000000008152600401611eef906132ca565b60405180910390fd5b816003018b8281518110611f0f57611f0e6133b8565b5b6020026020010151908060018154018082558091505060019003905f5260205f20015f9091909190916101000a81548173ffffffffffffffffffffffffffffffffffffffff021916908373ffffffffffffffffffffffffffffffffffffffff16021790555081600401888281518110611f8b57611f8a6133b8565b5b6020026020010151908060018154018082558091505060019003905f5260205f20015f909190919091505581600a015f908060018154018082558091505060019003905f5260205f20015f909190919091505560035f8c8381518110611ff457611ff36133b8565b5b602002602001015173ffffffffffffffffffffffffffffffffffffffff1673ffffffffffffffffffffffffffffffffffffffff1681526020019081526020015f2083908060018154018082558091505060019003905f5260205f20015f90919091909150558a818151811061206c5761206b6133b8565b5b602002602001015173ffffffffffffffffffffffffffffffffffffffff16837f36c8c364d3add8a80edb09b638d7bdd81a77e5a498255d6edf53ed891bf806ab8a84815181106120bf576120be6133b8565b5b60200260200101516040516120d491906129ad565b60405180910390a38080600101915050611e67565b5033816001015f6101000a81548173ffffffffffffffffffffffffffffffffffffffff021916908373ffffffffffffffffffffffffffffffffffffffff16021790555088816005018190555087816006018190555042816007018190555088426121539190613610565b8160080181905550888861216791906135e0565b8160090181905550600181600b015f6101000a81548160ff0219169083151502179055505f81600b0160016101000a81548160ff021916908315150217905550858160020190816121b89190613d74565b505f5f8154809291906121ca90613e43565b919050555060025f3373ffffffffffffffffffffffffffffffffffffffff1673ffffffffffffffffffffffffffffffffffffffff1681526020019081526020015f2082908060018154018082558091505060019003905f5260205f20015f90919091909150553373ffffffffffffffffffffffffffffffffffffffff16827fe182e2dc0f9d78c65c0a90f042f4e89439fc8badf149f1bfaad7ed3f4e534ebc8a8c604051612279929190613e8a565b60405180910390a381945050505050612290612886565b95945050505050565b5f6122a2612864565b5f73ffffffffffffffffffffffffffffffffffffffff168573ffffffffffffffffffffffffffffffffffffffff1603612310576040517f08c379a0000000000000000000000000000000000000000000000000000000008152600401612307906132ca565b60405180910390fd5b5f8311801561231e57505f84115b61235d576040517f08c379a000000000000000000000000000000000000000000000000000000000815260040161235490613ab1565b60405180910390fd5b5f7f000000000000000000000000000000000000000000000000000000000000000073ffffffffffffffffffffffffffffffffffffffff166323b872dd3330876040518463ffffffff1660e01b81526004016123bb93929190613b9f565b6020604051808303815f875af11580156123d7573d5f5f3e3d5ffd5b505050506040513d601f19601f820116820180604052508101906123fb9190613694565b90508061243d576040517f08c379a000000000000000000000000000000000000000000000000000000000815260040161243490613709565b60405180910390fd5b5f5f5490505f60015f8381526020019081526020015f20905033816001015f6101000a81548173ffffffffffffffffffffffffffffffffffffffff021916908373ffffffffffffffffffffffffffffffffffffffff1602179055508060030188908060018154018082558091505060019003905f5260205f20015f9091909190916101000a81548173ffffffffffffffffffffffffffffffffffffffff021916908373ffffffffffffffffffffffffffffffffffffffff16021790555080600401612710908060018154018082558091505060019003905f5260205f20015f909190919091505580600a015f908060018154018082558091505060019003905f5260205f20015f909190919091505586816005018190555085816006018190555042816007018190555086426125739190613610565b8160080181905550868661258791906135e0565b8160090181905550600181600b015f6101000a81548160ff0219169083151502179055505f81600b0160016101000a81548160ff021916908315150217905550848160020190816125d89190613d74565b505f5f8154809291906125ea90613e43565b919050555060025f3373ffffffffffffffffffffffffffffffffffffffff1673ffffffffffffffffffffffffffffffffffffffff1681526020019081526020015f2082908060018154018082558091505060019003905f5260205f20015f909190919091505560035f8973ffffffffffffffffffffffffffffffffffffffff1673ffffffffffffffffffffffffffffffffffffffff1681526020019081526020015f2082908060018154018082558091505060019003905f5260205f20015f90919091909150553373ffffffffffffffffffffffffffffffffffffffff16827fe182e2dc0f9d78c65c0a90f042f4e89439fc8badf149f1bfaad7ed3f4e534ebc888a6040516126fa929190613e8a565b60405180910390a3819350505050612710612886565b949350505050565b5f5f826008015442106127315782600501549050612744565b826007015442612741919061353f565b90505b5f8360090154826127559190613572565b90505f5f90505b8460030180549050811015612857578573ffffffffffffffffffffffffffffffffffffffff16856003018281548110612798576127976133b8565b5b905f5260205f20015f9054906101000a900473ffffffffffffffffffffffffffffffffffffffff1673ffffffffffffffffffffffffffffffffffffffff160361284a575f6127108660040183815481106127f5576127f46133b8565b5b905f5260205f200154846128099190613572565b61281391906135e0565b905085600a01828154811061282b5761282a6133b8565b5b905f5260205f2001548161283f919061353f565b94505050505061285e565b808060010191505061275c565b505f925050505b92915050565b61286c6128a0565b600261287e6128796128e1565b61290a565b5f0181905550565b60016128986128936128e1565b61290a565b5f0181905550565b6128a8612913565b156128df576040517f3ee5aeb500000000000000000000000000000000000000000000000000000000815260040160405180910390fd5b565b5f7f9b779b17422d0df92223018b32b4d1fa46e071723d6817e2486d003becc55f005f1b905090565b5f819050919050565b5f60026129266129216128e1565b61290a565b5f015414905090565b5f604051905090565b5f5ffd5b5f5ffd5b5f819050919050565b61295281612940565b811461295c575f5ffd5b50565b5f8135905061296d81612949565b92915050565b5f6020828403121561298857612987612938565b5b5f6129958482850161295f565b91505092915050565b6129a781612940565b82525050565b5f6020820190506129c05f83018461299e565b92915050565b5f73ffffffffffffffffffffffffffffffffffffffff82169050919050565b5f6129ef826129c6565b9050919050565b6129ff816129e5565b8114612a09575f5ffd5b50565b5f81359050612a1a816129f6565b92915050565b5f5f60408385031215612a3657612a35612938565b5b5f612a4385828601612a0c565b9250506020612a548582860161295f565b9150509250929050565b5f5f60408385031215612a7457612a73612938565b5b5f612a818582860161295f565b9250506020612a9285828601612a0c565b9150509250929050565b612aa5816129e5565b82525050565b5f81519050919050565b5f82825260208201905092915050565b8281835e5f83830152505050565b5f601f19601f8301169050919050565b5f612aed82612aab565b612af78185612ab5565b9350612b07818560208601612ac5565b612b1081612ad3565b840191505092915050565b5f8115159050919050565b612b2f81612b1b565b82525050565b5f61018082019050612b495f83018f61299e565b612b56602083018e612a9c565b8181036040830152612b68818d612ae3565b9050612b77606083018c61299e565b612b84608083018b61299e565b612b9160a083018a61299e565b612b9e60c083018961299e565b612bab60e083018861299e565b612bb9610100830187612b26565b612bc7610120830186612b26565b612bd561014083018561299e565b612be361016083018461299e565b9d9c50505050505050505050505050565b5f5f60408385031215612c0a57612c09612938565b5b5f612c178582860161295f565b9250506020612c288582860161295f565b9150509250929050565b5f60208284031215612c4757612c46612938565b5b5f612c5484828501612a0c565b91505092915050565b5f81519050919050565b5f82825260208201905092915050565b5f819050602082019050919050565b612c8f81612940565b82525050565b5f612ca08383612c86565b60208301905092915050565b5f602082019050919050565b5f612cc282612c5d565b612ccc8185612c67565b9350612cd783612c77565b805f5b83811015612d07578151612cee8882612c95565b9750612cf983612cac565b925050600181019050612cda565b5085935050505092915050565b5f6020820190508181035f830152612d2c8184612cb8565b905092915050565b5f81519050919050565b5f82825260208201905092915050565b5f819050602082019050919050565b612d66816129e5565b82525050565b5f612d778383612d5d565b60208301905092915050565b5f602082019050919050565b5f612d9982612d34565b612da38185612d3e565b9350612dae83612d4e565b805f5b83811015612dde578151612dc58882612d6c565b9750612dd083612d83565b925050600181019050612db1565b5085935050505092915050565b5f6060820190508181035f830152612e038186612d8f565b90508181036020830152612e178185612cb8565b90508181036040830152612e2b8184612cb8565b9050949350505050565b5f5f5f60608486031215612e4c57612e4b612938565b5b5f612e598682870161295f565b9350506020612e6a8682870161295f565b9250506040612e7b86828701612a0c565b9150509250925092565b5f5ffd5b7f4e487b71000000000000000000000000000000000000000000000000000000005f52604160045260245ffd5b612ebf82612ad3565b810181811067ffffffffffffffff82111715612ede57612edd612e89565b5b80604052505050565b5f612ef061292f565b9050612efc8282612eb6565b919050565b5f67ffffffffffffffff821115612f1b57612f1a612e89565b5b602082029050602081019050919050565b5f5ffd5b5f612f42612f3d84612f01565b612ee7565b90508083825260208201905060208402830185811115612f6557612f64612f2c565b5b835b81811015612f8e5780612f7a8882612a0c565b845260208401935050602081019050612f67565b5050509392505050565b5f82601f830112612fac57612fab612e85565b5b8135612fbc848260208601612f30565b91505092915050565b5f67ffffffffffffffff821115612fdf57612fde612e89565b5b602082029050602081019050919050565b5f613002612ffd84612fc5565b612ee7565b9050808382526020820190506020840283018581111561302557613024612f2c565b5b835b8181101561304e578061303a888261295f565b845260208401935050602081019050613027565b5050509392505050565b5f82601f83011261306c5761306b612e85565b5b813561307c848260208601612ff0565b91505092915050565b5f5ffd5b5f67ffffffffffffffff8211156130a3576130a2612e89565b5b6130ac82612ad3565b9050602081019050919050565b828183375f83830152505050565b5f6130d96130d484613089565b612ee7565b9050828152602081018484840111156130f5576130f4613085565b5b6131008482856130b9565b509392505050565b5f82601f83011261311c5761311b612e85565b5b813561312c8482602086016130c7565b91505092915050565b5f5f5f5f5f60a0868803121561314e5761314d612938565b5b5f86013567ffffffffffffffff81111561316b5761316a61293c565b5b61317788828901612f98565b95505060206131888882890161295f565b94505060406131998882890161295f565b935050606086013567ffffffffffffffff8111156131ba576131b961293c565b5b6131c688828901613058565b925050608086013567ffffffffffffffff8111156131e7576131e661293c565b5b6131f388828901613108565b9150509295509295909350565b5f5f5f5f6080858703121561321857613217612938565b5b5f61322587828801612a0c565b94505060206132368782880161295f565b93505060406132478782880161295f565b925050606085013567ffffffffffffffff8111156132685761326761293c565b5b61327487828801613108565b91505092959194509250565b7f696e76616c696420726563697069656e740000000000000000000000000000005f82015250565b5f6132b4601183612ab5565b91506132bf82613280565b602082019050919050565b5f6020820190508181035f8301526132e1816132a8565b9050919050565b7f73747265616d20696e61637469766500000000000000000000000000000000005f82015250565b5f61331c600f83612ab5565b9150613327826132e8565b602082019050919050565b5f6020820190508181035f83015261334981613310565b9050919050565b7f73747265616d20706175736564000000000000000000000000000000000000005f82015250565b5f613384600d83612ab5565b915061338f82613350565b602082019050919050565b5f6020820190508181035f8301526133b181613378565b9050919050565b7f4e487b71000000000000000000000000000000000000000000000000000000005f52603260045260245ffd5b7f63616c6c6572206e6f74206120726563697069656e74000000000000000000005f82015250565b5f613419601683612ab5565b9150613424826133e5565b602082019050919050565b5f6020820190508181035f8301526134468161340d565b9050919050565b7f4e487b71000000000000000000000000000000000000000000000000000000005f52602260045260245ffd5b5f600282049050600182168061349157607f821691505b6020821081036134a4576134a361344d565b5b50919050565b7f6e6f7420617574686f72697a65640000000000000000000000000000000000005f82015250565b5f6134de600e83612ab5565b91506134e9826134aa565b602082019050919050565b5f6020820190508181035f83015261350b816134d2565b9050919050565b7f4e487b71000000000000000000000000000000000000000000000000000000005f52601160045260245ffd5b5f61354982612940565b915061355483612940565b925082820390508181111561356c5761356b613512565b5b92915050565b5f61357c82612940565b915061358783612940565b925082820261359581612940565b915082820484148315176135ac576135ab613512565b5b5092915050565b7f4e487b71000000000000000000000000000000000000000000000000000000005f52601260045260245ffd5b5f6135ea82612940565b91506135f583612940565b925082613605576136046135b3565b5b828204905092915050565b5f61361a82612940565b915061362583612940565b925082820190508082111561363d5761363c613512565b5b92915050565b5f6040820190506136565f830185612a9c565b613663602083018461299e565b9392505050565b61367381612b1b565b811461367d575f5ffd5b50565b5f8151905061368e8161366a565b92915050565b5f602082840312156136a9576136a8612938565b5b5f6136b684828501613680565b91505092915050565b7f7472616e73666572206661696c656400000000000000000000000000000000005f82015250565b5f6136f3600f83612ab5565b91506136fe826136bf565b602082019050919050565b5f6020820190508181035f830152613720816136e7565b9050919050565b7f616c7265616479207061757365640000000000000000000000000000000000005f82015250565b5f61375b600e83612ab5565b915061376682613727565b602082019050919050565b5f6020820190508181035f8301526137888161374f565b9050919050565b7f6f6e6c792073656e6465720000000000000000000000000000000000000000005f82015250565b5f6137c3600b83612ab5565b91506137ce8261378f565b602082019050919050565b5f6020820190508181035f8301526137f0816137b7565b9050919050565b7f73747265616d206e6f74207374617274656400000000000000000000000000005f82015250565b5f61382b601283612ab5565b9150613836826137f7565b602082019050919050565b5f6020820190508181035f8301526138588161381f565b9050919050565b7f696e76616c696420616d6f756e740000000000000000000000000000000000005f82015250565b5f613893600e83612ab5565b915061389e8261385f565b602082019050919050565b5f6020820190508181035f8301526138c081613887565b9050919050565b7f6578636565647320636c61696d61626c650000000000000000000000000000005f82015250565b5f6138fb601183612ab5565b9150613906826138c7565b602082019050919050565b5f6020820190508181035f830152613928816138ef565b9050919050565b7f6e6f7420706175736564000000000000000000000000000000000000000000005f82015250565b5f613963600a83612ab5565b915061396e8261392f565b602082019050919050565b5f6020820190508181035f83015261399081613957565b9050919050565b7f6e656564206d756c7469706c6520726563697069656e747300000000000000005f82015250565b5f6139cb601883612ab5565b91506139d682613997565b602082019050919050565b5f6020820190508181035f8301526139f8816139bf565b9050919050565b7f6172726179206d69736d617463680000000000000000000000000000000000005f82015250565b5f613a33600e83612ab5565b9150613a3e826139ff565b602082019050919050565b5f6020820190508181035f830152613a6081613a27565b9050919050565b7f696e76616c696420616d6f756e74206f72206475726174696f6e0000000000005f82015250565b5f613a9b601a83612ab5565b9150613aa682613a67565b602082019050919050565b5f6020820190508181035f830152613ac881613a8f565b9050919050565b7f6261642070657263656e746167650000000000000000000000000000000000005f82015250565b5f613b03600e83612ab5565b9150613b0e82613acf565b602082019050919050565b5f6020820190508181035f830152613b3081613af7565b9050919050565b7f70657263656e7461676573206d7573742073756d20746f2031303030300000005f82015250565b5f613b6b601d83612ab5565b9150613b7682613b37565b602082019050919050565b5f6020820190508181035f830152613b9881613b5f565b9050919050565b5f606082019050613bb25f830186612a9c565b613bbf6020830185612a9c565b613bcc604083018461299e565b949350505050565b5f819050815f5260205f209050919050565b5f6020601f8301049050919050565b5f82821b905092915050565b5f60088302613c307fffffffffffffffffffffffffffffffffffffffffffffffffffffffffffffffff82613bf5565b613c3a8683613bf5565b95508019841693508086168417925050509392505050565b5f819050919050565b5f613c75613c70613c6b84612940565b613c52565b612940565b9050919050565b5f819050919050565b613c8e83613c5b565b613ca2613c9a82613c7c565b848454613c01565b825550505050565b5f5f905090565b613cb9613caa565b613cc4818484613c85565b505050565b5b81811015613ce757613cdc5f82613cb1565b600181019050613cca565b5050565b601f821115613d2c57613cfd81613bd4565b613d0684613be6565b81016020851015613d15578190505b613d29613d2185613be6565b830182613cc9565b50505b505050565b5f82821c905092915050565b5f613d4c5f1984600802613d31565b1980831691505092915050565b5f613d648383613d3d565b9150826002028217905092915050565b613d7d82612aab565b67ffffffffffffffff811115613d9657613d95612e89565b5b613da0825461347a565b613dab828285613ceb565b5f60209050601f831160018114613ddc575f8415613dca578287015190505b613dd48582613d59565b865550613e3b565b601f198416613dea86613bd4565b5f5b82811015613e1157848901518255600182019150602085019450602081019050613dec565b86831015613e2e5784890151613e2a601f891682613d3d565b8355505b6001600288020188555050505b505050505050565b5f613e4d82612940565b91507fffffffffffffffffffffffffffffffffffffffffffffffffffffffffffffffff8203613e7f57613e7e613512565b5b600182019050919050565b5f604082019050613e9d5f83018561299e565b613eaa602083018461299e565b939250505056fea26469706673582212207804c59bcfa621b73d6f89b979753e33f234b12c03203387e5eff9ee9db2f2a364736f6c634300081e0033","linkReferences":{}},"methodIdentifiers":{"cancelStream(uint256)":"6db9241b","createMultipleStreams(address[],uint256,uint256,uint256[],string)":"d0555c11","createStream(address,uint256,uint256,string)":"dee04a72","getClaimableBalance(uint256)":"a4424d5a","getClaimableFunds(uint256)":"1d2f7ee4","getStreamArrays(uint256)":"93866b90","getStreamsByRecipient(address)":"98c49e45","getStreamsBySender(address)":"7c7e10af","pauseStream(uint256)":"746ff13d","redirectClaimsRecipient(uint256,address)":"585c8ae4","streams(uint256)":"64d60d91","streamsByRecipient(address,uint256)":"cc3cfc05","streamsBySender(address,uint256)":"4e8cb615","transferClaimsToAddress(uint256,uint256,address)":"b92554b1","unPauseStream(uint256)":"a6f55bbe","withdrawFromStream(uint256,uint256)":"7a9b2c6c"},"id":3}